:020000040800F2
:1000000000000220698000082B0600083106000865
:10001000370600083D0600084306000800000000FF
:100020000000000000000000000000004906000879
:100030005706000800000000650600087306000867
:10004000B9800008B9800008B9800008B9800008AC
:10005000B9800008B9800008B9800008B98000089C
:10006000B9800008B9800008B9800008B98000088C
:10007000B9800008B9800008B9800008B98000087C
:10008000B9800008B9800008B980000800000000AD
:10009000000000000000000000000000B98000081F
:1000A000B9800008B9800008B9800008B98000084C
:1000B000B9800008B9800008B9800008B98000083C
:1000C000B9800008B9800008B9800008B98000082C
:1000D000B9800008B9800008B9800008000000005D
:1000E000B9800008B9800008B9800008000000004D
:1000F000000000000000000000000000B9800008BF
:1001000000000000B9800008B9800008B98000082C
:1001100000000000000000000000000000000000DF
:10012000B9800008B9800008B9800008B9800008CB
:10013000B98000080000000000000000000000007E
:100140000000000000000000000000008106000820
:10015000B9800008B9800008B9800008B98000089B
:10016000B9800008B980000800000000000000000D
:10017000000000000000000000000000000000007F
:1001800000000000B980000800000000000000002E
:08019000B9800008B9800008E5
:1001980053B94AB9002908BF00281CBF4FF0FF31E6
:1001A8004FF0FF3000F00CB8ADF1080C6DE904CE4B
:1001B80007F0BAFFDDF804E0DDE9022304B0704778
:1001C800704700BF0348044B834202D0034B03B17E
:1001D80018477047FC000020FC00002000000000C9
:1001E8000548064B1B1AD90F01EBA301491002D091
:1001F800034B03B118477047FC000020FC000020A7
:100208000000000010B5064C237843B9FFF7DAFF69
:10021800044B13B10448AFF300800123237010BDD1
:10022800FC00002000000000F883000808B5054B1A
:100238001BB105490548AFF30080BDE80840FFF74A
:10024800CFBF00BF0000000000010020F8830008B5
:1002580080B582B000AF214B40F6FF721A60204B88
:1002680064221A6001F0D6FF00F044F800F074F937
:1002780000F0A8F800F0F8F802F0A8FB00211948EF
:1002880000F074FB184802F0B1F8174802F062F960
:100298000346164A1360154B1B68114A126803FB84
:1002A80002F20E4B1B68B2FBF3F3114A1360104BBA
:1002B8001B687B600D4B1B68094A126802FB03F33D
:1002C800642203FB02F2054B1B68B2FBF3F27B6866
:1002D800642101FB03F3D31A3B60D3E7B00200208B
:1002E800B80200206001002018010020A8020020A8
:1002F800C002002080B594B000AF07F1200330227F
:100308000021184607F0D5FE07F10C0300221A60F9
:100318005A609A60DA601A610023BB60274B1B6C35
:10032800264A43F080531364244B1B6C03F080531C
:10033800BB60BB6800237B60214B1B68204A43F4E9
:10034800404313601E4B1B6803F440437B607B688B
:1003580001233B624FF480337B620223BB634FF47B
:100368008003FB6319233B64C0237B640223BB64C3
:100378000423FB6407F12003184601F06BF80346D9
:10038800002B01D000F048F90F23FB6002233B61EA
:1003980000237B614FF48053BB610023FB6107F1AD
:1003A8000C030321184601F0CDFA0346002B01D0B7
:1003B80000F032F900BF5037BD4680BD003802401A
:1003C8000070004080B584B000AF3B4600221A6040
:1003D8005A609A60DA60214B214A1A601F4B4FF429
:1003E80080325A601D4B00229A601C4B00221A6111
:1003F8001A4B00221A76194B002283F82020174B3B
:100408000022DA62154B174A9A62144B0022DA600E
:10041800124B0122DA61114B002283F830200F4B76
:1004280001225A610D4801F09DFF0346002B01D0BF
:1004380000F0F2F800233B6001237B600023BB60DF
:100448003B461946054802F093F80346002B01D0B5
:1004580000F0E2F800BF1037BD4680BD180100204B
:10046800002001400100000F80B58EB000AF07F1F9
:10047800280300221A605A609A60DA6007F12003A4
:1004880000221A605A603B1D00221A605A609A6066
:10049800DA601A615A619A612D4B2E4A1A602C4B08
:1004A80001225A602A4B00229A60294B42F6E062E8
:1004B800DA60274B00221A61254B00229A612448F2
:1004C80000F0ACF90346002B01D000F0A5F84FF47A
:1004D8008053BB6207F1280319461D4800F0B8FB9A
:1004E8000346002B01D000F097F8194800F0E5F911
:1004F8000346002B01D000F08FF800233B62002355
:100508007B6207F120031946114800F035FF0346C6
:10051800002B01D000F080F860237B6041F27073FB
:10052800BB600023FB6000237B613B1D0022194652
:10053800074800F0CBFA0346002B01D000F06CF816
:10054800034800F031F900BF3837BD4680BD00BF11
:10055800600100200004004080B58AB000AF07F1B8
:10056800140300221A605A609A60DA601A61002344
:100578003B61274B1B6B264A43F004031363244B50
:100588001B6B03F004033B613B690023FB60204BBA
:100598001B6B1F4A43F0800313631D4B1B6B03F057
:1005A8008003FB60FB680023BB60194B1B6B184A78
:1005B80043F001031363164B1B6B03F00103BB608D
:1005C800BB6800237B60124B1B6B114A43F002038C
:1005D80013630F4B1B6B03F002037B607B680022E5
:1005E8004FF400510B4801F0E9FC4FF400537B61D4
:1005F8000123BB610023FB6100233B6207F1140365
:100608001946044801F056FB00BF2837BD4680BD97
:10061800003802400008024080B400AF72B600BF44
:10062800FEE780B400AFFEE780B400AFFEE780B419
:1006380000AFFEE780B400AFFEE780B400AFFEE78E
:1006480080B400AF00BFBD465DF8047B704780B43E
:1006580000AF00BFBD465DF8047B704780B400AFB3
:1006680000BFBD465DF8047B704780B500AF01F060
:1006780023FE00BF80BD000080B500AF024802F035
:10068800F1FF00BF80BD00BFA817002080B483B071
:1006980000AF00237B60104B5B6C0F4A43F4804330
:1006A80053640D4B5B6C03F480437B607B680023D1
:1006B8003B60094B1B6C084A43F080531364064B9C
:1006C8001B6C03F080533B603B6800BF0C37BD4692
:1006D8005DF8047B704700BF0038024080B58AB0DF
:1006E80000AF786007F1140300221A605A609A601C
:1006F800DA601A617B681B68174A934227D1002386
:100708003B61164B5B6C154A43F480735364134B7F
:100718005B6C03F480733B613B690023FB600F4B08
:100728001B6B0E4A43F0010313630C4B1B6B03F066
:100738000103FB60FB6801237B610323BB6100238A
:10074800FB6107F114031946054801F0B3FA00BF2D
:100758002837BD4680BD00BF002001400038024058
:100768000000024080B485B000AF78607B681B68E9
:100778000B4A93420DD10023FB600A4B1B6C094ABC
:1007880043F002031364074B1B6C03F00203FB6086
:10079800FB6800BF1437BD465DF8047B704700BF97
:1007A800000400400038024080B588B000AF78608F
:1007B80007F10C0300221A605A609A60DA601A6125
:1007C8007B681B68124A93421DD10023BB60114B02
:1007D8001B6B104A43F0020313630E4B1B6B03F0B1
:1007E8000203BB60BB681023FB6002233B6100234C
:1007F8007B610023BB610223FB6107F10C031946EF
:10080800054801F057FA00BF2037BD4680BD00BF3C
:1008180000040040003802400004024080B582B065
:1008280000AF78607B68002B01D1012341E07B6831
:1008380093F83D30DBB2002B06D17B68002283F8A9
:100848003C207868FFF78EFF7B68022283F83D2002
:100858007B681A687B6804331946104600F0C0FAB2
:100868007B68012283F846207B68012283F83E20BA
:100878007B68012283F83F207B68012283F84020AF
:100888007B68012283F841207B68012283F842209B
:100898007B68012283F843207B68012283F8442087
:1008A8007B68012283F845207B68012283F83D207C
:1008B800002318460837BD4680BD80B582B000AF1A
:1008C80078607B68002B01D1012341E07B6893F8B5
:1008D8003D30DBB2002B06D17B68002283F83C2038
:1008E800786800F039F87B68022283F83D207B683D
:1008F8001A687B6804331946104600F071FA7B6861
:10090800012283F846207B68012283F83E207B6819
:10091800012283F83F207B68012283F840207B680E
:10092800012283F841207B68012283F842207B68FA
:10093800012283F843207B68012283F844207B68E6
:10094800012283F845207B68012283F83D2000239B
:1009580018460837BD4680BD80B483B000AF7860C4
:1009680000BF0C37BD465DF8047B704780B584B086
:1009780000AF786039603B68002B09D17B6893F839
:100988003E30DBB2012B14BF01230023DBB222E08F
:100998003B68042B09D17B6893F83F30DBB2012B0D
:1009A80014BF01230023DBB215E03B68082B09D1F3
:1009B8007B6893F84030DBB2012B14BF012300237E
:1009C800DBB208E07B6893F84130DBB2012B14BF3F
:1009D80001230023DBB2002B01D0012368E03B6830
:1009E800002B04D17B68022283F83E2013E03B6889
:1009F800042B04D17B68022283F83F200BE03B687C
:100A0800082B04D17B68022283F8402003E07B682E
:100A1800022283F841207B681B6801223968184646
:100A280000F084FC7B681B68234A934207D17B68EB
:100A38001B685A6C7B681B6842F400425A647B68E6
:100A48001B681D4A934218D07B681B68B3F1804F1E
:100A580013D07B681B68194A93420ED07B681B68C9
:100A6800174A934209D07B681B68164A934204D000
:100A78007B681B68144A934211D17B681B689B688A
:100A880003F00703FB60FB68062B10D07B681B682C
:100A98001A687B681B6842F001021A6007E07B68ED
:100AA8001B681A687B681B6842F001021A60002301
:100AB80018461037BD4680BD0000014000040040C4
:100AC80000080040000C00400040014080B586B09E
:100AD80000AFF860B9607A600023FB75FB6893F893
:100AE8003C30012B01D10223AEE0FB68012283F8E0
:100AF8003C207B680C2B00F29F8001A252F823F067
:100B08003D0B0008410C0008410C0008410C00088E
:100B18007D0B0008410C0008410C0008410C00083E
:100B2800BF0B0008410C0008410C0008410C0008EC
:100B3800FF0B0008FB681B68B968184600F0D0F97D
:100B4800FB681B689A69FB681B6842F008029A6197
:100B5800FB681B689A69FB681B6822F004029A61AB
:100B6800FB681B689969BB681A69FB681B680A43BC
:100B78009A6164E0FB681B68B968184600F016FAC9
:100B8800FB681B689A69FB681B6842F400629A61FB
:100B9800FB681B689A69FB681B6822F480629A618B
:100BA800FB681B689969BB681B691A02FB681B68AC
:100BB8000A439A6143E0FB681B68B968184600F06D
:100BC80061FAFB681B68DA69FB681B6842F0080277
:100BD800DA61FB681B68DA69FB681B6822F00402AB
:100BE800DA61FB681B68D969BB681A69FB681B680E
:100BF8000A43DA6123E0FB681B68B968184600F00D
:100C0800ABFAFB681B68DA69FB681B6842F4006290
:100C1800DA61FB681B68DA69FB681B6822F480628A
:100C2800DA61FB681B68D969BB681B691A02FB6833
:100C38001B680A43DA6102E00123FB7500BFFB6809
:100C4800002283F83C20FB7D18461837BD4680BD3E
:100C580080B584B000AF786039600023FB737B688F
:100C680093F83C30012B01D10223B4E07B680122C8
:100C780083F83C207B68022283F83D207B681B6850
:100C88009B68BB60BB6823F07703BB60BB6823F439
:100C98007F43BB607B681B68BA689A603B681B68C7
:100CA800B3F5005F3ED0B3F5005F00F28780B3F57F
:100CB800805F00F08680B3F5805F7FD8702B1AD0F4
:100CC800702B7BD8602B50D0602B77D8502B3CD022
:100CD800502B73D8402B58D0402B6FD8302B64D072
:100CE800302B6BD8202B60D0202B67D8002B5CD002
:100CF800102B5AD062E07B6818683B6899683B689B
:100D08005A683B68DB6800F0F1FA7B681B689B68EF
:100D1800BB60BB6843F07703BB607B681B68BA683D
:100D28009A604FE07B6818683B6899683B685A6826
:100D38003B68DB6800F0DAFA7B681B689A687B68B6
:100D48001B6842F480429A603CE07B6818683B6804
:100D580059683B68DB681A4600F04EFA7B681B68E6
:100D68005021184600F0A7FA2CE07B6818683B6809
:100D780059683B68DB681A4600F06DFA7B681B68A7
:100D88006021184600F097FA1CE07B6818683B68F9
:100D980059683B68DB681A4600F02EFA7B681B68C6
:100DA8004021184600F087FA0CE07B681A683B6817
:100DB8001B681946104600F07EFA03E00123FB7316
:100DC80000E000BF7B68012283F83D207B68002299
:100DD80083F83C20FB7B18461037BD4680BD0000D9
:100DE80080B485B000AF786039607B681B68FB60B1
:100DF8007B68344A93420FD07B68B3F1804F0BD0A5
:100E08007B68314A934207D07B68304A934203D0CB
:100E18007B682F4A934208D1FB6823F07003FB607C
:100E28003B685B68FA681343FB607B68254A93421A
:100E38001BD07B68B3F1804F17D07B68224A93425E
:100E480013D07B68214A93420FD07B68204A934293
:100E58000BD07B681F4A934207D07B681E4A934297
:100E680003D07B681D4A934208D1FB6823F4407382
:100E7800FB603B68DB68FA681343FB60FB6823F0A0
:100E880080023B685B691343FB607B68FA681A6001
:100E98003B689A687B68DA623B681A687B689A6282
:100EA8007B68084A934203D13B681A697B681A63D6
:100EB8007B6801225A6100BF1437BD465DF8047B88
:100EC800704700BF000001400004004000080040D7
:100ED800000C00400040014000440140004801402F
:100EE80080B487B000AF786039607B681B6A23F0F4
:100EF80001027B681A627B681B6A7B617B685B689E
:100F08003B617B689B69FB60FB6823F07003FB60B7
:100F1800FB6823F00303FB603B681B68FA68134314
:100F2800FB607B6923F002037B613B689B687A69FD
:100F380013437B617B681C4A93420CD17B6923F085
:100F480008037B613B68DB687A6913437B617B69D3
:100F580023F004037B617B68134A934211D13B69F8
:100F680023F480733B613B6923F400733B613B6866
:100F78005B693A6913433B613B689B693A69134370
:100F88003B617B683A695A607B68FA689A613B689A
:100F98005A687B685A637B687A691A6200BF1C3793
:100FA800BD465DF8047B70470000014080B487B0FF
:100FB80000AF786039607B681B6A23F010027B6899
:100FC8001A627B681B6A7B617B685B683B617B6834
:100FD8009B69FB60FB6823F4E043FB60FB6823F438
:100FE8004073FB603B681B681B02FA681343FB6095
:100FF8007B6923F020037B613B689B681B017A694E
:1010080013437B617B681E4A93420DD17B6923F0B1
:1010180080037B613B68DB681B017A6913437B6152
:101028007B6923F040037B617B68154A934213D1A7
:101038003B6923F480633B613B6923F400633B61B4
:101048003B685B699B003A6913433B613B689B695A
:101058009B003A6913433B617B683A695A607B6835
:10106800FA689A613B685A687B689A637B687A6910
:101078001A6200BF1C37BD465DF8047B704700BF8D
:101088000000014080B487B000AF786039607B68A9
:101098001B6A23F480727B681A627B681B6A7B6117
:1010A8007B685B683B617B68DB69FB60FB6823F0FE
:1010B8007003FB60FB6823F00303FB603B681B685D
:1010C800FA681343FB607B6923F400737B613B6818
:1010D8009B681B027A6913437B617B681D4A9342B4
:1010E8000DD17B6923F400637B613B68DB681B02DD
:1010F8007A6913437B617B6923F480637B617B6836
:10110800144A934213D13B6923F480533B613B69F2
:1011180023F400533B613B685B691B013A69134345
:101128003B613B689B691B013A6913433B617B68E0
:101138003A695A607B68FA68DA613B685A687B6882
:10114800DA637B687A691A6200BF1C37BD465DF8AE
:10115800047B70470000014080B487B000AF78601E
:1011680039607B681B6A23F480527B681A627B684B
:101178001B6A3B617B685B687B617B68DB69FB6042
:10118800FB6823F4E043FB60FB6823F44073FB60D7
:101198003B681B681B02FA681343FB603B6923F436
:1011A80000533B613B689B681B033A6913433B61EF
:1011B8007B68104A934209D17B6923F480437B61A1
:1011C8003B685B699B017A6913437B617B687A6939
:1011D8005A607B68FA68DA613B685A687B681A6407
:1011E8007B683A691A6200BF1C37BD465DF8047B0C
:1011F800704700BF0000014080B487B000AFF860BE
:10120800B9607A60FB681B6A7B61FB681B6A23F024
:101218000102FB681A62FB689B693B613B6923F02A
:10122800F0033B617B681B013A6913433B617B69AF
:1012380023F00A037B617A69BB6813437B61FB680F
:101248003A699A61FB687A691A6200BF1C37BD4621
:101258005DF8047B704780B487B000AFF860B96070
:101268007A60FB681B6A23F01002FB681A62FB684D
:101278009B697B61FB681B6A3B617B6923F4704354
:101288007B617B681B037A6913437B613B6923F0AD
:10129800A0033B61BB681B013A6913433B61FB68D0
:1012A8007A699A61FB683A691A6200BF1C37BD46C1
:1012B8005DF8047B704780B485B000AF7860396012
:1012C8007B689B68FB60FB6823F07003FB603A68EF
:1012D800FB68134343F00703FB607B68FA689A6076
:1012E80000BF1437BD465DF8047B704780B487B0F3
:1012F80000AFF860B9607A603B60FB689B687B610F
:101308007B6923F47F437B613B681A027B681A433D
:10131800BB6813437A6913437B61FB687A699A60F7
:1013280000BF1C37BD465DF8047B704780B487B0AA
:1013380000AFF860B9607A60BB6803F01F03012250
:1013480002FA03F37B61FB681A6A7B69DB431A4084
:10135800FB681A62FB681A6ABB6803F01F037968A6
:1013680001FA03F31A43FB681A6200BF1C37BD4633
:101378005DF8047B7047000080B485B000AF7860EA
:1013880039607B6893F83C30012B01D1022350E08F
:101398007B68012283F83C207B68022283F83D2089
:1013A8007B681B685B68FB607B681B689B68BB602D
:1013B800FB6823F07003FB603B681B68FA68134303
:1013C800FB607B681B68FA685A607B681B681C4A6C
:1013D800934218D07B681B68B3F1804F13D07B68A9
:1013E8001B68184A93420ED07B681B68164A9342C2
:1013F80009D07B681B68154A934204D07B681B6838
:10140800134A93420CD1BB6823F08003BB603B684E
:101418005B68BA681343BB607B681B68BA689A60EC
:101428007B68012283F83D207B68002283F83C20FA
:10143800002318461437BD465DF8047B704700BF8B
:10144800000001400004004000080040000C00407B
:101458000040014080B586B000AF78607B68002B03
:1014680001D1012367E27B681B6803F00103002BAD
:1014780075D0884B9B6803F00C03042B0CD0854B6C
:101488009B6803F00C03082B12D1824B5B6803F4B2
:101498008003B3F5800F0BD17E4B1B6803F4003338
:1014A800002B5BD07B685B68002B57D1012342E29D
:1014B8007B685B68B3F5803F06D1764B1B68754A3D
:1014C80043F4803313601DE07B685B68B3F5A02F9D
:1014D8000CD1704B1B686F4A43F4802313606D4B2B
:1014E8001B686C4A43F4803313600BE0694B1B683C
:1014F800684A23F480331360664B1B68654A23F4FB
:10150800802313607B685B68002B13D000F0E8FE33
:10151800386108E000F0E4FE02463B69D31A642B08
:1015280001D9032307E25B4B1B6803F40033002B4C
:10153800F0D014E000F0D4FE386108E000F0D0FEEE
:1015480002463B69D31A642B01D90323F3E1514BBB
:101558001B6803F40033002BF0D100E000BF7B6868
:101568001B6803F00203002B63D04A4B9B6803F00F
:101578000C03002B0BD0474B9B6803F00C03082B84
:101588001CD1444B5B6803F48003002B16D1414BFC
:101598001B6803F00203002B05D07B68DB68012B76
:1015A80001D00123C7E13B4B1B6823F0F8027B689D
:1015B8001B69DB00374913430B603AE07B68DB6843
:1015C800002B20D0344B01221A6000F089FE3861CC
:1015D80008E000F085FE02463B69D31A022B01D9C8
:1015E8000323A8E12B4B1B6803F00203002BF0D068
:1015F800284B1B6823F0F8027B681B69DB00254930
:1016080013430B6015E0244B00221A6000F068FEBB
:10161800386108E000F064FE02463B69D31A022BE9
:1016280001D9032387E11B4B1B6803F00203002B3E
:10163800F0D17B681B6803F00803002B36D07B6869
:101648005B69002B16D0154B01221A6000F048FE8A
:10165800386108E000F044FE02463B69D31A022BC9
:1016680001D9032367E10B4B5B6F03F00203002BE7
:10167800F0D01BE0094B00221A6000F031FE3861FF
:101688000EE000F02DFE02463B69D31A022B07D963
:10169800032350E10038024000004742800E4742D1
:1016A800884B5B6F03F00203002BEAD17B681B6851
:1016B80003F00403002B00F097800023FB75814B97
:1016C8001B6C03F08053002B0FD10023BB607D4BB4
:1016D8001B6C7C4A43F0805313647A4B1B6C03F0F9
:1016E8008053BB60BB680123FB75774B1B6803F411
:1016F8008073002B18D1744B1B68734A43F48073B2
:10170800136000F0EDFD386108E000F0E9FD0246E5
:101718003B69D31A022B01D903230CE16A4B1B68DE
:1017280003F48073002BF0D07B689B68012B06D1F3
:10173800644B1B6F634A43F0010313671CE07B682B
:101748009B68052B0CD15F4B1B6F5E4A43F004036B
:1017580013675C4B1B6F5B4A43F0010313670BE095
:10176800584B1B6F574A23F001031367554B1B6FE8
:10177800544A23F0040313677B689B68002B15D039
:1017880000F0AEFD38610AE000F0AAFD02463B69B0
:10179800D31A41F28832934201D90323CBE0494B53
:1017A8001B6F03F00203002BEED014E000F098FD4D
:1017B80038610AE000F094FD02463B69D31A41F211
:1017C8008832934201D90323B5E03E4B1B6F03F0E7
:1017D8000203002BEED1FB7D012B05D1394B1B6C8D
:1017E800384A23F0805313647B689B69002B00F010
:1017F800A180344B9B6803F00C03082B5CD07B68FA
:101808009B69022B41D1314B00221A6000F068FD20
:10181800386108E000F064FD02463B69D31A022BE8
:1018280001D9032387E0274B1B6803F00073002BC3
:10183800F0D17B68DA697B681B6A1A437B685B6A4C
:101848009B011A437B689B6A5B08013B1B041A4394
:101858007B68DB6A1B061B4913434B601B4B012249
:101868001A6000F03DFD386108E000F039FD0246DD
:101878003B69D31A022B01D903235CE0114B1B6887
:1018880003F00073002BF0D054E0104B00221A60D4
:1018980000F026FD386108E000F022FD02463B69B1
:1018A800D31A022B01D9032345E0064B1B6803F02A
:1018B8000073002BF0D13DE07B689B69012B07D1B9
:1018C800012338E0003802400070004060004742C1
:1018D8001B4B5B68FB607B689B69012B28D0FB680E
:1018E80003F480027B68DB699A4221D1FB6803F02C
:1018F8003F027B681B6A9A421AD1FA6847F6C0739E
:1019080013407A68526A9201934211D1FB6803F43A
:1019180040327B689B6A5B08013B1B049A4207D1F3
:10192800FB6803F070627B68DB6A1B069A4201D091
:10193800012300E0002318461837BD4680BD00BFCC
:101948000038024080B584B000AF786039607B68A9
:10195800002B01D10123CCE0684B1B6803F007037F
:101968003A689A420CD9654B3A68D2B21A70634BFE
:101978001B6803F007033A689A4201D00123B8E0D4
:101988007B681B6803F00203002B20D07B681B6870
:1019980003F00403002B05D0594B9B68584A43F4C5
:1019A800E05393607B681B6803F00803002B05D0A5
:1019B800534B9B68524A43F460439360504B9B6877
:1019C80023F0F0027B689B684D4913438B607B686A
:1019D8001B6803F00103002B44D07B685B68012B74
:1019E80007D1474B1B6803F40033002B19D101239F
:1019F8007FE07B685B68022B03D07B685B68032B06
:101A080007D13F4B1B6803F00073002B09D101235A
:101A18006FE03B4B1B6803F00203002B01D101234D
:101A280067E0374B9B6823F003027B685B683449A7
:101A380013438B6000F054FCF8600AE000F050FC9F
:101A48000246FB68D31A41F28832934201D9032334
:101A58004FE02B4B9B6803F00C027B685B689B0094
:101A68009A42EBD1254B1B6803F007033A689A4268
:101A78000CD2224B3A68D2B21A70204B1B6803F082
:101A880007033A689A4201D0012332E07B681B6859
:101A980003F00403002B08D0194B9B6823F4E05291
:101AA8007B68DB68164913438B607B681B6803F00F
:101AB8000803002B09D0124B9B6823F460427B6813
:101AC8001B69DB000E4913438B6000F021F80246C6
:101AD8000B4B9B681B0903F00F030A49CB5C22FAE6
:101AE80003F3094A1360094B1B68184600F0B4FB5E
:101AF800002318461037BD4680BD00BF003C024099
:101B08000038024058840008080000200000002027
:101B18002DE9B04F90B000AF00237B630023FB6337
:101B280000233B630023BB63594B9B6803F00C0302
:101B3800082B0DD0082B00F2A180002B02D0042B1B
:101B480003D09BE0534BBB639BE0534BBB6398E0D4
:101B58004F4B5B6803F03F037B634D4B5B6803F4BB
:101B68008003002B28D04A4B5B689B0900223B620C
:101B78007A623B6AC3F308000021474B03FB01F27A
:101B8800002300FB03F31344434AA0FB0212FA624A
:101B98000A46BA62FA6A1344FB627B6B0022BB6195
:101BA800FA61D7E90623D7E90A01FEF7F1FA0246F6
:101BB8000B461346FB6353E0354B5B689B090022D9
:101BC8003B617A613B69C3F3080A4FF0000B524648
:101BD8005B464FF000004FF00001590141EAD26125
:101BE800500102460B46B2EB0A0863EB0B094FF0B3
:101BF80000024FF000034FEA891343EA98634FEA63
:101C08008812B2EB080463EB09054FF000024FF0AD
:101C18000003EB0043EA5473E20014461D4614EB3C
:101C28000A033B6045EB0B037B604FF000024FF06B
:101C38000003D7E9004529468B02214643EA915320
:101C480021468A02104619467B6B0022BB60FA6067
:101C5800D7E90223FEF79CFA02460B461346FB63BC
:101C68000B4B5B681B0C03F0030301335B003B6306
:101C7800FA6B3B6BB2FBF3F3BB6302E0054BBB6350
:101C880000BFBB6B18464037BD46BDE8B08F00BFEC
:101C9800003802400024F40040787D0180B400AF91
:101CA800034B1B681846BD465DF8047B704700BFB0
:101CB8000800002080B489B000AF78603960002344
:101CC8007B6100233B610023BB610023FB6159E179
:101CD8000122FB6902FA03F37B613B681B687A699E
:101CE80013403B613A697B699A4240F048813B68FE
:101CF8005B6803F00303012B05D03B685B6803F0C6
:101D08000303022B30D17B689B68BB61FB695B00D6
:101D1800032202FA03F3DB43BA691340BB613B6851
:101D2800DA68FB695B0002FA03F3BA691343BB6123
:101D38007B68BA699A607B685B68BB610122FB6952
:101D480002FA03F3DB43BA691340BB613B685B6883
:101D58001B0903F00102FB6902FA03F3BA69134392
:101D6800BB617B68BA695A603B685B6803F0030330
:101D7800032B17D07B68DB68BB61FB695B00032220
:101D880002FA03F3DB43BA691340BB613B689A6804
:101D9800FB695B0002FA03F3BA691343BB617B6812
:101DA800BA69DA603B685B6803F00303022B23D14E
:101DB800FB69DA087B68083253F82230BB61FB699B
:101DC80003F007039B000F2202FA03F3DB43BA690F
:101DD8001340BB613B681A69FB6903F007039B006A
:101DE80002FA03F3BA691343BB61FB69DA087B683B
:101DF8000832B96943F822107B681B68BB61FB692C
:101E08005B00032202FA03F3DB43BA691340BB61A8
:101E18003B685B6803F00302FB695B0002FA03F3AB
:101E2800BA691343BB617B68BA691A603B685B682F
:101E380003F44033002B00F0A2800023FB60574BD3
:101E48005B6C564A43F480435364544B5B6C03F415
:101E58008043FB60FB68524AFB699B08023352F8D7
:101E68002330BB61FB6903F003039B000F2202FAD6
:101E780003F3DB43BA691340BB617B68494A934269
:101E880019D07B68484A934213D07B68474A9342EB
:101E98000DD07B68464A934207D07B68454A9342F7
:101EA80001D1042308E0072306E0032304E002230A
:101EB80002E0012300E00023FA6902F00302920025
:101EC8009340BA691343BB613549FB699B080233E8
:101ED800BA6941F82320384B9B68BB613B69DB43F7
:101EE800BA691340BB613B685B6803F48013002B3D
:101EF80003D0BA693B691343BB612F4ABB6993603E
:101F08002D4BDB68BB613B69DB43BA691340BB619E
:101F18003B685B6803F40013002B03D0BA693B6984
:101F28001343BB61244ABB69D360234B5B68BB6125
:101F38003B69DB43BA691340BB613B685B6803F4E8
:101F48000033002B03D0BA693B691343BB611A4ABB
:101F5800BB695360184B1B68BB613B69DB43BA69BB
:101F68001340BB613B685B6803F48033002B03D0EC
:101F7800BA693B691343BB610F4ABB691360FB69CC
:101F88000133FB61FB690F2B7FF6A2AE00BF00BFD8
:101F98002437BD465DF8047B704700BF0038024017
:101FA80000380140000002400004024000080240DE
:101FB800000C024000100240003C014080B483B095
:101FC80000AF78600B467B8013467B707B78002BD4
:101FD80003D07A887B689A6103E07B881A047B685F
:101FE8009A6100BF0C37BD465DF8047B704700005E
:101FF80080B485B000AF78607B6803F00703FB60AE
:102008000C4BDB68BB60BA684FF6FF031340BB603C
:10201800FB681A02BB68134343F0BF6343F4003301
:10202800BB60044ABB68D36000BF1437BD465DF887
:10203800047B704700ED00E080B400AF044BDB6820
:102048001B0A03F007031846BD465DF8047B70477A
:1020580000ED00E080B483B000AF0346FB7197F950
:102068000730002B0BDBFB7903F01F02074997F9B8
:1020780007305B09012000FA02F241F8232000BF73
:102088000C37BD465DF8047B704700BF00E100E0F7
:1020980080B483B000AF03463960FB7197F907300D
:1020A800002B0ADB3B68DAB20C4997F907301201BA
:1020B800D2B20B4483F800230AE03B68DAB208493D
:1020C800FB7903F00F03043B1201D2B20B441A76DA
:1020D80000BF0C37BD465DF8047B704700E100E0A7
:1020E80000ED00E080B489B000AFF860B9607A60B4
:1020F800FB6803F00703FB61FB69C3F10703042BCB
:1021080028BF0423BB61FB690433062B02D9FB6992
:10211800033B00E000237B614FF0FF32BB6902FA0A
:1021280003F3DA43BB681A407B699A404FF0FF31EA
:102138007B6901FA03F3D9437B680B4013431846C4
:102148002437BD465DF8047B7047000080B582B037
:1021580000AF78607B68013BB3F1807F01D3012336
:102168000FE00A4A7B68013B53600F214FF0FF30B4
:10217800FFF78EFF054B00229A60044B07221A6076
:10218800002318460837BD4680BD00BF10E000E0B8
:1021980080B582B000AF78607868FFF729FF00BF8C
:1021A8000837BD4680BD80B586B000AF0346B9602C
:1021B8007A60FB7300237B61FFF73EFF78617A68E2
:1021C800B9687869FFF78EFF024697F90F30114614
:1021D8001846FFF75DFF00BF1837BD4680BD80B5C4
:1021E80082B000AF0346FB7197F907301846FFF736
:1021F80031FF00BF0837BD4680BD80B582B000AF53
:1022080078607868FFF7A2FF034618460837BD468E
:1022180080BD000080B500AF0E4B1B680D4A43F42B
:10222800007313600B4B1B680A4A43F48063136006
:10223800084B1B68074A43F4807313600320FFF7B9
:10224800A7FF0F2000F008F8FEF720FA0023184631
:1022580080BD00BF003C024080B582B000AF78600E
:10226800124B1A68124B1B7819464FF47A73B3FB5A
:10227800F1F3B2FBF3F31846FFF7BFFF0346002B59
:1022880001D001230EE07B680F2B0AD80022796861
:102298004FF0FF30FFF787FF064A7B681360002383
:1022A80000E0012318460837BD4680BD080000201D
:1022B800040000200000002080B400AF064B1B780B
:1022C8001A46064B1B681344044A136000BFBD46F8
:1022D8005DF8047B704700BF04000020C80200209E
:1022E80080B400AF034B1B681846BD465DF8047BFD
:1022F800704700BFC802002080B584B000AF786086
:10230800FFF7EEFFB8607B68FB60FB68B3F1FF3F47
:1023180005D00A4B1B781A46FB681344FB6000BFC4
:10232800FFF7DEFF0246BB68D31AFA689A42F7D86D
:1023380000BF00BF1037BD4680BD00BF04000020AD
:1023480080B400AF064BD3F88830054A43F47003D5
:10235800C2F8883000BFBD465DF8047B704700BFF7
:1023680000ED00E080B584B000AF78600023FB7317
:102378007B68002B01D1012333E07B681B6C002BA9
:1023880009D17868FEF7AAF97B6800225A647B684D
:10239800002283F83C207B681B6C03F01003002BA1
:1023A80018D17B681B6C23F4885323F0020343F095
:1023B80002027B681A64786800F00CFA7B680022D5
:1023C8005A647B681B6C23F0030343F001027B68AB
:1023D8001A6401E00123FB737B68002283F83C2028
:1023E800FB7B18461037BD4680BD000080B485B021
:1023F80000AF78600023BB607B6893F83C30012B0A
:1024080001D1022397E07B68012283F83C207B6896
:102418001B689B6803F00103012B18D07B681B68BD
:102428009A687B681B6842F001029A60454B1B68FA
:10243800454AA2FB03239A0C13465B001344BB6076
:1024480002E0BB68013BBB60BB68002BF9D17B682D
:102458001B689B6803F00103012B5FD17B681B6C31
:1024680023F4E06323F0010343F480727B681A6469
:102478007B681B685B6803F48063002B07D07B686C
:102488001B6C23F4405343F480527B681A647B68C6
:102498001B6C03F48053B3F5805F06D17B685B6CDB
:1024A80023F006027B685A6402E07B6800225A64C3
:1024B8007B68002283F83C20244BFB607B681B6808
:1024C8006FF022021A60FB685B6803F01F03002BA1
:1024D8000FD17B681B689B6803F04053002B29D100
:1024E8007B681B689A687B681B6842F080429A6028
:1024F80020E07B681B68164A93421BD17B681B68E7
:102508009B6803F04053002B14D17B681B689A68C2
:102518007B681B6842F080429A600BE07B681B6C0A
:1025280043F010027B681A647B685B6C43F001021D
:102538007B685A64002318461437BD465DF8047B4F
:10254800704700BF0800002083DE1B4300230140C2
:102558000020014080B483B000AF78607B681B68BE
:10256800DB6C18460C37BD465DF8047B70470000ED
:1025780080B485B000AF786039600023BB607B68A9
:1025880093F83C30012B01D1022313E17B6801222F
:1025980083F83C203B681B68092B25D97B681B689E
:1025A800D9683B681B689BB21A4613465B00134404
:1025B8001E3B072202FA03F3DA437B681B680A40D2
:1025C800DA607B681B68D9683B689A683B681B6857
:1025D8009BB2184603465B0003441E3B9A407B6847
:1025E8001B680A43DA6022E07B681B6819693B684C
:1025F8001B689BB21A4613465B001344072202FA73
:1026080003F3DA437B681B680A401A617B681B681E
:1026180019693B689A683B681B689BB21846034671
:102628005B0003449A407B681B680A431A613B6855
:102638005B68062B24D87B681B68596B3B685A6813
:1026480013469B001344053B1F2202FA03F3DA43A7
:102658007B681B680A405A637B681B68596B3B6838
:102668001B689BB218463B685A6813469B00134484
:10267800053B00FA03F27B681B680A435A634CE087
:102688003B685B680C2B24D87B681B68196B3B681C
:102698005A6813469B001344233B1F2202FA03F394
:1026A800DA437B681B680A401A637B681B68196BEE
:1026B8003B681B689BB218463B685A6813469B00E8
:1026C8001344233B00FA03F27B681B680A431A632E
:1026D80023E07B681B68D96A3B685A6813469B00ED
:1026E8001344413B1F2202FA03F3DA437B681B6859
:1026F8000A40DA627B681B68D96A3B681B689BB230
:1027080018463B685A6813469B001344413B00FA3D
:1027180003F27B681B680A43DA62294BFB607B681B
:102728001B68284A93420FD13B681B68122B0BD1B8
:10273800FB685B6823F40002FB685A60FB685B680F
:1027480043F48002FB685A607B681B681D4A934209
:102758002BD13B681B681C4A934203D03B681B681B
:10276800112B22D1FB685B6823F48002FB685A6056
:10277800FB685B6843F40002FB685A603B681B68AF
:10278800114A934211D1114B1B68114AA2FB032332
:102798009A0C13469B0013445B00BB6002E0BB68C5
:1027A800013BBB60BB68002BF9D17B68002283F832
:1027B8003C20002318461437BD465DF8047B70475B
:1027C80000230140002001401200001008000020F2
:1027D80083DE1B4380B485B000AF7860794BFB6023
:1027E800FB685B6823F44032FB685A60FB685A68F0
:1027F8007B685B681A43FB685A607B681B685A6889
:102808007B681B6822F480725A607B681B68596871
:102818007B681B691A027B681B680A435A607B68DD
:102828001B685A687B681B6822F040725A607B6894
:102838001B6859687B689A687B681B680A435A60FA
:102848007B681B689A687B681B6822F400629A6040
:102858007B681B6899687B68DA687B681B680A4331
:102868009A607B689B6A584A934222D07B681B68AF
:102878009A687B681B6822F070629A607B681B68A4
:1028880099687B689A6A7B681B680A439A607B68C8
:102898001B689A687B681B6822F040529A607B68C4
:1028A8001B6899687B68DA6A7B681B680A439A60C8
:1028B8000FE07B681B689A687B681B6822F070626F
:1028C8009A607B681B689A687B681B6822F0405294
:1028D8009A607B681B689A687B681B6822F0020212
:1028E8009A607B681B6899687B681B7E5A007B68C6
:1028F8001B680A439A607B6893F82030002B1BD032
:102908007B681B685A687B681B6842F400625A60DF
:102918007B681B685A687B681B6822F460425A60AF
:102928007B681B6859687B685B6A013B5A037B6854
:102938001B680A435A6007E07B681B685A687B6813
:102948001B6822F400625A607B681B68DA6A7B683D
:102958001B6822F47002DA627B681B68D96A7B689C
:10296800DB69013B1A057B681B680A43DA627B68EE
:102978001B689A687B681B6822F400729A607B68FF
:102988001B6899687B6893F830305A027B681B682B
:102998000A439A607B681B689A687B681B6822F404
:1029A80080629A607B681B6899687B685B699A0299
:1029B8007B681B680A439A6000BF1437BD465DF800
:1029C800047B7047002301400100000F80B500AF71
:1029D80000221249124803F0C1FB0346002B01D024
:1029E800FDF71AFE0F490E4803F0E8FB0346002BDB
:1029F80001D0FDF711FE0C49094805F0A1FA03467C
:102A0800002B01D0FDF708FE054803F00DFC034636
:102A1800002B01D0FDF700FE00BF80BD0C00002098
:102A2800CC0200207C0000205C00002080B483B031
:102A380000AF03463960FB713B6812221A80034BD2
:102A480018460C37BD465DF8047B70472800002007
:102A580080B483B000AF03463960FB713B68042241
:102A68001A80034B18460C37BD465DF8047B704747
:102A78003C00002080B582B000AF03463960FB718E
:102A8800FB79002B05D13A680749084804F078FD1E
:102A980004E03A680449054804F072FD024B184600
:102AA8000837BD4680BD00BFA80500201084000877
:102AB80080B582B000AF03463960FB713A680449BB
:102AC800044804F05DFD024B18460837BD4680BD3A
:102AD800A80500202884000880B582B000AF03460E
:102AE8003960FB713B681A221A8000F043F8024BE8
:102AF80018460837BD4680BD4000002080B582B02A
:102B080000AF03463960FB71FB79002B05D13A68A9
:102B18000749084804F034FD04E03A6804490548C8
:102B280004F02EFD024B18460837BD4680BD00BF95
:102B3800A80500203C84000880B582B000AF034699
:102B48003960FB71FB79002B05D13A6807490848C1
:102B580004F016FD04E03A680449054804F010FD45
:102B6800024B18460837BD4680BD00BFA8050020A7
:102B78004884000880B584B000AF0F4B1B68FB6029
:102B88000E4B1B68BB600E4B1B687B60FA687B684A
:102B98001344FB60FB68002B09D008220949F86838
:102BA80000F014F804220849B86800F00FF800BFD4
:102BB8001037BD4680BD00BF107AFF1F147AFF1F73
:102BC800187AFF1F420000205200002080B487B00E
:102BD80000AFF860B9601346FB710023FB75002352
:102BE800FB7527E0FB681B0F092B0BD8FB681B0F35
:102BF800DAB2FB7D5B001946BB680B443032D2B2B7
:102C08001A700AE0FB681B0FDAB2FB7D5B001946FD
:102C1800BB680B443732D2B21A70FB681B01FB60E9
:102C2800FB7D5B000133BA68134400221A70FB7DF8
:102C38000133FB75FA7DFB799A42D3D300BF00BFFD
:102C48001C37BD465DF8047B7047000080B500AFB7
:102C580000220549054805F08DF90549034805F0A6
:102C6800ABF90023184680BDA80F0020CC02002035
:102C7800A807002080B400AF00231846BD465DF8C1
:102C8800047B704780B483B000AF03463960FB71A2
:102C98001346BB80FB79232B4AD801A252F823F0B4
:102CA800392D0008392D0008392D0008392D000864
:102CB800392D0008392D0008392D0008392D000854
:102CC800392D0008392D0008392D0008392D000844
:102CD800392D0008392D0008392D0008392D000834
:102CE800392D0008392D0008392D0008392D000824
:102CF800392D0008392D0008392D0008392D000814
:102D0800392D0008392D0008392D0008392D000803
:102D1800392D0008392D0008392D0008392D0008F3
:102D2800392D0008392D0008392D0008392D0008E3
:102D380000BF002318460C37BD465DF8047B70477A
:102D480080B582B000AF7860396079680D4805F0C9
:102D580033F90C4805F04EF90B4B1B68FF22002194
:102D6800184605F0A6F9084B1B6818463B681B680F
:102D78001A46796805F0CAF9002318460837BD468F
:102D880080BD00BFCC020020A801002080B487B01D
:102D980000AFF860B9601346FB710023FB7597F923
:102DA800173018461C37BD465DF8047B7047000095
:102DB80080B58AB000AF786007F1140300221A606A
:102DC8005A609A60DA601A617B681B68B3F1A04F99
:102DD8003AD100233B611E4B1B6B1D4A43F0010394
:102DE80013631B4B1B6B03F001033B613B694FF4FF
:102DF800C0537B610223BB610023FB6103233B6259
:102E08000A237B6207F1140319461248FEF752FFA2
:102E18000F4B5B6B0E4A43F0800353630023FB6048
:102E28000B4B5B6C0A4A43F480435364084B5B6C5E
:102E380003F48043FB60FB68002200214320FFF776
:102E4800B2F94320FFF7CBF900BF2837BD4680BD54
:102E5800003802400000024080B582B000AF7860C0
:102E68007B68D3F808257B6803F2C44319461046EB
:102E780003F027FA00BF0837BD4680BD80B582B091
:102E880000AF78600B46FB707B68D3F80805FA78CA
:102E980079681346DB0013449B000B4403F5237346
:102EA8001A68FB78194603F061FA00BF0837BD4677
:102EB80080BD80B582B000AF78600B46FB707B6840
:102EC800D3F80805FA7879681346DB0013449B00A9
:102ED8000B444C331A68FB78194603F0FAFA00BF22
:102EE8000837BD4680BD80B582B000AF78607B688A
:102EF800D3F80835184603F02EFC00BF0837BD4646
:102F080080BD80B584B000AF78600123FB737B6817
:102F1800DB68022B01D0FDF77FFB7B68D3F808350F
:102F2800FA7B1146184603F0D8FB7B68D3F80835BE
:102F3800184603F080FB00BF1037BD4680BD000077
:102F480080B582B000AF78607B68D3F80835184642
:102F580003F0D3FB7B681B6803F560631B687A6822
:102F6800126802F5606243F0010313607B681B6A14
:102F7800002B05D0044B1B69034A43F00603136179
:102F880000BF0837BD4680BD00ED00E080B582B0C7
:102F980000AF78607B68D3F80835184603F0C3FBA8
:102FA80000BF0837BD4680BD80B582B000AF7860ED
:102FB8000B46FB707B68D3F80835FA78114618463B
:102FC80003F01BFC00BF0837BD4680BD80B582B04A
:102FD80000AF78600B46FB707B68D3F80835FA7849
:102FE8001146184603F0D7FB00BF0837BD4680BD21
:102FF80080B582B000AF78607B68D3F80835184692
:1030080003F02DFC00BF0837BD4680BD80B582B0F7
:1030180000AF78607B68D3F80835184603F02AFCBF
:1030280000BF0837BD4680BD80B582B000AF78606C
:103038007B681B78002B3CD1204A7B68C2F8083596
:103048007B681E4AC3F8C8221C4B4FF0A0421A6086
:103058001A4B04225A60194B0222DA60174B0022DD
:103068001A61164B02229A61144B0022DA61134B43
:1030780000221A62114B00225A62104B0022DA62B7
:103088000E4B00221A630D4800F09CF90346002BF2
:1030980001D0FDF7C1FA8021084801F0F4FB402275
:1030A8000021064801F0A8FB80220121034801F015
:1030B800A3FB002318460837BD4680BDA81700208B
:1030C80080B584B000AF78600023FB730023BB7326
:1030D8007B68D3F8C832184600F091FA0346FB73B0
:1030E800FB7B184600F042F90346BB73BB7B1846CE
:1030F8001037BD4680BD80B584B000AF7860084603
:1031080011461A460346FB700B46BB7013463B80BC
:103118000023FB730023BB737B68D3F8C802BB781A
:103128003A88F97800F062FF0346FB73FB7B184688
:1031380000F01CF90346BB73BB7B18461037BD462D
:1031480080BD80B584B000AF78600B46FB7000236B
:10315800FB730023BB737B68D3F8C832FA78114637
:10316800184600F0ABFF0346FB73FB7B184600F0E4
:10317800FDF80346BB73BB7B18461037BD4680BDC0
:1031880080B584B000AF78600B46FB700023FB73FA
:103198000023BB737B68D3F8C832FA781146184607
:1031A80001F083F80346FB73FB7B184600F0DEF85A
:1031B8000346BB73BB7B18461037BD4680BD80B540
:1031C80084B000AF78600B46FB700023FB730023CC
:1031D800BB737B68D3F8C832FA781146184601F0F9
:1031E800C8F80346FB73FB7B184600F0BFF803469C
:1031F800BB73BB7B18461037BD4680BD80B485B015
:1032080000AF78600B46FB707B68D3F8C832FB6070
:1032180097F90330002B0BDAFB7803F07F02F9688B
:103228001346DB0013449B000B443E331B780BE032
:10323800FB7803F07F02F9681346DB0013449B0018
:103248000B4403F27E231B7818461437BD465DF8FD
:10325800047B704780B584B000AF78600B46FB7084
:103268000023FB730023BB737B68D3F8C832FA785A
:103278001146184600F095FE0346FB73FB7B184683
:1032880000F074F80346BB73BB7B18461037BD4685
:1032980080BD80B586B000AFF8607A603B600B46B1
:1032A800FB720023FB750023BB75FB68D3F8C802CB
:1032B800F97A3B687A6800F0AEFF0346FB75FB7D40
:1032C800184600F053F80346BB75BB7D18461837FF
:1032D800BD4680BD80B586B000AFF8607A603B60BF
:1032E8000B46FB720023FB750023BB75FB68D3F804
:1032F800C802F97A3B687A6800F02AFF0346FB7532
:10330800FB7D184600F032F80346BB75BB7D1846B6
:103318001837BD4680BD80B582B000AF78600B46D7
:10332800FB707B68D3F8C832FA781146184600F06B
:103338005AFF034618460837BD4680BD80B483B09F
:1033480000AF7860034B18460C37BD465DF8047B28
:10335800704700BFB41C002080B483B000AF786011
:1033680000BF0C37BD465DF8047B704780B485B05C
:1033780000AF0346FB710023FB73FB79032B17D8BF
:1033880001A252F823F000BFA1330008A7330008B8
:10339800AD330008B33300080023FB730BE00323AD
:1033A800FB7308E00123FB7305E00323FB7302E0D2
:1033B8000323FB7300BFFB7B18461437BD465DF83B
:1033C800047B7047F0B58FB00AAF78607B68002B3C
:1033D80001D101230FE17B681B68BB607B6893F810
:1033E800BD34DBB2002B06D17B68002283F8BC24F5
:1033F8007868FFF7DDFC7B68032283F8BD24BB688F
:10340800DB6B03F48073002B02D17B6800221A6106
:103418007B681B68184601F068FB7B681B683B608B
:103428007E686D4606F110040FCC0FC50FCC0FC592
:1034380094E8030085E80300331D0ECB386801F0DB
:103448003FFA0346002B05D07B68022283F8BD248F
:103458000123D0E07B681B680021184601F056FB69
:103468000023FB734AE0FA7B79681346DB001344B8
:103478009B000B443D3301221A70FA7B796813468E
:10348800DB0013449B000B443C33FA7B1A70FA7B35
:10349800FB7B98B279681346DB0013449B000B440E
:1034A800443302461A80FA7B79681346DB001344DA
:1034B8009B000B44403300221A70FA7B796813464C
:1034C800DB0013449B000B44483300221A60FA7B4C
:1034D80079681346DB0013449B000B444C330022ED
:1034E8001A60FA7B79681346DB0013449B000B448F
:1034F800543300221A60FB7B0133FB73FA7B7B6831
:103508005B689A42AFD30023FB7344E0FA7B796887
:103518001346DB0013449B000B4403F27D23002277
:103528001A70FA7B79681346DB0013449B000B443E
:1035380003F51F73FA7B1A70FA7B79681346DB0070
:1035480013449B000B4403F5207300221A70FA7B86
:1035580079681346DB0013449B000B4403F5227380
:1035680000221A60FA7B79681346DB0013449B003B
:103578000B4403F5237300221A60FA7B796813461B
:10358800DB0013449B000B4403F5257300221A60EB
:10359800FB7B0133FB73FA7B7B685B689A42B5D38C
:1035A8007B681B683B607E686D4606F110040FCC93
:1035B8000FC50FCC0FC594E8030085E80300331D41
:1035C8000ECB386801F0EEFA0346002B05D07B6875
:1035D800022283F8BD2401230DE07B68002283F8D2
:1035E80038207B68012283F8BD247B681B68184655
:1035F80002F03DFC002318461437BD46F0BD80B5E7
:1036080084B000AF78607B681B68FB607B6893F8C8
:10361800BC34012B01D1022320E07B68012283F80E
:10362800BC247B689B6A012B09D17B689B69012BB1
:1036380005D0FB689B6B43F48032FB689A637B6818
:103648001B68184601F040FA7B681B68184602F0B0
:10365800EDFB7B68002283F8BC2400231846103752
:10366800BD4680BD90B58DB000AF78607B681B68A3
:103678003B623B6AFB617B681B68184602F0ABFC47
:103688000346002B40F08A847B681B68184602F0CA
:103698000FFC0346002B00F08084FB6903F50063F0
:1036A8009B681B0AC3F30D027B68C3F8FC247B6884
:1036B8001B68184602F0FCFB034603F00203022BCA
:1036C80007D17B681B685A697B681B6802F0020295
:1036D8005A617B681B68184602F0EAFB034603F050
:1036E8001003102B61D17B681B689A697B681B6883
:1036F80022F010029A613B6A1B6ABB61BB6903F046
:103708000F021346DB0013449B0003F51E737A680F
:10371800134404337B61BB695B0C03F00F03022B7A
:1037280024D1BA6947F6F0731340002B35D07B6972
:103738001969BB691B099BB2C3F30A039BB21A46FA
:10374800386A02F021FA7B691A69BB691B09C3F35D
:103758000A031A447B691A617B691A6ABB691B09E7
:10376800C3F30A031A447B691A6216E0BB695B0C4F
:1037780003F00F03062B10D17B6803F2C443082221
:103788001946386A02F000FA7B691A6ABB691B0994
:10379800C3F30A031A447B691A627B681B689A6937
:1037A8007B681B6842F010029A617B681B681846A8
:1037B80002F07EFB034603F40023B3F5002F40F02C
:1037C800A78000237B627B681B68184602F083FB96
:1037D800B86299E0BB6A03F00103002B00F08E8009
:1037E8007B681B687A6AD2B21146184602F0A7FBBA
:1037F80038613B6903F00103002B0CD07B6A5A0146
:10380800FB69134403F530631A4601239360796A10
:10381800786800F0C3FE3B6903F00803002B0CD066
:103828007B6A5A01FB69134403F530631A4608237F
:103838009360796A786800F099FF3B6903F0100398
:10384800002B08D07B6A5A01FB69134403F53063E7
:103858001A46102393603B6903F00203002B30D013
:103868003B6A5B6903F08003802B09D1FB6903F590
:1038780000635B68FA6902F5006243F48063536091
:103888007A6A1346DB0013449B0003F51E737A68BB
:10389800134404337B617B69DB78012B08D17B6996
:1038A8000022DA707B6ADBB219467868FFF77CFB86
:1038B8007B6A5A01FB69134403F530631A460223F5
:1038C80093603B6903F02003002B08D07B6A5A0100
:1038D800FB69134403F530631A46202393603B6960
:1038E80003F40053002B09D07B6A5A01FB69134487
:1038F80003F530631A464FF4005393607B6A013333
:103908007B62BB6A5B08BB62BB6A002B7FF462AF59
:103918007B681B68184602F0CBFA034603F4802341
:10392800B3F5802F40F0DB807B681B68184602F0F7
:10393800ECFAB86200237B62CDE0BB6A03F00103B6
:10394800002B00F0C2807B681B687A6AD2B21146ED
:10395800184602F012FB38613B6903F00103002BA3
:1039680057D07B6A03F00F03012202FA03F3FB60CE
:10397800FB6903F500635A6BFB68DB43F96901F5E2
:10398800006113404B637B6A5A01FB69134403F5DA
:1039980010631A46012393607B681B69012B32D19F
:1039A80079687A6A1346DB0013449B000B444C3356
:1039B800196878687A6A1346DB0013449B0003444D
:1039C80048331B68194478687A6A1346DB00134445
:1039D8009B0003444C3319607B6A002B13D1796830
:1039E8007A6A1346DB0013449B000B4454331B686C
:1039F800002B08D17B6818687B6803F2C4431A4619
:103A0800012102F019FB7B6ADBB219467868FFF7DF
:103A180050FA3B6903F00803002B08D07B6A5A016F
:103A2800FB69134403F510631A46082393603B6946
:103A380003F01003002B08D07B6A5A01FB6913447A
:103A480003F510631A46102393603B6903F04003A3
:103A5800002B08D07B6A5A01FB69134403F51063F5
:103A68001A46402393603B6903F00203002B23D0DE
:103A7800796A386A01F0FAF97A6A1346DB00134466
:103A88009B0038337A68134404337B617B69DB78A5
:103A9800012B08D17B690022DA707B6ADBB21946F8
:103AA8007868FFF793FA7B6A5A01FB69134403F5B8
:103AB80010631A46022393603B6903F08003002BCE
:103AC80003D0796A786800F0DBFC7B6A01337B629B
:103AD800BB6A5B08BB62BB6A002B7FF42EAF7B68B6
:103AE8001B68184602F0E4F9034603F00043B3F1FB
:103AF800004F22D1FB6903F500635B68FA6902F5A0
:103B0800006223F0010353607B6893F8F434012BBF
:103B180008D17B68002283F8F4240021786800F03B
:103B2800C3FE02E07868FFF731FA7B681B685A69C0
:103B38007B681B6802F000425A617B681B68184664
:103B480002F0B6F9034603F40063B3F5006F12D12F
:103B5800FB6903F500639B6803F00103012B02D1A5
:103B68007868FFF7EDF97B681B685A697B681B6802
:103B780002F400625A617B681B68184602F098F9E3
:103B8800034603F48053B3F5805F40F0B780FB69C8
:103B980003F500635B68FA6902F5006223F001032C
:103BA80053607B681B681021184601F05FF90023F9
:103BB800FB6246E0FB6A5A01FB69134403F5106394
:103BC8001A464FF67F339360FB6A5A01FB69134428
:103BD80003F510631B68FA6A5101FA690A4402F591
:103BE800106223F400131360FB6A5A01FB69134443
:103BF80003F530631A464FF67F339360FB6A5A0128
:103C0800FB69134403F530631B68FA6A5101FA69CA
:103C18000A4402F5306223F400131360FB6A5A0168
:103C2800FB69134403F530631B68FA6A5101FA69AA
:103C38000A4402F5306243F000631360FB6A013303
:103C4800FB627B685B68FA6A9A42B3D3FB6903F547
:103C58000063DB69FA6902F5006243F00113D3617E
:103C68007B681B6B002B16D0FB6903F50063D3F848
:103C78008430FA6902F5006243F00B03C2F884301D
:103C8800FB6903F500635B6CFA6902F5006243F0B7
:103C98000B03536415E0FB6903F500635B69FA697C
:103CA80002F5006243F4005343F02B035361FB69B0
:103CB80003F500631B69FA6902F5006243F00B0320
:103CC8001361FB6903F500631B68FA6902F500627A
:103CD80023F4FE6313607B6818687B681B69D9B29C
:103CE8007B6803F2C4431A4602F0A6F97B681B6896
:103CF8005A697B681B6802F480525A617B681B68AA
:103D0800184602F0D5F8034603F40053B3F5005FF4
:103D180024D17B681B68184602F06BF97B681B6826
:103D2800184601F020F903461A467B68DA607B687A
:103D38001C68FDF7B3FF01467B68DB68DBB21A46F7
:103D4800204600F01FFE7868FFF7DBF87B681B68E9
:103D58005A697B681B6802F400525A617B681B68C9
:103D6800184602F0A5F8034603F00803082B0AD109
:103D78007868FFF7B8F87B681B685A697B681B6826
:103D880002F008025A617B681B68184602F090F836
:103D9800034603F08003802B22D13B6A9B6923F002
:103DA80080023B6A9A6101237B6214E079687A6A2F
:103DB8001346DB0013449B000B4403F27F231B785C
:103DC800012B05D17B6ADBB21946786800F027FB26
:103DD8007B6A01337B627B685B687A6A9A42E5D3C7
:103DE8007B681B68184602F063F8034603F48013E7
:103DF800B3F5801F3BD101237B622BE07B6A5A011C
:103E0800FB69134403F510631B68BB6179687A6A20
:103E18001346DB0013449B000B4440331B78012BF3
:103E280015D1BB69002B12DA79687A6A1346DB0070
:103E380013449B000B443F3301221A707B6ADBB2A8
:103E480063F07F03DBB21946786800F0E8FA7B6A12
:103E580001337B627B685B687A6A9A42CED37B685F
:103E68001B685A697B681B6802F480125A617B6878
:103E78001B68184602F01CF8034603F40013B3F558
:103E8800001F55D101237B6245E07B6A5A01FB691B
:103E9800134403F530631B68BB6179687A6A13467B
:103EA800DB0013449B000B4403F520731B78012BA4
:103EB8002ED1BB69002B2BDABB6903F480327B68F7
:103EC800D3F8FC3403F001039A4221D179687A6A65
:103ED8001346DB0013449B000B4403F27F230122AB
:103EE8001A703B6A9B6943F080023B6A9A613B6A9D
:103EF8005B6903F08003002B0AD1FB6903F50063BB
:103F08005B68FA6902F5006243F40073536007E0E6
:103F18007B6A01337B627B685B687A6A9A42B4D3B6
:103F28007B681B685A697B681B6802F400125A6137
:103F38007B681B68184601F0BBFF034603F080430B
:103F4800B3F1804F0AD17868FFF752F87B681B6895
:103F58005A697B681B6802F080425A617B681B685B
:103F6800184601F0A5FF034603F00403042B15D1FE
:103F78007B681B685B68BB61BB6903F00403002BAB
:103F880002D07868FFF742F87B681B6859687B683D
:103F98001B68BA690A435A6000E000BF3437BD465F
:103FA80090BD80B582B000AF78600B46FB707B682F
:103FB80093F8BC34012B01D1022313E07B68012262
:103FC80083F8BC247B68FA7883F838207B681B6800
:103FD800FA781146184601F003FF7B68002283F83F
:103FE800BC24002318460837BD4680BD80B584B080
:103FF80000AF7860084611461A460346FB700B4628
:104008003B801346BB700023FB7297F90330002BEB
:104018000FDAFB7803F00F021346DB0013449B0012
:1040280038337A6813440433FB60FB6801225A7002
:104038000FE0FB7803F00F021346DB0013449B00EC
:1040480003F51E737A6813440433FB60FB6800228F
:104058005A70FB7803F00F03DAB2FB681A703A88DB
:10406800FB68DA60FB68BA781A71FB685B78002B2A
:1040780004D0FB681B789AB2FB681A81BB78022BC4
:1040880002D1FB6800225A717B6893F8BC34012B7B
:1040980001D102230EE07B68012283F8BC247B68EF
:1040A8001B68F968184600F083FF7B68002283F8D4
:1040B800BC24FB7A18461037BD4680BD80B584B055
:1040C80000AF78600B46FB7097F90330002B0FDACE
:1040D800FB7803F00F021346DB0013449B003833D0
:1040E8007A6813440433FB60FB6801225A700FE0BE
:1040F800FB7803F00F021346DB0013449B0003F523
:104108001E737A6813440433FB60FB6800225A70FC
:10411800FB7803F00F03DAB2FB681A707B6893F838
:10412800BC34012B01D102230EE07B68012283F805
:10413800BC247B681B68F968184600F0C1FF7B68DF
:10414800002283F8BC24002318461037BD4680BDE2
:1041580080B586B000AFF8607A603B600B46FB72B2
:10416800FB7A03F00F021346DB0013449B0003F5B0
:104178001E73FA68134404337B617B697A681A6199
:104188007B693A689A617B6900221A627B6900221E
:104198005A70FB7A03F00F03DAB27B691A70FB6876
:1041A8001B69012B02D17A687B695A61FB7A03F09B
:1041B8000F03002B09D1FB681868FB681B69DBB289
:1041C8001A46796901F0A0FA08E0FB681868FB68EC
:1041D8001B69DBB21A46796901F04EF800231846CC
:1041E8001837BD4680BD80B483B000AF78600B46F9
:1041F800FB70FB7803F00F0279681346DB00134469
:104208009B000B4403F527731B6818460C37BD4603
:104218005DF8047B704780B586B000AFF8607A60BF
:104228003B600B46FB72FB7A03F00F021346DB0080
:1042380013449B003833FA68134404337B617B6969
:104248007A681A617B693A689A617B6900221A6206
:104258007B6901225A70FB7A03F00F03DAB27B699B
:104268001A70FB681B69012B02D17A687B695A6155
:10427800FB7A03F00F03002B09D1FB681868FB6871
:104288001B69DBB21A46796901F03EFA08E0FB685F
:104298001868FB681B69DBB21A46796900F0ECFF05
:1042A800002318461837BD4680BD80B584B000AFDE
:1042B80078600B46FB70FB7803F00F027B685B6845
:1042C8009A4201D9012350E097F90330002B0FDA05
:1042D800FB7803F00F021346DB0013449B003833CE
:1042E8007A6813440433FB60FB6801225A700DE0BE
:1042F800FA781346DB0013449B0003F51E737A68B3
:1043080013440433FB60FB6800225A70FB680122E7
:104318009A70FB7803F00F03DAB2FB681A707B68B7
:1043280093F8BC34012B01D102231EE07B680122E3
:1043380083F8BC247B681B68F968184601F07CFC8C
:10434800FB7803F00F03002B0AD17B6818687B68A1
:104358001B69D9B27B6803F2C4431A4601F06CFEAC
:104368007B68002283F8BC24002318461037BD461A
:1043780080BD80B584B000AF78600B46FB70FB78D9
:1043880003F00F027B685B689A4201D9012342E07F
:1043980097F90330002B0FDAFB7803F00F0213466E
:1043A800DB0013449B0038337A6813440433FB6002
:1043B800FB6801225A700FE0FB7803F00F021346E6
:1043C800DB0013449B0003F51E737A68134404331F
:1043D800FB60FB6800225A70FB6800229A70FB7829
:1043E80003F00F03DAB2FB681A707B6893F8BC34E9
:1043F800012B01D102230EE07B68012283F8BC2443
:104408007B681B68F968184601F084FC7B68002209
:1044180083F8BC24002318461037BD4680BD80B5FC
:1044280084B000AF78600B46FB7097F90330002B1F
:104438000CDAFB7803F00F021346DB0013449B00F1
:1044480038337A6813440433FB600CE0FB7803F0DC
:104458000F021346DB0013449B0003F51E737A68B2
:1044680013440433FB607B681B68F968184601F045
:10447800A3FA0346FB72FB7A18461037BD4680BD87
:1044880080B58AB002AF786039607B681B687B6151
:104498007B693B613A681346DB0013449B00383361
:1044A8007A6813440433FB60FB681A6AFB689B69EB
:1044B8009A4201D901236CE0FB689A69FB681B6A80
:1044C800D31AFB61FB68DB68FA699A4202D9FB6878
:1044D800DB68FB61FB6903339B08BB612BE0FB686E
:1044E8009A69FB681B6AD31AFB61FB68DB68FA6987
:1044F8009A4202D9FB68DB68FB61FB6903339B08BE
:10450800BB61FB6819693B68DAB2FB6998B27B68E2
:104518001B69DBB200930346786901F0F7FAFB6880
:104528001A69FB691A44FB681A61FB681A6AFB6915
:104538001A44FB681A623B685A013B69134403F545
:1045480010639B699BB2BA699A4209D8FB681A6AD8
:10455800FB689B699A4203D2FB689B69002BBED11A
:10456800FB689A69FB681B6A9A4211D83B6803F09A
:104578000F03012202FA03F3BB603B6903F50063F2
:104588005A6BBB68DB43396901F5006113404B6323
:10459800002318462037BD4680BD000080B588B08E
:1045A80000AF786039607B681B68FB61FB69BB61A1
:1045B800FB693C3304331B687B613B685A01BB6968
:1045C800134403F530639B683B617B681B69012BCF
:1045D8007BD13B6903F00803002B15D07B69614A46
:1045E800934240F2B9803B6903F40043002B00F08A
:1045F800B3803B685A01BB69134403F530631A461C
:104608004FF400439360A7E03B6903F02003002BBD
:1046180009D03B685A01BB69134403F530631A4655
:104628002023936098E03B6903F02803002B40F0B7
:1046380093807B694B4A93420FD93B6903F400434B
:10464800002B0AD03B685A01BB69134403F5306359
:104658001A464FF4004393607EE03A681346DB0045
:1046680013449B0003F51E737A6813440433FB60FC
:10467800FB68DA693B685901BB690B4403F5306391
:104688001B69C3F31203D21AFB681A623B68002B3A
:1046980014D1FB689B69002B09D17B6818687B687B
:1046A80003F2C4431A46012101F0C6FC06E0FB6888
:1046B8001A69FB681B6A1A44FB681A613B68DBB21B
:1046C80019467868FEF7DAFB46E07B69264A93428A
:1046D80024D13B6903F40043002B0AD03B685A01FC
:1046E800BB69134403F530631A464FF400439360E3
:1046F80032E03B6903F02003002B08D03B685A01E5
:10470800BB69134403F530631A46202393603B6862
:10471800DBB219467868FEF7B1FB1DE03B68002B59
:1047280014D179683A681346DB0013449B000B44A4
:1047380003F525731B68002B08D17B6818687B6814
:1047480003F2C4431A46002101F076FC3B68DBB251
:1047580019467868FEF792FB002318462037BD46B5
:1047680080BD00BF0A30544F0A31544F80B586B01F
:1047780000AF786039607B681B687B617B693B614F
:104788007B693C3304331B68FB603B685A013B6917
:10479800134403F530639B68BB60FB68154A93427A
:1047A8000ED9BB6803F40043002B09D03B685A01BB
:1047B8003B69134403F530631A464FF40043936092
:1047C8007868FEF749FBFB680A4A93420CD97B6874
:1047D8001B69012B08D17B6818687B6803F2C44306
:1047E8001A46012101F028FC002318461837BD4657
:1047F80080BD00BF0A30544F80B485B000AF7860E8
:104808000B46FB7013463B807B681B685B6ABB608A
:10481800FB78002B07D13B8819047B681B68BA68B2
:104828000A439A6228E07B681B689B6A1B0CBA687B
:104838001344BB600023FB730DE07B681A68FB7BA5
:1048480040339B0013445B681B0CBA681344BB607D
:10485800FB7B0133FB73FA7BFB78013B9A42ECD379
:104868003B8818047B681968FB78013BBA680243E7
:1048780040339B000B445A60002318461437BD464A
:104888005DF8047B704780B483B000AF78600B4656
:104898007B807B681B687A885A62002318460C372D
:1048A800BD465DF8047B704780B483B000AF786084
:1048B8000B46FB7000BF0C37BD465DF8047B7047A4
:1048C80084B080B584B000AF786007F11C0080E840
:1048D8000E003B6B012B22D17B689B6B23F480324B
:1048E8007B689A637B68DB6823F4840323F04003C6
:1048F8007A68D3607B68DB6823F440127B68DA60EF
:10490800FB6C012B05D17B68DB6843F480127B6864
:10491800DA60786801F0EEFB0346FB731AE07B6807
:10492800DB6843F040027B68DA60786801F0E2FBFC
:104938000346FB733B6C002B06D17B689B6B43F4EF
:1049480080327B689A6305E07B689B6B23F4803236
:104958007B689A63BB6A012B0BD17B689B6843F029
:1049680006027B689A607B689B6843F020027B683C
:104978009A60FB7B18461037BD46BDE8804004B0FE
:104988007047000080B487B000AFF860B960134684
:10499800FB71FB79022B65D1BB68414A934206D96A
:1049A800BB68404A934202D20F237B6162E0BB6836
:1049B8003C4A934206D3BB683B4A934202D20E2339
:1049C8007B6157E0BB68384A934206D3BB68374AD5
:1049D800934202D20D237B614CE0BB68334A934279
:1049E80006D3BB68324A934202D80C237B6141E06C
:1049F800BB682F4A934206D9BB682E4A934202D815
:104A08000B237B6136E0BB682A4A934206D9BB6810
:104A1800294A934202D80A237B612BE0BB68264AC5
:104A2800934206D9BB68254A934202D209237B6187
:104A380020E0BB68214A934206D3BB68204A9342D0
:104A480002D808237B6115E0BB681D4A934206D94A
:104A5800BB681C4A934202D207237B610AE0062303
:104A68007B6107E0FB79002B02D109237B6101E020
:104A780009237B61FB68DB6823F47052FB68DA600A
:104A8800FB68DA687B699B0203F470531A43FB687E
:104A9800DA60002318461C37BD465DF8047B704772
:104AA800BFACD800C0E1E4000024F4008073060124
:104AB8009F491A01FF2C31013FA44C0100366E01B9
:104AC8001FABA6010048E80180B483B000AF78604E
:104AD8007B689B6843F001027B689A600023184654
:104AE8000C37BD465DF8047B704780B483B000AFD7
:104AF80078607B689B6823F001027B689A600023DA
:104B080018460C37BD465DF8047B704780B584B005
:104B180000AF78600B46FB700023FB607B68DB68A6
:104B280023F0C0427B68DA60FB78012B15D17B68E3
:104B3800DB6843F000527B68DA600120FDF7DCFB9C
:104B4800FB680133FB60786801F045FA0346012BE6
:104B58001ED0FB68312BF0D91AE0FB78002B15D159
:104B68007B68DB6843F080427B68DA600120FDF7F0
:104B7800C3FBFB680133FB60786801F02CFA03463D
:104B8800002B05D0FB68312BF0D901E0012305E0AB
:104B9800FB68322B01D1012300E0002318461037AF
:104BA800BD4680BD84B080B586B000AF786007F19F
:104BB800240080E80E000023FB757B68FB6000235F
:104BC8003B6109E07A683B6940339B00134400224B
:104BD8005A603B6901333B613B690E2BF2D9FB6C90
:104BE800002B1CD1FB6803F500635B68FA6802F5CB
:104BF800006243F0020353607B689B6B43F400122E
:104C08007B689A637B689B6B23F400227B689A63BA
:104C18007B689B6B23F480227B689A630BE07B683C
:104C28009B6B23F400127B689A637B689B6B43F44D
:104C380000227B689A63FB6803F560631A460023C9
:104C48001360FB6803F500631946FB6803F500630E
:104C58001A460B681360BB6B012B0CD1FB6A002B47
:104C680004D10021786800F065F908E0012178682E
:104C780000F060F903E00321786800F05BF9102187
:104C8800786800F0F3F80346002B01D00123FB7588
:104C9800786800F01FF90346002B01D00123FB754B
:104CA800FB6803F500631A4600231361FB6803F5EC
:104CB80000631A4600235361FB6803F500631A4634
:104CC8000023D36100233B6143E03B695A01FB6841
:104CD800134403F510631B6803F00043B3F1004F5E
:104CE80018D13B69002B0AD13B695A01FB68134470
:104CF80003F510631A464FF00063136013E03B6935
:104D08005A01FB68134403F510631A464FF09043A9
:104D1800136008E03B695A01FB68134403F510630C
:104D28001A46002313603B695A01FB68134403F5D4
:104D380010631A46002313613B695A01FB68134448
:104D480003F510631A464FF67F3393603B690133CE
:104D58003B617B6A3A699A42B7D300233B6143E0DF
:104D68003B695A01FB68134403F530631B6803F081
:104D78000043B3F1004F18D13B69002B0AD13B69BE
:104D88005A01FB68134403F530631A464FF0006379
:104D9800136013E03B695A01FB68134403F5306361
:104DA8001A464FF09043136008E03B695A01FB68CC
:104DB800134403F530631A46002313603B695A0114
:104DC800FB68134403F530631A46002313613B69FB
:104DD8005A01FB68134403F530631A464FF67F33D4
:104DE80093603B6901333B617B6A3A699A42B7D366
:104DF800FB6803F500631B69FA6802F5006223F497
:104E0800807313617B6800229A617B686FF080422F
:104E18005A613B6B002B05D17B689B6943F01002FC
:104E28007B689A617B689A690F4B13437A68936130
:104E3800FB6B002B05D07B689B6943F008027B68FD
:104E48009A61FB6C012B07D17B689B6943F0804317
:104E580043F004037A689361FB7D18461837BD4612
:104E6800BDE8804004B0704700383C8080B485B00D
:104E780000AF786039600023FB60FB680133FB609A
:104E8800FB68134A934201D903231BE07B681B6923
:104E9800002BF2DA0023FB603B689B0143F0200201
:104EA8007B681A61FB680133FB60FB68084A934220
:104EB80001D9032306E07B681B6903F02003202B3C
:104EC800F0D0002318461437BD465DF8047B7047C0
:104ED800400D030080B485B000AF78600023FB600C
:104EE800FB680133FB60FB68114A934201D9032335
:104EF80018E07B681B69002BF2DA0023FB607B68F3
:104F080010221A61FB680133FB60FB68084A934270
:104F180001D9032306E07B681B6903F01003102BFB
:104F2800F0D0002318461437BD465DF8047B70475F
:104F3800400D030080B485B000AF78600B46FB706D
:104F48007B68FB60FB6803F500631A68FB78F96807
:104F580001F5006113430B60002318461437BD4662
:104F68005DF8047B704780B487B000AF78607B68D9
:104F78003B613B6903F500639B6803F00603FB6034
:104F8800FB68002B02D10023FB750AE0FB68022BAB
:104F980002D0FB68062B02D10223FB7501E00F2328
:104FA800FB75FB7D18461C37BD465DF8047B7047D2
:104FB80080B485B000AF786039607B68FB603B687F
:104FC8001B78BB603B685B78012B3AD1FB6803F523
:104FD8000063DA693B681B7803F00F03012101FACB
:104FE80003F39BB2F96801F500611343CB61BB6819
:104FF8005A01FB68134403F510631B6803F400436C
:10500800002B55D1BB685A01FB68134403F51063A4
:105018001A683B68DB68C3F30A013B681B799B0489
:105028001943BB689B050B431343BA685101FA68DF
:105038000A4402F5106243F0805343F400431360BE
:1050480036E0FB6803F50063DA693B681B7803F018
:105058000F03012101FA03F31B04F96801F500614C
:105068001343CB61BB685A01FB68134403F53063F3
:105078001B6803F40043002B1AD1BB685A01FB6874
:10508800134403F530631A683B68DB68C3F30A010D
:105098003B681B799B040B431343BA685101FA68B8
:1050A8000A4402F5306243F0805343F4004313602E
:1050B800002318461437BD465DF8047B704700008E
:1050C80080B485B000AF786039607B68FB603B686E
:1050D8001B78BB603B685B78012B61D1BB685A01C8
:1050E800FB68134403F510631B6803F00043B3F136
:1050F800004F1FD1BB685A01FB68134403F51063C6
:105108001B68BA685101FA680A4402F5106243F054
:1051180000631360BB685A01FB68134403F510630E
:105128001B68BA685101FA680A4402F5106243F034
:1051380080431360FB6803F50063DA6B3B681B78F8
:1051480003F00F03012101FA03F39BB2DB43F96873
:1051580001F500611340CB63FB6803F50063DA696E
:105168003B681B7803F00F03012101FA03F39BB29C
:10517800DB43F96801F500611340CB61BB685A0154
:10518800FB68134403F510631A68BB685901FB6890
:105198000B4403F510631946354B13400B6060E070
:1051A800BB685A01FB68134403F530631B6803F0BE
:1051B8000043B3F1004F1FD1BB685A01FB68134489
:1051C80003F530631B68BA685101FA680A4402F5AE
:1051D800306243F000631360BB685A01FB681344F4
:1051E80003F530631B68BA685101FA680A4402F58E
:1051F800306243F080431360FB6803F50063DA6BA9
:105208003B681B7803F00F03012101FA03F31B0429
:10521800DB43F96801F500611340CB63FB6803F5D4
:105228000063DA693B681B7803F00F03012101FA78
:1052380003F31B04DB43F96801F500611340CB61FC
:10524800BB685A01FB68134403F530631A68BB68EE
:105258005901FB680B4403F530631946054B1340AD
:105268000B60002318461437BD465DF8047B704771
:10527800007833EC0078F3EF80B58AB002AFF860BD
:10528800B9601346FB71FB68FB61BB681B78BB61A7
:10529800BB685B78012B40F05C81BB689B69002B85
:1052A80032D1BB695A01FB69134403F510631B69CA
:1052B800BA695101FA690A4402F5106223F0FF53F2
:1052C80023F4C0131361BB695A01FB69134403F546
:1052D80010631B69BA695101FA690A4402F5106240
:1052E80043F400231361BB695A01FB69134403F5B6
:1052F80010631B69BA695101FA690A4402F5106220
:10530800DB0CDB04136174E0BB695A01FB691344CD
:1053180003F510631B69BA695101FA690A4402F579
:105328001062DB0CDB041361BB695A01FB6913448F
:1053380003F510631B69BA695101FA690A4402F559
:10534800106223F0FF5323F4C0131361BB695A01A1
:10535800FB69134403F510631A69BB689969BB6854
:10536800DB680B44591EBB68DB68B1FBF3F3D90457
:105378009D4B0B40B9694801F969014401F5106179
:1053880013430B61BB695A01FB69134403F51063AE
:105398001A69BB689B69C3F31203B9694801F969C3
:1053A800014401F5106113430B61BB681B79012BA4
:1053B8001FD1BB695A01FB69134403F510631B69CC
:1053C800BA695101FA690A4402F5106223F0C04330
:1053D8001361BB695A01FB69134403F510631B6928
:1053E800BA695101FA690A4402F5106243F00053A0
:1053F8001361FB79012B4BD1BB685B69002B09D08A
:10540800BB695A01FB69134403F510631A46BB686C
:105418005B695361BB681B79012B28D1FB6903F5D4
:1054280000639B6803F48073002B10D1BB695A0199
:10543800FB69134403F510631B68BA695101FA69E3
:105448000A4402F5106243F0005313600FE0BB6991
:105458005A01FB69134403F510631B68BA695101CB
:10546800FA690A4402F5106243F080531360BB697D
:105478005A01FB69134403F510631B68BA695101AB
:10548800FA690A4402F5106243F00443136033E1F9
:10549800BB695A01FB69134403F510631B68BA69B9
:1054A8005101FA690A4402F5106243F0044313609B
:1054B800BB681B79012B15D0BB689B69002B00F0DA
:1054C8001B81FB6903F500635A6BBB681B7803F00B
:1054D8000F03012101FA03F3F96901F50061134390
:1054E8004B6309E1FB6903F500639B6803F4807370
:1054F800002B10D1BB695A01FB69134403F51063F3
:105508001B68BA695101FA690A4402F5106243F04E
:10551800005313600FE0BB695A01FB69134403F59C
:1055280010631B68BA695101FA690A4402F51062EE
:1055380043F080531360BB681969BB681A78BB686D
:105548009B6998B2FB7900930346F86800F0DEFA8D
:10555800D2E0BB695A01FB69134403F530631B6948
:10556800BA695101FA690A4402F53062DB0CDB04BE
:105578001361BB695A01FB69134403F530631B6966
:10558800BA695101FA690A4402F5306223F0FF53FF
:1055980023F4C0131361BB689B69002B26D1BB6938
:1055A8005A01FB69134403F530631A69BB68DB6869
:1055B800C3F31203B9694801F969014401F530617F
:1055C80013430B61BB695A01FB69134403F530634C
:1055D8001B69BA695101FA690A4402F5306243F459
:1055E800002313613AE000BF0000F81FBB689A6906
:1055F800BB68DB6813445A1EBB68DB68B2FBF3F375
:10560800FB82BB68DB68FA8A03FB02F2BB68DA61DB
:10561800BB695A01FB69134403F530631A69FB8AB5
:10562800D904384B0B40B9694801F969014401F5BF
:10563800306113430B61BB695A01FB69134403F5DD
:1056480030631A69BB68DB69C3F31203B96948019F
:10565800F969014401F5306113430B61FB79012BB2
:105668000DD1BB681B69002B09D0BB681969BB69E0
:105678005A01FB69134403F530630A465A61BB6853
:105688001B79012B28D1FB6903F500639B6803F4A0
:105698008073002B10D1BB695A01FB69134403F5D1
:1056A80030631B68BA695101FA690A4402F530622D
:1056B80043F0005313600FE0BB695A01FB691344C0
:1056C80003F530631B68BA695101FA690A4402F5A7
:1056D800306243F080531360BB695A01FB6913447D
:1056E80003F530631B68BA695101FA690A4402F587
:1056F800306243F004431360002318462037BD4648
:1057080080BD00BF0000F81F80B487B000AFF8600C
:10571800B9601346FB71FB687B61BB681B783B6112
:10572800BB685B78012B40F0CE80BB689B69002B7F
:1057380032D13B695A017B69134403F510631B6935
:105748003A6951017A690A4402F5106223F0FF535D
:1057580023F4C01313613B695A017B69134403F5B1
:1057680010631B693A6951017A690A4402F51062AB
:1057780043F4002313613B695A017B69134403F521
:1057880010631B693A6951017A690A4402F510628B
:10579800DB0CDB0413614EE03B695A017B6913445F
:1057A80003F510631B693A6951017A690A4402F5E5
:1057B8001062DB0CDB0413613B695A017B691344FB
:1057C80003F510631B693A6951017A690A4402F5C5
:1057D800106223F0FF5323F4C0131361BB689A6966
:1057E800BB68DB689A4203D9BB68DA68BB689A6110
:1057F8003B695A017B69134403F510631B693A69D5
:1058080051017A690A4402F5106243F400231361D6
:105818003B695A017B69134403F510631A69BB6835
:105828009B69C3F31203396948017969014401F599
:10583800106113430B61FB79012B1ED1BB685B69B7
:10584800002B09D03B695A017B69134403F51063A7
:105858001A46BB685B6953613B695A017B6913440B
:1058680003F510631B683A6951017A690A4402F525
:10587800106243F00443136097E03B695A017B6967
:10588800134403F510631B683A6951017A690A44A5
:1058980002F5106243F004431360BB689B69002B58
:1058A80000F083807B6903F500635A6BBB681B7843
:1058B80003F00F03012101FA03F3796901F500618F
:1058C80013434B6371E03B695A017B69134403F549
:1058D80030631B693A6951017A690A4402F53062FA
:1058E800DB0CDB0413613B695A017B69134403F544
:1058F80030631B693A6951017A690A4402F53062DA
:1059080023F0FF5323F4C0131361BB689B69002B7A
:1059180003D0BB68DA68BB689A61BB68DA68BB68A1
:10592800DA613B695A017B69134403F530631B69EB
:105938003A6951017A690A4402F5306243F4002356
:1059480013613B695A017B69134403F530631A6993
:10595800BB68DB69C3F312033969480179690144FB
:1059680001F5306113430B61FB79012B0DD1BB6845
:105978001B69002B09D0BB6819693B695A017B690F
:10598800134403F530630A465A613B695A017B693F
:10599800134403F530631B683A6951017A690A4474
:1059A80002F5306243F004431360002318461C37A5
:1059B800BD465DF8047B704780B487B000AF78605F
:1059C80039600023FB600023FB757B683B613B6803
:1059D8005B78012B4AD13B681B785A013B69134419
:1059E80003F510631B6803F00043B3F1004F40F068
:1059F80086803B681B785A013B69134403F51063A2
:105A08001B683A68127851013A690A4402F5106233
:105A180043F0006313603B681B785A013B691344E9
:105A280003F510631B683A68127851013A690A4411
:105A380002F5106243F080431360FB680133FB609A
:105A4800FB6842F21072934202D90123FB7556E0BB
:105A58003B681B785A013B69134403F510631B68C4
:105A680003F00043B3F1004FE7D048E03B681B78F0
:105A78005A013B69134403F530631B6803F0004384
:105A8800B3F1004F3BD13B681B785A013B69134483
:105A980003F530631B683A68127851013A690A4481
:105AA80002F5306243F0006313603B681B785A01CB
:105AB8003B69134403F530631B683A681278510157
:105AC8003A690A4402F5306243F080431360FB6888
