:020000040800F2
:100000000000022055730008ED0C0008F30C0008F6
:10001000F90C0008FF0C0008050D000800000000A6
:100020000000000000000000000000000B0D0008B0
:10003000190D000800000000270D0008350D00080C
:10004000A5730008A5730008A5730008A573000830
:10005000A5730008A5730008A5730008A573000820
:10006000A5730008A5730008A5730008A573000810
:10007000A5730008A5730008A5730008A573000800
:10008000A5730008A5730008A57300080000000010
:10009000000000000000000000000000A573000840
:1000A000A5730008A5730008A5730008A5730008D0
:1000B000A5730008A5730008A5730008A5730008C0
:1000C000A5730008A5730008A5730008A5730008B0
:1000D000A5730008A5730008A573000800000000C0
:1000E000A5730008A5730008A573000800000000B0
:1000F000000000000000000000000000A5730008E0
:1001000000000000A5730008A5730008A57300088F
:1001100000000000000000000000000000000000DF
:10012000A5730008A5730008A5730008A57300084F
:10013000A57300080000000000000000000000009F
:10014000000000000000000000000000410D000859
:10015000A5730008A5730008A5730008A57300081F
:10016000A5730008A573000800000000000000004F
:10017000000000000000000000000000000000007F
:1001800000000000A573000800000000000000004F
:08019000A5730008A573000827
:1001980070B54FF0FF0C4CF4E06C1CEA11541DBF15
:1001A8001CEA135594EA0C0F95EA0C0F00F0DEF8E0
:1001B8002C4481EA030621EA4C5123EA4C5350EAC5
:1001C800013518BF52EA033541F4801143F4801316
:1001D80038D0A0FB02CE4FF00005E1FB02E506F0A7
:1001E8000042E0FB03E54FF00006E1FB03569CF0FC
:1001F800000F18BF4EF0010EA4F1FF04B6F5007F02
:1002080064F5407404D25FEA4E0E6D4146EB060673
:1002180042EAC62141EA55514FEAC52040EA5E50FC
:100228004FEACE2EB4F1FD0C88BFBCF5E06F1ED8A6
:10023800BEF1004F08BF5FEA500E50F1000041EBDD
:10024800045170BD06F0004646EA010140EA02008A
:1002580081EA0301B4EB5C04C2BFD4EB0C0541EAAC
:10026800045170BD41F480114FF0000E013C00F3C1
:10027800AB8014F1360FDEBF002001F0004170BDE5
:10028800C4F10004203C35DA0C341BDC04F11404FE
:10029800C4F1200500FA05F320FA04F001FA05F28A
:1002A80040EA020001F0004221F0004110EBD37057
:1002B80021FA04F642EB06015EEA430E08BF20EA83
:1002C800D37070BDC4F10C04C4F1200500FA04F326
:1002D80020FA05F001FA04F240EA020001F00041B8
:1002E80010EBD37041F100015EEA430E08BF20EA2B
:1002F800D37070BDC4F1200500FA05F24EEA020E73
:1003080020FA04F301FA05F243EA020321FA04F0A1
:1003180001F0004121FA04F220EA020000EBD37058
:100328005EEA430E08BF20EAD37070BD94F0000F58
:100338000FD101F00046400041EB010111F4801F8C
:1003480008BF013CF7D041EA060195F0000F18BF3D
:10035800704703F00046520043EB030313F4801F79
:1003680008BF013DF7D043EA0603704794EA0C0F33
:100378000CEA135518BF95EA0C0F0CD050EA410649
:1003880018BF52EA4306D1D181EA030101F00041C6
:100398004FF0000070BD50EA410606BF10461946EE
:1003A80052EA430619D094EA0C0F02D150EA0136FA
:1003B80013D195EA0C0F05D152EA03361CBF10463B
:1003C80019460AD181EA030101F0004141F0FE41DA
:1003D80041F470014FF0000070BD41F0FE4141F45E
:1003E800780170BD81F0004102E000BF83F0004356
:1003F80030B54FEA41044FEA430594EA050F08BFB8
:1004080090EA020F1FBF54EA000C55EA020C7FEA7B
:10041800645C7FEA655C00F0E2804FEA5454D4EBF8
:100428005555B8BF6D420CDD2C4480EA020281EAC2
:10043800030382EA000083EA010180EA020281EAFA
:100448000303362D88BF30BD11F0004F4FEA01314C
:100458004FF4801C4CEA113102D0404261EB41015B
:1004680013F0004F4FEA03334CEA133302D05242E1
:1004780063EB430394EA050F00F0A780A4F101049D
:10048800D5F1200E0DDB02FA0EFC22FA05F28018D7
:1004980041F1000103FA0EF2801843FA05F35941BD
:1004A8000EE0A5F120050EF1200E012A03FA0EFC3C
:1004B80028BF4CF0020C43FA05F3C01851EBE37166
:1004C80001F0004507D54FF0000EDCF1000C7EEB83
:1004D80000006EEB0101B1F5801F1BD3B1F5001FC1
:1004E8000CD349085FEA30004FEA3C0C04F10104E0
:1004F8004FEA445212F5800F80F09A80BCF1004F09
:1005080008BF5FEA500C50F1000041EB045141EA8A
:10051800050130BD5FEA4C0C404141EB0101013C53
:1005280028BFB1F5801FE9D291F0000F04BF014642
:100538000020B1FA81F308BF2033A3F10B03B3F114
:1005480020020CDA0C3208DD02F1140CC2F10C02A4
:1005580001FA0CF021FA02F10CE002F11402D8BF02
:10056800C2F1200C01FA02F120FA0CFCDCBF41EACE
:100578000C019040E41AA2BF01EB0451294330BD9D
:100588006FEA04041F3C1CDA0C340EDC04F114047A
:10059800C4F1200220FA04F001FA02F340EA030051
:1005A80021FA04F345EA030130BDC4F10C04C4F197
:1005B800200220FA02F001FA04F340EA0300294677
:1005C80030BD21FA04F0294630BD94F0000F83F4C1
:1005D800801306BF81F480110134013D4EE77FEAA4
:1005E800645C18BF7FEA655C29D094EA050F08BFF0
:1005F80090EA020F05D054EA000C04BF19461046D1
:1006080030BD91EA030F1EBF0021002030BD5FEA14
:10061800545C05D14000494128BF41F0004130BD3C
:1006280014F580043CBF01F5801130BD01F0004590
:1006380045F0FE4141F470014FF0000030BD7FEA03
:10064800645C1ABF194610467FEA655C1CBF0B46FE
:10065800024650EA013406BF52EA033591EA030F15
:1006680041F4002130BD00BF90F0000F04BF00210D
:10067800704730B54FF4806404F132044FF0000540
:100688004FF0000150E700BF90F0000F04BF0021B9
:10069800704730B54FF4806404F1320410F000451F
:1006A80048BF40424FF000013EE700BF42004FEA1A
:1006B800E2014FEA31014FEA02701FBF12F07F4397
:1006C80093F07F4F81F06051704732F07F4208BF4E
:1006D800704793F07F4F04BF41F40021704730B555
:1006E8004FF4607401F0004521F000411CE700BFA1
:1006F80050EA010208BF704730B54FF000050AE024
:1007080050EA010208BF704730B511F0004502D524
:10071800404261EB41014FF4806404F132045FEA26
:10072800915C3FF4D8AE4FF003025FEADC0C18BFCF
:1007380003325FEADC0C18BF033202EBDC02C2F1C1
:10074800200300FA03FC20FA02F001FA03FE40EA53
:100758000E0021FA02F11444BDE600BF4FEA41023F
:1007680012F5001215D211D56FF47873B3EB6252FB
:1007780012D94FEAC12343F0004343EA505311F022
:10078800004F23FA02F018BF404270474FF00000B4
:10079800704750EA013005D111F0004008BF6FF0F2
:1007A800004070474FF00000704700BF53B94AB986
:1007B800002908BF00281CBF4FF0FF314FF0FF3061
:1007C80000F00CB8ADF1080C6DE904CE06F014FE8B
:1007D800DDF804E0DDE9022304B07047704700BF8C
:1007E8000348044B834202D0034B03B118477047B8
:1007F800FC000020FC000020000000000548064B1B
:100808001B1AD90F01EBA301491002D0034B03B106
:1008180018477047FC000020FC0000200000000082
:1008280010B5064C237843B9FFF7DAFF044B13B130
:100838000448AFF300800123237010BDFC000020A2
:1008480000000000C876000808B5054B1BB1054933
:100858000548AFF30080BDE80840FFF7CFBF00BFF1
:100868000000000000010020C87600080000000019
:1008780080B594B000AF544BBB640023FB644FF0C9
:1008880000037B6402233B6401F080F900F0A2F8C6
:1008980000F008F901F022FA00224FF400414B4819
:1008A80000F0F2F90346002B1CD001221021484821
:1008B80001F040F80023FB6400233B64782001F03A
:1008C800D7F900221021424801F034F800BF08216E
:1008D8003F4801F017F80346002BF8D002E0FB6C04
:1008E8000133FB6408213A4801F00CF80346002B59
:1008F800F5D1F86CFFF7C8FE2FA3D3E90023FFF763
:1009080047FC02460B46104619462DA3D3E900239F
:10091800FFF76EFD02460B4610461946FFF71EFF0D
:1009280003463B643B6C022B09D03B6C022BB3DCC7
:100938003B6C002B29D03B6C012B13D038E00122F3
:100948004FF48041214800F0F5FF00224FF4805118
:100958001E4800F0EFFF00224FF400511B4800F042
:10096800E9FF25E000224FF48051184800F0E2FF2B
:1009780001224FF40051154800F0DCFF01224FF42A
:100988008041124800F0D6FF12E001224FF4805156
:100998000E4800F0CFFF01224FF400510B4800F041
:1009A800C9FF01224FF48041084800F0C3FF00BF8F
:1009B80072E700BFAFF300805BED612F14B03D3FDD
:1009C8007FFB3A70CE88923F3333094200040240DD
:1009D8000000024080B594B000AF07F12003302238
:1009E8000021184606F0DBFC07F10C0300221A6010
:1009F8005A609A60DA601A610023BB60274B1B6C4F
:100A0800264A43F080531364244B1B6C03F0805335
:100A1800BB60BB6800237B60214B1B68204A43F402
:100A2800404313601E4B1B6803F440437B607B68A4
:100A380001233B624FF480337B620223BB634FF494
:100A48008003FB6319233B64C0237B640223BB64DC
:100A58000423FB6407F12003184600F09FF90346BE
:100A6800002B01D000F0C4F80F23FB6002233B6188
:100A780000237B614FF48053BB610023FB6107F1C6
:100A88000C030321184600F001FC0346002B01D09B
:100A980000F0AEF800BF5037BD4680BD00380240B8
:100AA8000070004080B58AB000AF07F1140300223F
:100AB8001A605A609A60DA601A6100233B61484BF9
:100AC8001B6B474A43F004031363454B1B6B03F04E
:100AD80004033B613B690023FB60414B1B6B404AAD
:100AE80043F0800313633E4B1B6B03F08003FB60F2
:100AF800FB680023BB603A4B1B6B394A43F0010388
:100B08001363374B1B6B03F00103BB60BB68002307
:100B18007B60334B1B6B324A43F002031363304B49
:100B28001B6B03F002037B607B6800224FF40051CB
:100B38002C4800F0FFFE0022D0212B4800F0FAFEDE
:100B480000224FF4E041294800F0F4FE4FF400532E
:100B58007B610123BB610023FB6100233B6207F13A
:100B6800140319461F4800F049FD08237B61002340
:100B7800BB610023FB6107F1140319461A4800F012
:100B88003DFDD0237B610123BB610023FB61002372
:100B98003B6207F114031946134800F02FFD4FF488
:100BA800E0437B610123BB610023FB6100233B62BF
:100BB80007F1140319460D4800F020FD4FF40043D7
:100BC8007B610023BB610023FB6107F11403194615
:100BD800064800F013FD00BF2837BD4680BD00BFA2
:100BE80000380240000802400000024000040240B1
:100BF80080B400AF72B600BFFEE780B586B000AF24
:100C080078600B467B8013463B800523FB600023FE
:100C1800FB740023BB7400233B8200237B6118E034
:100C28007B881946786800F06DFE0346002B05D0D6
:100C3800FB7C0133FB740023BB7404E0BB7C0133F1
:100C4800BB740023FB74012001F012F87B690133A7
:100C58007B617A69FB689A42E2D33B88002B07D014
:100C6800FA7CFB685B089A4209D9FF233B8206E0BD
:100C7800BA7CFB685B089A4201D9FF233B823B8A16
:100C880018461837BD4680BD80B582B000AF786081
:100C98000B467B8013463B803A887B8819467868E8
:100CA800FFF7ABFF0346002B17D03B88002B09D07A
:100CB80000BF7B881946786800F024FE0346002BA5
:100CC800F7D108E000BF7B881946786800F01AFE63
:100CD8000346002BF7D0FF2300E00023184608370F
:100CE800BD4680BD80B400AFFEE780B400AFFEE72C
:100CF80080B400AFFEE780B400AFFEE780B400AF79
:100D0800FEE780B400AF00BFBD465DF8047B7047C6
:100D180080B400AF00BFBD465DF8047B704780B467
:100D280000AF00BFBD465DF8047B704780B500AFDB
:100D380000F07EFF00BF80BD80B500AF024801F023
:100D480007FE00BF80BD00BFF815002080B483B047
:100D580000AF00237B60104B5B6C0F4A43F4804369
:100D680053640D4B5B6C03F480437B607B6800230A
:100D78003B60094B1B6C084A43F080531364064BD5
:100D88001B6C03F080533B603B6800BF0C37BD46CB
:100D98005DF8047B704700BF0038024080B586B01C
:100DA80000AF78607B68002B01D1012367E27B6884
:100DB8001B6803F00103002B75D0884B9B6803F078
:100DC8000C03042B0CD0854B9B6803F00C03082BF9
:100DD80012D1824B5B6803F48003B3F5800F0BD10B
:100DE8007E4B1B6803F40033002B5BD07B685B6889
:100DF800002B57D1012342E27B685B68B3F5803F43
:100E080006D1764B1B68754A43F4803313601DE0A6
:100E18007B685B68B3F5A02F0CD1704B1B686F4AD9
:100E280043F4802313606D4B1B686C4A43F4803392
:100E380013600BE0694B1B68684A23F48033136026
:100E4800664B1B68654A23F4802313607B685B68E4
:100E5800002B13D000F000FF386108E000F0FCFE22
:100E680002463B69D31A642B01D9032307E25B4B83
:100E78001B6803F40033002BF0D014E000F0ECFE04
:100E8800386108E000F0E8FE02463B69D31A642B9B
:100E980001D90323F3E1514B1B6803F40033002B02
:100EA800F0D100E000BF7B681B6803F00203002B51
:100EB80063D04A4B9B6803F00C03002B0BD0474BC5
:100EC8009B6803F00C03082B1CD1444B5B6803F4AC
:100ED8008003002B16D1414B1B6803F00203002B43
:100EE80005D07B68DB68012B01D00123C7E13B4BB0
:100EF8001B6823F0F8027B681B69DB003749134342
:100F08000B603AE07B68DB68002B20D0344B012271
:100F18001A6000F0A1FE386108E000F09DFE02466C
:100F28003B69D31A022B01D90323A8E12B4B1B6879
:100F380003F00203002BF0D0284B1B6823F0F802C3
:100F48007B681B69DB00254913430B6015E0244BC4
:100F580000221A6000F080FE386108E000F07CFE94
:100F680002463B69D31A022B01D9032387E11B4BA5
:100F78001B6803F00203002BF0D17B681B6803F0A9
:100F88000803002B36D07B685B69002B16D0154B05
:100F980001221A6000F060FE386108E000F05CFE93
:100FA80002463B69D31A022B01D9032367E10B4B95
:100FB8005B6F03F00203002BF0D01BE0094B00220B
:100FC8001A6000F049FE38610EE000F045FE024666
:100FD8003B69D31A022B07D9032350E1003802409A
:100FE80000004742800E4742884B5B6F03F00203C4
:100FF800002BEAD17B681B6803F00403002B00F088
:1010080097800023FB75814B1B6C03F08053002BEA
:101018000FD10023BB607D4B1B6C7C4A43F080538F
:1010280013647A4B1B6C03F08053BB60BB680123CD
:10103800FB75774B1B6803F48073002B18D1744B36
:101048001B68734A43F48073136000F005FE38612F
:1010580008E000F001FE02463B69D31A022B01D9D1
:1010680003230CE16A4B1B6803F48073002BF0D058
:101078007B689B68012B06D1644B1B6F634A43F066
:10108800010313671CE07B689B68052B0CD15F4B41
:101098001B6F5E4A43F0040313675C4B1B6F5B4A8C
:1010A80043F0010313670BE0584B1B6F574A23F0BB
:1010B80001031367554B1B6F544A23F0040313674E
:1010C8007B689B68002B15D000F0C6FD38610AE0EC
:1010D80000F0C2FD02463B69D31A41F288329342BE
:1010E80001D90323CBE0494B1B6F03F00203002B0C
:1010F800EED014E000F0B0FD38610AE000F0ACFD7D
:1011080002463B69D31A41F28832934201D903233C
:10111800B5E03E4B1B6F03F00203002BEED1FB7DC5
:10112800012B05D1394B1B6C384A23F080531364CB
:101138007B689B69002B00F0A180344B9B6803F00F
:101148000C03082B5CD07B689B69022B41D1314B87
:1011580000221A6000F080FD386108E000F07CFD94
:1011680002463B69D31A022B01D9032387E0274B98
:101178001B6803F00073002BF0D17B68DA697B6889
:101188001B6A1A437B685B6A9B011A437B689B6AEC
:101198005B08013B1B041A437B68DB6A1B061B497F
:1011A80013434B601B4B01221A6000F055FD386158
:1011B80008E000F051FD02463B69D31A022B01D921
:1011C80003235CE0114B1B6803F00073002BF0D085
:1011D80054E0104B00221A6000F03EFD386108E030
:1011E80000F03AFD02463B69D31A022B01D90323CA
:1011F80045E0064B1B6803F00073002BF0D13DE07F
:101208007B689B69012B07D1012338E00038024035
:1012180000700040600047421B4B5B68FB607B68C6
:101228009B69012B28D0FB6803F480027B68DB698B
:101238009A4221D1FB6803F03F027B681B6A9A42FD
:101248001AD1FA6847F6C07313407A68526A920155
:10125800934211D1FB6803F440327B689B6A5B08B8
:10126800013B1B049A4207D1FB6803F070627B685C
:10127800DB6A1B069A4201D0012300E000231846CE
:101288001837BD4680BD00BF0038024080B584B025
:1012980000AF786039607B68002B01D10123CCE076
:1012A800684B1B6803F007033A689A420CD9654BF0
:1012B8003A68D2B21A70634B1B6803F007033A68A6
:1012C8009A4201D00123B8E07B681B6803F002034F
:1012D800002B20D07B681B6803F00403002B05D08B
:1012E800594B9B68584A43F4E05393607B681B68EA
:1012F80003F00803002B05D0534B9B68524A43F474
:1013080060439360504B9B6823F0F0027B689B68B6
:101318004D4913438B607B681B6803F00103002B66
:1013280044D07B685B68012B07D1474B1B6803F4EB
:101338000033002B19D101237FE07B685B68022B07
:1013480003D07B685B68032B07D13F4B1B6803F016
:101358000073002B09D101236FE03B4B1B6803F09E
:101368000203002B01D1012367E0374B9B6823F070
:1013780003027B685B68344913438B6000F06CFCA4
:10138800F8600AE000F068FC0246FB68D31A41F2F4
:101398008832934201D903234FE02B4B9B6803F01B
:1013A8000C027B685B689B009A42EBD1254B1B685B
:1013B80003F007033A689A420CD2224B3A68D2B239
:1013C8001A70204B1B6803F007033A689A4201D051
:1013D800012332E07B681B6803F00403002B08D06C
:1013E800194B9B6823F4E0527B68DB68164913436A
:1013F8008B607B681B6803F00803002B09D0124B35
:101408009B6823F460427B681B69DB000E49134329
:101418008B6000F021F802460B4B9B681B0903F018
:101428000F030A49CB5C22FA03F3094A1360094BFC
:101438001B68184600F0CCFB002318461037BD4641
:1014480080BD00BF003C02400038024028770008F9
:1014580008000020000000202DE9B04F90B000AF38
:1014680000237B630023FB6300233B630023BB63F0
:10147800594B9B6803F00C03082B0DD0082B00F286
:10148800A180002B02D0042B03D09BE0534BBB63FD
:101498009BE0534BBB6398E04F4B5B6803F03F0303
:1014A8007B634D4B5B6803F48003002B28D04A4BC9
:1014B8005B689B0900223B627A623B6AC3F30800BF
:1014C8000021474B03FB01F2002300FB03F3134405
:1014D800434AA0FB0212FA620A46BA62FA6A134445
:1014E800FB627B6B0022BB61FA61D7E90623D7E96F
:1014F8000A01FFF75BF902460B461346FB6353E00C
:10150800354B5B689B0900223B617A613B69C3F3F9
:10151800080A4FF0000B52465B464FF000004FF0B0
:101528000001590141EAD261500102460B46B2EB73
:101538000A0863EB0B094FF000024FF000034FEA73
:10154800891343EA98634FEA8812B2EB080463EB05
:1015580009054FF000024FF00003EB0043EA547313
:10156800E20014461D4614EB0A033B6045EB0B03EF
:101578007B604FF000024FF00003D7E90045294691
:101588008B02214643EA915321468A0210461946A6
:101598007B6B0022BB60FA60D7E90223FFF706F9EC
:1015A80002460B461346FB630B4B5B681B0C03F0B0
:1015B800030301335B003B63FA6B3B6BB2FBF3F352
:1015C800BB6302E0054BBB6300BFBB6B18464037EB
:1015D800BD46BDE8B08F00BF003802400024F400CB
:1015E80040787D0180B400AF034B1B681846BD46A8
:1015F8005DF8047B704700BF0800002080B489B004
:1016080000AF7860396000237B6100233B610023D1
:10161800BB610023FB6159E10122FB6902FA03F374
:101628007B613B681B687A6913403B613A697B6957
:101638009A4240F048813B685B6803F00303012B42
:1016480005D03B685B6803F00303022B30D17B684D
:101658009B68BB61FB695B00032202FA03F3DB436F
:10166800BA691340BB613B68DA68FB695B0002FA40
:1016780003F3BA691343BB617B68BA699A607B68F4
:101688005B68BB610122FB6902FA03F3DB43BA69B9
:101698001340BB613B685B681B0903F00102FB69EF
:1016A80002FA03F3BA691343BB617B68BA695A60EB
:1016B8003B685B6803F00303032B17D07B68DB6888
:1016C800BB61FB695B00032202FA03F3DB43BA69DF
:1016D8001340BB613B689A68FB695B0002FA03F33D
:1016E800BA691343BB617B68BA69DA603B685B68B7
:1016F80003F00303022B23D1FB69DA087B68083265
:1017080053F82230BB61FB6903F007039B000F22EB
:1017180002FA03F3DB43BA691340BB613B681A69F9
:10172800FB6903F007039B0002FA03F3BA6913434A
:10173800BB61FB69DA087B680832B96943F8221093
:101748007B681B68BB61FB695B00032202FA03F339
:10175800DB43BA691340BB613B685B6803F0030273
:10176800FB695B0002FA03F3BA691343BB617B6848
:10177800BA691A603B685B6803F44033002B00F0D9
:10178800A2800023FB60574B5B6C564A43F48043AE
:101798005364544B5B6C03F48043FB60FB68524A10
:1017A800FB699B08023352F82330BB61FB6903F0E5
:1017B80003039B000F2202FA03F3DB43BA691340C9
:1017C800BB617B68494A934219D07B68484A934277
:1017D80013D07B68474A93420DD07B68464A9342B0
:1017E80007D07B68454A934201D1042308E00723C8
:1017F80006E0032304E0022302E0012300E00023C3
:10180800FA6902F0030292009340BA691343BB617C
:101818003549FB699B080233BA6941F82320384BE4
:101828009B68BB613B69DB43BA691340BB613B689A
:101838005B6803F48013002B03D0BA693B69134338
:10184800BB612F4ABB6993602D4BDB68BB613B6969
:10185800DB43BA691340BB613B685B6803F4001360
:10186800002B03D0BA693B691343BB61244ABB69A7
:10187800D360234B5B68BB613B69DB43BA691340A8
:10188800BB613B685B6803F40033002B03D0BA6983
:101898003B691343BB611A4ABB695360184B1B6809
:1018A800BB613B69DB43BA691340BB613B685B685A
:1018B80003F48033002B03D0BA693B691343BB613F
:1018C8000F4ABB691360FB690133FB61FB690F2B8E
:1018D8007FF6A2AE00BF00BF2437BD465DF8047B8B
:1018E800704700BF00380240003801400000024045
:1018F8000004024000080240000C024000100240B0
:10190800003C014080B485B000AF78600B467B8016
:101918007B681A697B881340002B02D00123FB7374
:1019280001E00023FB73FB7B18461437BD465DF8C6
:10193800047B704780B483B000AF78600B467B802F
:1019480013467B707B78002B03D07A887B689A617A
:1019580003E07B881A047B689A6100BF0C37BD4698
:101968005DF8047B7047000080B485B000AF7860F4
:101978007B6803F00703FB600C4BDB68BB60BA684D
:101988004FF6FF031340BB60FB681A02BB681343A2
:1019980043F0BF6343F40033BB60044ABB68D360C1
:1019A80000BF1437BD465DF8047B704700ED00E0CA
:1019B80080B400AF044BDB681B0A03F0070318462A
:1019C800BD465DF8047B704700ED00E080B483B04D
:1019D80000AF0346FB7197F90730002B0BDBFB794F
:1019E80003F01F02074997F907305B09012000FA45
:1019F80002F241F8232000BF0C37BD465DF8047B96
:101A0800704700BF00E100E080B483B000AF034638
:101A18003960FB7197F90730002B0ADB3B68DAB2B3
:101A28000C4997F907301201D2B20B4483F800230E
:101A38000AE03B68DAB20849FB7903F00F03043B7C
:101A48001201D2B20B441A7600BF0C37BD465DF8BE
:101A5800047B704700E100E000ED00E080B489B04D
:101A680000AFF860B9607A60FB6803F00703FB61B8
:101A7800FB69C3F10703042B28BF0423BB61FB697F
:101A88000433062B02D9FB69033B00E000237B618A
:101A98004FF0FF32BB6902FA03F3DA43BB681A401E
:101AA8007B699A404FF0FF317B6901FA03F3D94310
:101AB8007B680B40134318462437BD465DF8047B0A
:101AC8007047000080B582B000AF78607B68013B4A
:101AD800B3F1807F01D301230FE00A4A7B68013B01
:101AE80053600F214FF0FF30FFF78EFF054B0022A8
:101AF8009A60044B07221A60002318460837BD462F
:101B080080BD00BF10E000E080B582B000AF786013
:101B18007868FFF729FF00BF0837BD4680BD80B54C
:101B280086B000AF0346B9607A60FB7300237B611F
:101B3800FFF73EFF78617A68B9687869FFF78EFF2A
:101B4800024697F90F3011461846FFF75DFF00BFB0
:101B58001837BD4680BD80B582B000AF0346FB7123
:101B680097F907301846FFF731FF00BF0837BD4621
:101B780080BD80B582B000AF78607868FFF7A2FFBB
:101B8800034618460837BD4680BD000080B500AF43
:101B98000E4B1B680D4A43F4007313600B4B1B6814
:101BA8000A4A43F480631360084B1B68074A43F4EE
:101BB800807313600320FFF7A7FF0F2000F008F8D9
:101BC800FFF7C4F80023184680BD00BF003C024060
:101BD80080B582B000AF7860124B1A68124B1B7840
:101BE80019464FF47A73B3FBF1F3B2FBF3F31846DB
:101BF800FFF7BFFF0346002B01D001230EE07B68EF
:101C08000F2B0AD8002279684FF0FF30FFF787FFC3
:101C1800064A7B681360002300E001231846083752
:101C2800BD4680BD08000020040000200000002000
:101C380080B400AF064B1B781A46064B1B6813444A
:101C4800044A136000BFBD465DF8047B704700BFBF
:101C5800040000201801002080B400AF034B1B686B
:101C68001846BD465DF8047B704700BF1801002088
:101C780080B584B000AF7860FFF7EEFFB8607B688E
:101C8800FB60FB68B3F1FF3F05D00A4B1B781A468F
:101C9800FB681344FB6000BFFFF7DEFF0246BB682A
:101CA800D31AFA689A42F7D800BF00BF1037BD466A
:101CB80080BD00BF0400002080B400AF064BD3F8FD
:101CC8008830054A43F47003C2F8883000BFBD4627
:101CD8005DF8047B704700BF00ED00E080B500AF01
:101CE80000221249124803F0AFFB0346002B01D033
:101CF800FEF77EFF0F490E4803F0D6FB0346002B84
:101D080001D0FEF775FF0C49094805F08FFA034624
:101D1800002B01D0FEF76CFF054803F0FBFB0346E0
:101D2800002B01D0FEF764FF00BF80BD0C0000202F
:101D38001C0100207C0000205C00002080B483B0DF
:101D480000AF03463960FB713B6812221A80034BCF
:101D580018460C37BD465DF8047B70472800002004
:101D680080B483B000AF03463960FB713B6804223E
:101D78001A80034B18460C37BD465DF8047B704744
:101D88003C00002080B582B000AF03463960FB718B
:101D9800FB79002B05D13A680749084804F066FD2D
:101DA80004E03A680449054804F060FD024B18460F
:101DB8000837BD4680BD00BFF8030020E076000864
:101DC80080B582B000AF03463960FB713A680449B8
:101DD800044804F04BFD024B18460837BD4680BD49
:101DE800F8030020F876000880B582B000AF0346FB
:101DF8003960FB713B681A221A8000F043F8024BE5
:101E080018460837BD4680BD4000002080B582B026
:101E180000AF03463960FB71FB79002B05D13A68A6
:101E28000749084804F022FD04E03A6804490548D7
:101E380004F01CFD024B18460837BD4680BD00BFA4
:101E4800F80300200C77000880B582B000AF034685
:101E58003960FB71FB79002B05D13A6807490848BE
:101E680004F004FD04E03A680449054804F0FEFC67
:101E7800024B18460837BD4680BD00BFF803002056
:101E88001877000880B584B000AF0F4B1B68FB6063
:101E98000E4B1B68BB600E4B1B687B60FA687B6847
:101EA8001344FB60FB68002B09D008220949F86835
:101EB80000F014F804220849B86800F00FF800BFD1
:101EC8001037BD4680BD00BF107AFF1F147AFF1F70
:101ED800187AFF1F420000205200002080B487B00B
:101EE80000AFF860B9601346FB710023FB7500234F
:101EF800FB7527E0FB681B0F092B0BD8FB681B0F32
:101F0800DAB2FB7D5B001946BB680B443032D2B2B3
:101F18001A700AE0FB681B0FDAB2FB7D5B001946FA
:101F2800BB680B443732D2B21A70FB681B01FB60E6
:101F3800FB7D5B000133BA68134400221A70FB7DF5
:101F48000133FB75FA7DFB799A42D3D300BF00BFFA
:101F58001C37BD465DF8047B7047000080B500AFB4
:101F680000220549054805F07BF90549034805F0B5
:101F780099F90023184680BDF80D00201C010020A7
:101F8800F805002080B400AF00231846BD465DF870
:101F9800047B704780B483B000AF03463960FB719F
:101FA8001346BB80FB79232B4AD801A252F823F0B1
:101FB8004920000849200008492000084920000855
:101FC8004920000849200008492000084920000845
:101FD8004920000849200008492000084920000835
:101FE8004920000849200008492000084920000825
:101FF8004920000849200008492000084920000815
:102008004920000849200008492000084920000804
:1020180049200008492000084920000849200008F4
:1020280049200008492000084920000849200008E4
:1020380049200008492000084920000849200008D4
:1020480000BF002318460C37BD465DF8047B704777
:1020580080B582B000AF786039607968054805F0CE
:1020680021F9044805F03CF9002318460837BD4615
:1020780080BD00BF1C01002080B487B000AFF860AD
:10208800B9601346FB710023FB7597F917301846A2
:102098001C37BD465DF8047B7047000080B58AB0E8
:1020A80000AF786007F1140300221A605A609A6042
:1020B800DA601A617B681B68B3F1A04F3AD100233C
:1020C8003B611E4B1B6B1D4A43F0010313631B4B03
:1020D8001B6B03F001033B613B694FF4C0537B6109
:1020E8000223BB610023FB6103233B620A237B625B
:1020F80007F1140319461248FFF780FA0F4B5B6B80
:102108000E4A43F0800353630023FB600B4B5B6C68
:102118000A4A43F480435364084B5B6C03F48043DE
:10212800FB60FB68002200214320FFF7F8FC4320F6
:10213800FFF711FD00BF2837BD4680BD00380240BB
:102148000000024080B582B000AF78607B68D3F8A9
:1021580008257B6803F2C4431946104603F027FAA2
:1021680000BF0837BD4680BD80B582B000AF78603B
:102178000B46FB707B68D3F80805FA787968134634
:10218800DB0013449B000B4403F523731A68FB78A8
:10219800194603F061FA00BF0837BD4680BD80B517
:1021A80082B000AF78600B46FB707B68D3F80805F7
:1021B800FA7879681346DB0013449B000B444C33D0
:1021C8001A68FB78194603F0FAFA00BF0837BD46CB
:1021D80080BD80B582B000AF78607B68D3F80835E1
:1021E800184603F02EFC00BF0837BD4680BD80B5F9
:1021F80084B000AF78600123FB737B68DB68022B37
:1022080001D0FEF7F5FC7B68D3F80835FA7B114658
:10221800184603F0D8FB7B68D3F80835184603F056
:1022280080FB00BF1037BD4680BD000080B582B07E
:1022380000AF78607B68D3F80835184603F0D3FB05
:102248007B681B6803F560631B687A68126802F58F
:10225800606243F0010313607B681B6A002B05D0A2
:10226800044B1B69034A43F00603136100BF083798
:10227800BD4680BD00ED00E080B582B000AF78605B
:102288007B68D3F80835184603F0C3FB00BF08374E
:10229800BD4680BD80B582B000AF78600B46FB704C
:1022A8007B68D3F80835FA781146184603F01BFC0A
:1022B80000BF0837BD4680BD80B582B000AF7860EA
:1022C8000B46FB707B68D3F80835FA781146184638
:1022D80003F0D7FB00BF0837BD4680BD80B582B08C
:1022E80000AF78607B68D3F80835184603F02DFCFA
:1022F80000BF0837BD4680BD80B582B000AF7860AA
:102308007B68D3F80835184603F02AFC00BF083765
:10231800BD4680BD80B582B000AF78607B681B7811
:10232800002B3CD1204A7B68C2F808357B681E4ADE
:10233800C3F8C8221C4B4FF0A0421A601A4B042263
:102348005A60194B0222DA60174B00221A61164BA9
:1023580002229A61144B0022DA61134B00221A629E
:10236800114B00225A62104B0022DA620E4B0022F7
:102378001A630D4800F09CF90346002B01D0FEF7C4
:1023880037FC8021084801F0F4FB40220021064870
:1023980001F0A8FB80220121034801F0A3FB0023E0
:1023A80018460837BD4680BDF815002080B584B0B2
:1023B80000AF78600023FB730023BB737B68D3F8FE
:1023C800C832184600F091FA0346FB73FB7B1846A7
:1023D80000F042F90346BB73BB7B18461037BD4675
:1023E80080BD80B584B000AF7860084611461A46B3
:1023F8000346FB700B46BB7013463B800023FB7300
:102408000023BB737B68D3F8C802BB783A88F97895
:1024180000F062FF0346FB73FB7B184600F01CF9D3
:102428000346BB73BB7B18461037BD4680BD80B5DD
:1024380084B000AF78600B46FB700023FB73002369
:10244800BB737B68D3F8C832FA781146184600F097
:10245800ABFF0346FB73FB7B184600F0FDF8034611
:10246800BB73BB7B18461037BD4680BD80B584B0B2
:1024780000AF78600B46FB700023FB730023BB732F
:102488007B68D3F8C832FA781146184601F083F809
:102498000346FB73FB7B184600F0DEF80346BB736C
:1024A800BB7B18461037BD4680BD80B584B000AFF1
:1024B80078600B46FB700023FB730023BB737B68BB
:1024C800D3F8C832FA781146184601F0C8F803461E
:1024D800FB73FB7B184600F0BFF80346BB73BB7B5E
:1024E80018461037BD4680BD80B485B000AF78600F
:1024F8000B46FB707B68D3F8C832FB6097F9033052
:10250800002B0BDAFB7803F07F02F9681346DB0037
:1025180013449B000B443E331B780BE0FB7803F01D
:102528007F02F9681346DB0013449B000B4403F257
:102538007E231B7818461437BD465DF8047B704728
:1025480080B584B000AF78600B46FB700023FB7346
:102558000023BB737B68D3F8C832FA781146184653
:1025680000F095FE0346FB73FB7B184600F074F8F9
:102578000346BB73BB7B18461037BD4680BD80B58C
:1025880086B000AFF8607A603B600B46FB720023B0
:10259800FB750023BB75FB68D3F8C802F97A3B6862
:1025A8007A6800F0AEFF0346FB75FB7D184600F025
:1025B80053F80346BB75BB7D18461837BD4680BD2A
:1025C80080B586B000AFF8607A603B600B46FB725E
:1025D8000023FB750023BB75FB68D3F8C802F97AA2
:1025E8003B687A6800F02AFF0346FB75FB7D1846B6
:1025F80000F032F80346BB75BB7D18461837BD4658
:1026080080BD80B582B000AF78600B46FB707B68F8
:10261800D3F8C832FA781146184600F05AFF034634
:1026280018460837BD4680BD80B483B000AF7860D7
:10263800034B18460C37BD465DF8047B704700BF56
:10264800041B002080B483B000AF786000BF0C3753
:10265800BD465DF8047B704780B485B000AF034683
:10266800FB710023FB73FB79032B17D801A252F8E7
:1026780023F000BF8D26000893260008992600083D
:102688009F2600080023FB730BE00323FB7308E07D
:102698000123FB7305E00323FB7302E00323FB73B1
:1026A80000BFFB7B18461437BD465DF8047B7047B6
:1026B800F0B58FB00AAF78607B68002B01D1012399
:1026C8000FE17B681B68BB607B6893F8BD34DBB2A5
:1026D800002B06D17B68002283F8BC247868FFF7BA
:1026E800DDFC7B68032283F8BD24BB68DB6B03F445
:1026F8008073002B02D17B6800221A617B681B68FB
:10270800184601F068FB7B681B683B607E686D4675
:1027180006F110040FCC0FC50FCC0FC594E80300C9
:1027280085E80300331D0ECB386801F03FFA0346F5
:10273800002B05D07B68022283F8BD240123D0E05A
:102748007B681B680021184601F056FB0023FB73C9
:102758004AE0FA7B79681346DB0013449B000B447C
:102768003D3301221A70FA7B79681346DB00134463
:102778009B000B443C33FA7B1A70FA7BFB7B98B2C4
:1027880079681346DB0013449B000B44443302462C
:102798001A80FA7B79681346DB0013449B000B44CC
:1027A800403300221A70FA7B79681346DB00134421
:1027B8009B000B44483300221A60FA7B7968134661
:1027C800DB0013449B000B444C3300221A60FA7B55
:1027D80079681346DB0013449B000B4454330022F2
:1027E8001A60FB7B0133FB73FA7B7B685B689A4258
:1027F800AFD30023FB7344E0FA7B79681346DB0010
:1028080013449B000B4403F27D2300221A70FA7BC9
:1028180079681346DB0013449B000B4403F51F73D0
:10282800FA7B1A70FA7B79681346DB0013449B0025
:102838000B4403F5207300221A70FA7B796813465B
:10284800DB0013449B000B4403F5227300221A603B
:10285800FA7B79681346DB0013449B000B4403F5AD
:10286800237300221A60FA7B79681346DB0013444D
:102878009B000B4403F5257300221A60FB7B013390
:10288800FB73FA7B7B685B689A42B5D37B681B68ED
:102898003B607E686D4606F110040FCC0FC50FCC67
:1028A8000FC594E8030085E80300331D0ECB386894
:1028B80001F0EEFA0346002B05D07B68022283F86C
:1028C800BD2401230DE07B68002283F838207B6853
:1028D800012283F8BD247B681B68184602F03DFC82
:1028E800002318461437BD46F0BD80B584B000AF4C
:1028F80078607B681B68FB607B6893F8BC34012BAD
:1029080001D1022320E07B68012283F8BC247B6884
:102918009B6A012B09D17B689B69012B05D0FB6859
:102928009B6B43F48032FB689A637B681B6818468C
:1029380001F040FA7B681B68184602F0EDFB7B68E3
:10294800002283F8BC24002318461037BD4680BDFA
:1029580090B58DB000AF78607B681B683B623B6ABE
:10296800FB617B681B68184602F0ABFC0346002B32
:1029780040F08A847B681B68184602F00FFC034607
:10298800002B00F08084FB6903F500639B681B0A39
:10299800C3F30D027B68C3F8FC247B681B681846E8
:1029A80002F0FCFB034603F00203022B07D17B680D
:1029B8001B685A697B681B6802F002025A617B68CF
:1029C8001B68184602F0EAFB034603F01003102BBD
:1029D80061D17B681B689A697B681B6822F01002CA
:1029E8009A613B6A1B6ABB61BB6903F00F0213461D
:1029F800DB0013449B0003F51E737A681344043309
:102A08007B61BB695B0C03F00F03022B24D1BA690D
:102A180047F6F0731340002B35D07B691969BB6901
:102A28001B099BB2C3F30A039BB21A46386A02F029
:102A380021FA7B691A69BB691B09C3F30A031A44A3
:102A48007B691A617B691A6ABB691B09C3F30A03AC
:102A58001A447B691A6216E0BB695B0C03F00F032A
:102A6800062B10D17B6803F2C44308221946386A42
:102A780002F000FA7B691A6ABB691B09C3F30A03EF
:102A88001A447B691A627B681B689A697B681B68B1
:102A980042F010029A617B681B68184602F07EFBC0
:102AA800034603F40023B3F5002F40F0A78000236A
:102AB8007B627B681B68184602F083FBB86299E06A
:102AC800BB6A03F00103002B00F08E807B681B6853
:102AD8007A6AD2B21146184602F0A7FB38613B6900
:102AE80003F00103002B0CD07B6A5A01FB691344E5
:102AF80003F530631A4601239360796A786800F019
:102B0800C3FE3B6903F00803002B0CD07B6A5A0113
:102B1800FB69134403F530631A4608239360796A06
:102B2800786800F099FF3B6903F01003002B08D088
:102B38007B6A5A01FB69134403F530631A46102374
:102B480093603B6903F00203002B30D03B6A5B695A
:102B580003F08003802B09D1FB6903F500635B68F0
:102B6800FA6902F5006243F4806353607A6A134697
:102B7800DB0013449B0003F51E737A681344043387
:102B88007B617B69DB78012B08D17B690022DA70D5
:102B98007B6ADBB219467868FFF77CFB7B6A5A01CF
:102BA800FB69134403F530631A46022393603B69BB
:102BB80003F02003002B08D07B6A5A01FB691344F9
:102BC80003F530631A46202393603B6903F40053EE
:102BD800002B09D07B6A5A01FB69134403F5306363
:102BE8001A464FF4005393607B6A01337B62BB6AD9
:102BF8005B08BB62BB6A002B7FF462AF7B681B6813
:102C0800184602F0CBFA034603F48023B3F5802F6D
:102C180040F0DB807B681B68184602F0ECFAB8626B
:102C280000237B62CDE0BB6A03F00103002B00F0B8
:102C3800C2807B681B687A6AD2B21146184602F0D5
:102C480012FB38613B6903F00103002B57D07B6A04
:102C580003F00F03012202FA03F3FB60FB6903F59B
:102C680000635A6BFB68DB43F96901F500611340A7
:102C78004B637B6A5A01FB69134403F510631A46D8
:102C8800012393607B681B69012B32D179687A6ACA
:102C98001346DB0013449B000B444C3319687868D7
:102CA8007A6A1346DB0013449B00034448331B68CD
:102CB800194478687A6A1346DB0013449B0003447E
:102CC8004C3319607B6A002B13D179687A6A1346F2
:102CD800DB0013449B000B4454331B68002B08D1C2
:102CE8007B6818687B6803F2C4431A46012102F026
:102CF80019FB7B6ADBB219467868FFF750FA3B6923
:102D080003F00803002B08D07B6A5A01FB691344BF
:102D180003F510631A46082393603B6903F0100318
:102D2800002B08D07B6A5A01FB69134403F5106332
:102D38001A46102393603B6903F04003002B08D028
:102D48007B6A5A01FB69134403F510631A46402352
:102D580093603B6903F00203002B23D0796A386A39
:102D680001F0FAF97A6A1346DB0013449B00383302
:102D78007A68134404337B617B69DB78012B08D1C3
:102D88007B690022DA707B6ADBB219467868FFF744
:102D980093FA7B6A5A01FB69134403F510631A46D8
:102DA800022393603B6903F08003002B03D0796A08
:102DB800786800F0DBFC7B6A01337B62BB6A5B08E6
:102DC800BB62BB6A002B7FF42EAF7B681B6818467A
:102DD80002F0E4F9034603F00043B3F1004F22D1B7
:102DE800FB6903F500635B68FA6902F5006223F08A
:102DF800010353607B6893F8F434012B08D17B6896
:102E0800002283F8F4240021786800F0C3FE02E071
:102E18007868FFF731FA7B681B685A697B681B681A
:102E280002F000425A617B681B68184602F0B6F946
:102E3800034603F40063B3F5006F12D1FB6903F591
:102E480000639B6803F00103012B02D17868FFF748
:102E5800EDF97B681B685A697B681B6802F400629D
:102E68005A617B681B68184602F098F9034603F418
:102E78008053B3F5805F40F0B780FB6903F50063CA
:102E88005B68FA6902F5006223F0010353607B680E
:102E98001B681021184601F05FF90023FB6246E029
:102EA800FB6A5A01FB69134403F510631A464FF68F
:102EB8007F339360FB6A5A01FB69134403F510637F
:102EC8001B68FA6A5101FA690A4402F5106223F490
:102ED80000131360FB6A5A01FB69134403F530635E
:102EE8001A464FF67F339360FB6A5A01FB69134415
:102EF80003F530631B68FA6A5101FA690A4402F55E
:102F0800306223F400131360FB6A5A01FB6913440F
:102F180003F530631B68FA6A5101FA690A4402F53D
:102F2800306243F000631360FB6A0133FB627B6825
:102F38005B68FA6A9A42B3D3FB6903F50063DB69FD
:102F4800FA6902F5006243F00113D3617B681B6BD9
:102F5800002B16D0FB6903F50063D3F88430FA69B7
:102F680002F5006243F00B03C2F88430FB6903F5F5
:102F780000635B6CFA6902F5006243F00B0353646B
:102F880015E0FB6903F500635B69FA6902F5006205
:102F980043F4005343F02B035361FB6903F50063CB
:102FA8001B69FA6902F5006243F00B031361FB69C0
:102FB80003F500631B68FA6902F5006223F4FE63F7
:102FC80013607B6818687B681B69D9B27B6803F259
:102FD800C4431A4602F0A6F97B681B685A697B68E5
:102FE8001B6802F480525A617B681B68184602F01D
:102FF800D5F8034603F40053B3F5005F24D17B688A
:103008001B68184602F06BF97B681B68184601F0CC
:1030180020F903461A467B68DA607B681C68FEF76D
:10302800E1FA01467B68DB68DBB21A46204600F00D
:103038001FFE7868FFF7DBF87B681B685A697B68B6
:103048001B6802F400525A617B681B68184602F03C
:10305800A5F8034603F00803082B0AD17868FFF7A0
:10306800B8F87B681B685A697B681B6802F008021D
:103078005A617B681B68184602F090F8034603F013
:103088008003802B22D13B6A9B6923F080023B6A34
:103098009A6101237B6214E079687A6A1346DB003F
:1030A80013449B000B4403F27F231B78012B05D1AB
:1030B8007B6ADBB21946786800F027FB7B6A01332C
:1030C8007B627B685B687A6A9A42E5D37B681B6897
:1030D800184602F063F8034603F48013B3F5801F23
:1030E8003BD101237B622BE07B6A5A01FB691344C5
:1030F80003F510631B68BB6179687A6A1346DB00C5
:1031080013449B000B4440331B78012B15D1BB693A
:10311800002B12DA79687A6A1346DB0013449B00A5
:103128000B443F3301221A707B6ADBB263F07F03E2
:10313800DBB21946786800F0E8FA7B6A01337B62F3
:103148007B685B687A6A9A42CED37B681B685A6947
:103158007B681B6802F480125A617B681B681846FA
:1031680002F01CF8034603F40013B3F5001F55D111
:1031780001237B6245E07B6A5A01FB69134403F52E
:1031880030631B68BB6179687A6A1346DB001344B5
:103198009B000B4403F520731B78012B2ED1BB69D0
:1031A800002B2BDABB6903F480327B68D3F8FC343C
:1031B80003F001039A4221D179687A6A1346DB0049
:1031C80013449B000B4403F27F2301221A703B6ACD
:1031D8009B6943F080023B6A9A613B6A5B6903F032
:1031E8008003002B0AD1FB6903F500635B68FA6969
:1031F80002F5006243F40073536007E07B6A013311
:103208007B627B685B687A6A9A42B4D37B681B6886
:103218005A697B681B6802F400125A617B681B6854
:10322800184601F0BBFF034603F08043B3F1804F1B
:103238000AD17868FFF752F87B681B685A697B687F
:103248001B6802F080425A617B681B68184601F0CF
:10325800A5FF034603F00403042B15D17B681B6804
:103268005B68BB61BB6903F00403002B02D078687C
:10327800FFF742F87B681B6859687B681B68BA6966
:103288000A435A6000E000BF3437BD4690BD80B5A0
:1032980082B000AF78600B46FB707B6893F8BC3453
:1032A800012B01D1022313E07B68012283F8BC249F
:1032B8007B68FA7883F838207B681B68FA781146AF
:1032C800184601F003FF7B68002283F8BC24002322
:1032D80018460837BD4680BD80B584B000AF786019
:1032E800084611461A460346FB700B463B801346B8
:1032F800BB700023FB7297F90330002B0FDAFB78C1
:1033080003F00F021346DB0013449B0038337A683E
:1033180013440433FB60FB6801225A700FE0FB780A
:1033280003F00F021346DB0013449B0003F51E73E2
:103338007A6813440433FB60FB6800225A70FB78F8
:1033480003F00F03DAB2FB681A703A88FB68DA6098
:10335800FB68BA781A71FB685B78002B04D0FB68AD
:103368001B789AB2FB681A81BB78022B02D1FB68E2
:1033780000225A717B6893F8BC34012B01D10223D7
:103388000EE07B68012283F8BC247B681B68F9681F
:10339800184600F083FF7B68002283F8BC24FB7A80
:1033A80018461037BD4680BD80B584B000AF786040
:1033B8000B46FB7097F90330002B0FDAFB7803F00C
:1033C8000F021346DB0013449B0038337A6813441A
:1033D8000433FB60FB6801225A700FE0FB7803F0AE
:1033E8000F021346DB0013449B0003F51E737A6833
:1033F80013440433FB60FB6800225A70FB7803F027
:103408000F03DAB2FB681A707B6893F8BC34012B9F
:1034180001D102230EE07B68012283F8BC247B687B
:103428001B68F968184600F0C1FF7B68002283F822
:10343800BC24002318461037BD4680BD80B586B031
:1034480000AFF8607A603B600B46FB72FB7A03F0D2
:103458000F021346DB0013449B0003F51E73FA6842
:10346800134404337B617B697A681A617B693A6823
:103478009A617B6900221A627B6900225A70FB7A82
:1034880003F00F03DAB27B691A70FB681B69012B22
:1034980002D17A687B695A61FB7A03F00F03002B2B
:1034A80009D1FB681868FB681B69DBB21A467969A1
:1034B80001F0A0FA08E0FB681868FB681B69DBB23A
:1034C8001A46796901F04EF8002318461837BD46A8
:1034D80080BD80B483B000AF78600B46FB70FB788A
:1034E80003F00F0279681346DB0013449B000B447A
:1034F80003F527731B6818460C37BD465DF8047B37
:10350800704780B586B000AFF8607A603B600B46C4
:10351800FB72FB7A03F00F021346DB0013449B0097
:103528003833FA68134404337B617B697A681A611B
:103538007B693A689A617B6900221A627B69012279
:103548005A70FB7A03F00F03DAB27B691A70FB68D2
:103558001B69012B02D17A687B695A61FB7A03F0F7
:103568000F03002B09D1FB681868FB681B69DBB2E5
:103578001A46796901F03EFA08E0FB681868FB68AA
:103588001B69DBB21A46796900F0ECFF0023184684
:103598001837BD4680BD80B584B000AF78600B4653
:1035A800FB70FB7803F00F027B685B689A4201D9D5
:1035B800012350E097F90330002B0FDAFB7803F072
:1035C8000F021346DB0013449B0038337A68134418
:1035D8000433FB60FB6801225A700DE0FA78134649
:1035E800DB0013449B0003F51E737A68134404330D
:1035F800FB60FB6800225A70FB6801229A70FB7816
:1036080003F00F03DAB2FB681A707B6893F8BC34D6
:10361800012B01D102231EE07B68012283F8BC2420
:103628007B681B68F968184601F07CFCFB7803F09E
:103638000F03002B0AD17B6818687B681B69D9B215
:103648007B6803F2C4431A4601F06CFE7B680022D3
:1036580083F8BC24002318461037BD4680BD80B5CA
:1036680084B000AF78600B46FB70FB7803F00F0264
:103678007B685B689A4201D9012342E097F90330DD
:10368800002B0FDAFB7803F00F021346DB0013441C
:103698009B0038337A6813440433FB60FB680122CB
:1036A8005A700FE0FB7803F00F021346DB00134457
:1036B8009B0003F51E737A6813440433FB60FB68B0
:1036C80000225A70FB6800229A70FB7803F00F03FF
:1036D800DAB2FB681A707B6893F8BC34012B01D10D
:1036E80002230EE07B68012283F8BC247B681B68F8
:1036F800F968184601F084FC7B68002283F8BC2432
:10370800002318461037BD4680BD80B584B000AF91
:1037180078600B46FB7097F90330002B0CDAFB78C6
:1037280003F00F021346DB0013449B0038337A681A
:1037380013440433FB600CE0FB7803F00F021346DC
:10374800DB0013449B0003F51E737A6813440433AB
:10375800FB607B681B68F968184601F0A3FA03460A
:10376800FB72FB7A18461037BD4680BD80B58AB01B
:1037780002AF786039607B681B687B617B693B615D
:103788003A681346DB0013449B0038337A681344C5
:103798000433FB60FB681A6AFB689B699A4201D98B
:1037A80001236CE0FB689A69FB681B6AD31AFB610A
:1037B800FB68DB68FA699A4202D9FB68DB68FB613F
:1037C800FB6903339B08BB612BE0FB689A69FB68C4
:1037D8001B6AD31AFB61FB68DB68FA699A4202D953
:1037E800FB68DB68FB61FB6903339B08BB61FB6813
:1037F80019693B68DAB2FB6998B27B681B69DBB26E
:1038080000930346786901F0F7FAFB681A69FB69C7
:103818001A44FB681A61FB681A6AFB691A44FB6858
:103828001A623B685A013B69134403F510639B69AC
:103838009BB2BA699A4209D8FB681A6AFB689B6905
:103848009A4203D2FB689B69002BBED1FB689A6938
:10385800FB681B6A9A4211D83B6803F00F030122E8
:1038680002FA03F3BB603B6903F500635A6BBB685C
:10387800DB43396901F5006113404B6300231846A7
:103888002037BD4680BD000080B588B000AF7860A5
:1038980039607B681B68FB61FB69BB61FB693C3372
:1038A80004331B687B613B685A01BB69134403F509
:1038B80030639B683B617B681B69012B7BD13B694B
:1038C80003F00803002B15D07B69614A934240F24C
:1038D800B9803B6903F40043002B00F0B3803B68D8
:1038E8005A01BB69134403F530631A464FF4004389
:1038F8009360A7E03B6903F02003002B09D03B68E5
:103908005A01BB69134403F530631A4620239360B8
:1039180098E03B6903F02803002B40F093807B6913
:103928004B4A93420FD93B6903F40043002B0AD05A
:103938003B685A01BB69134403F530631A464FF4D8
:10394800004393607EE03A681346DB0013449B0013
:1039580003F51E737A6813440433FB60FB68DA6965
:103968003B685901BB690B4403F530631B69C3F31A
:103978001203D21AFB681A623B68002B14D1FB6849
:103988009B69002B09D17B6818687B6803F2C443E4
:103998001A46012101F0C6FC06E0FB681A69FB68BB
:1039A8001B6A1A44FB681A613B68DBB219467868DF
:1039B800FEF7DAFB46E07B69264A934224D13B694D
:1039C80003F40043002B0AD03B685A01BB69134437
:1039D80003F530631A464FF40043936032E03B69C5
:1039E80003F02003002B08D03B685A01BB6913443D
:1039F80003F530631A46202393603B68DBB219460F
:103A08007868FEF7B1FB1DE03B68002B14D179689C
:103A18003A681346DB0013449B000B4403F52573F7
:103A28001B68002B08D17B6818687B6803F2C443C5
:103A38001A46002101F076FC3B68DBB2194678682B
:103A4800FEF792FB002318462037BD4680BD00BF15
:103A58000A30544F0A31544F80B586B000AF7860B1
:103A680039607B681B687B617B693B617B693C33A0
:103A780004331B68FB603B685A013B69134403F538
:103A880030639B68BB60FB68154A93420ED9BB68DC
:103A980003F40043002B09D03B685A013B691344E7
:103AA80003F530631A464FF4004393607868FEF7D5
:103AB80049FBFB680A4A93420CD97B681B69012BB6
:103AC80008D17B6818687B6803F2C4431A46012151
:103AD80001F028FC002318461837BD4680BD00BFFA
:103AE8000A30544F80B485B000AF78600B46FB7045
:103AF80013463B807B681B685B6ABB60FB78002BC6
:103B080007D13B8819047B681B68BA680A439A6224
:103B180028E07B681B689B6A1B0CBA681344BB606F
:103B28000023FB730DE07B681A68FB7B40339B0026
:103B380013445B681B0CBA681344BB60FB7B0133FE
:103B4800FB73FA7BFB78013B9A42ECD33B88180461
:103B58007B681968FB78013BBA68024340339B00D5
:103B68000B445A60002318461437BD465DF8047BA1
:103B7800704780B483B000AF78600B467B807B6869
:103B88001B687A885A62002318460C37BD465DF8D0
:103B9800047B704780B483B000AF78600B46FB703D
:103BA80000BF0C37BD465DF8047B704784B080B514
:103BB80084B000AF786007F11C0080E80E003B6B12
:103BC800012B22D17B689B6B23F480327B689A633C
:103BD8007B68DB6823F4840323F040037A68D360AE
:103BE8007B68DB6823F440127B68DA60FB6C012B8E
:103BF80005D17B68DB6843F480127B68DA607868FB
:103C080001F0EEFB0346FB731AE07B68DB6843F0C8
:103C180040027B68DA60786801F0E2FB0346FB73D8
:103C28003B6C002B06D17B689B6B43F480327B682E
:103C38009A6305E07B689B6B23F480327B689A6308
:103C4800BB6A012B0BD17B689B6843F006027B683B
:103C58009A607B689B6843F020027B689A60FB7BD4
:103C680018461037BD46BDE8804004B070470000D4
:103C780080B487B000AFF860B9601346FB71FB7978
:103C8800022B65D1BB68414A934206D9BB68404ABA
:103C9800934202D20F237B6162E0BB683C4A9342A5
:103CA80006D3BB683B4A934202D20E237B6157E09E
:103CB800BB68384A934206D3BB68374A934202D25C
:103CC8000D237B614CE0BB68334A934206D3BB6843
:103CD800324A934202D80C237B6141E0BB682F4AE9
:103CE800934206D9BB682E4A934202D80B237B61C4
:103CF80036E0BB682A4A934206D9BB68294A9342F0
:103D080002D80A237B612BE0BB68264A934206D976
:103D1800BB68254A934202D209237B6120E0BB6835
:103D2800214A934206D3BB68204A934202D808230B
:103D38007B6115E0BB681D4A934206D9BB681C4AE3
:103D4800934202D207237B610AE006237B6107E0E6
:103D5800FB79002B02D109237B6101E009237B61F8
:103D6800FB68DB6823F47052FB68DA60FB68DA688A
:103D78007B699B0203F470531A43FB68DA600023E3
:103D880018461C37BD465DF8047B7047BFACD800A9
:103D9800C0E1E4000024F400807306019F491A0181
:103DA800FF2C31013FA44C0100366E011FABA60168
:103DB8000048E80180B483B000AF78607B689B68F6
:103DC80043F001027B689A60002318460C37BD4611
:103DD8005DF8047B704780B483B000AF78607B687F
:103DE8009B6823F001027B689A60002318460C3711
:103DF800BD465DF8047B704780B584B000AF78603D
:103E08000B46FB700023FB607B68DB6823F0C04235
:103E18007B68DA60FB78012B15D17B68DB6843F09F
:103E280000527B68DA600120FDF722FFFB6801334E
:103E3800FB60786801F045FA0346012B1ED0FB6849
:103E4800312BF0D91AE0FB78002B15D17B68DB68A1
:103E580043F080427B68DA600120FDF709FFFB68C8
:103E68000133FB60786801F02CFA0346002B05D07B
:103E7800FB68312BF0D901E0012305E0FB68322B08
:103E880001D1012300E0002318461037BD4680BD4C
:103E980084B080B586B000AF786007F1240080E870
:103EA8000E000023FB757B68FB6000233B6109E083
:103EB8007A683B6940339B00134400225A603B698F
:103EC80001333B613B690E2BF2D9FB6C002B1CD1F3
:103ED800FB6803F500635B68FA6802F5006243F06B
:103EE800020353607B689B6B43F400127B689A6300
:103EF8007B689B6B23F400227B689A637B689B6BCF
:103F080023F480227B689A630BE07B689B6B23F425
:103F180000127B689A637B689B6B43F400227B6882
:103F28009A63FB6803F560631A4600231360FB6815
:103F380003F500631946FB6803F500631A460B682E
:103F48001360BB6B012B0CD1FB6A002B04D1002141
:103F5800786800F065F908E00121786800F060F9F8
:103F680003E00321786800F05BF91021786800F01D
:103F7800F3F80346002B01D00123FB75786800F0A5
:103F88001FF90346002B01D00123FB75FB6803F5DD
:103F980000631A4600231361FB6803F500631A46A1
:103FA80000235361FB6803F500631A460023D361BD
:103FB80000233B6143E03B695A01FB68134403F566
:103FC80010631B6803F00043B3F1004F18D13B693D
:103FD800002B0AD13B695A01FB68134403F51063AF
:103FE8001A464FF00063136013E03B695A01FB68FF
:103FF800134403F510631A464FF09043136008E02A
:104008003B695A01FB68134403F510631A46002301
:1040180013603B695A01FB68134403F510631A46A1
:10402800002313613B695A01FB68134403F51063CD
:104038001A464FF67F3393603B6901333B617B6AD5
:104048003A699A42B7D300233B6143E03B695A017E
:10405800FB68134403F530631B6803F00043B3F1B6
:10406800004F18D13B69002B0AD13B695A01FB6804
:10407800134403F530631A464FF00063136013E0EE
:104088003B695A01FB68134403F530631A464FF045
:104098009043136008E03B695A01FB68134403F539
:1040A80030631A46002313603B695A01FB681344C6
:1040B80003F530631A46002313613B695A01FB6814
:1040C800134403F530631A464FF67F3393603B6918
:1040D80001333B617B6A3A699A42B7D3FB6803F5BF
:1040E80000631B69FA6802F5006223F480731361A8
:1040F8007B6800229A617B686FF080425A613B6B53
:10410800002B05D17B689B6943F010027B689A619C
:104118007B689A690F4B13437A689361FB6B002B9A
:1041280005D07B689B6943F008027B689A61FB6C49
:10413800012B07D17B689B6943F0804343F004035C
:104148007A689361FB7D18461837BD46BDE8804004
:1041580004B0704700383C8080B485B000AF786008
:1041680039600023FB60FB680133FB60FB68134A7E
:10417800934201D903231BE07B681B69002BF2DA09
:104188000023FB603B689B0143F020027B681A61B7
:10419800FB680133FB60FB68084A934201D903239B
:1041A80006E07B681B6903F02003202BF0D0002376
:1041B80018461437BD465DF8047B7047400D030070
:1041C80080B485B000AF78600023FB60FB680133E2
:1041D800FB60FB68114A934201D9032318E07B680E
:1041E8001B69002BF2DA0023FB607B6810221A613E
:1041F800FB680133FB60FB68084A934201D903233B
:1042080006E07B681B6903F01003102BF0D0002335
:1042180018461437BD465DF8047B7047400D03000F
:1042280080B485B000AF78600B46FB707B68FB609C
:10423800FB6803F500631A68FB78F96801F500610B
:1042480013430B60002318461437BD465DF8047B02
:10425800704780B487B000AF78607B683B613B698A
:1042680003F500639B6803F00603FB60FB68002B03
:1042780002D10023FB750AE0FB68022B02D0FB6821
:10428800062B02D10223FB7501E00F23FB75FB7D92
:1042980018461C37BD465DF8047B704780B485B06E
:1042A80000AF786039607B68FB603B681B78BB6057
:1042B8003B685B78012B3AD1FB6803F50063DA6948
:1042C8003B681B7803F00F03012101FA03F39BB24B
:1042D800F96801F500611343CB61BB685A01FB68BB
:1042E800134403F510631B6803F40043002B55D1F6
:1042F800BB685A01FB68134403F510631A683B68EE
:10430800DB68C3F30A013B681B799B041943BB684C
:104318009B050B431343BA685101FA680A4402F536
:10432800106243F0805343F40043136036E0FB68A7
:1043380003F50063DA693B681B7803F00F0301217A
:1043480001FA03F31B04F96801F500611343CB611B
:10435800BB685A01FB68134403F530631B6803F418
:104368000043002B1AD1BB685A01FB68134403F5BC
:1043780030631A683B68DB68C3F30A013B681B7942
:104388009B040B431343BA685101FA680A4402F5C7
:10439800306243F0805343F400431360002318460F
:1043A8001437BD465DF8047B7047000080B485B0C3
:1043B80000AF786039607B68FB603B681B78BB6046
:1043C8003B685B78012B61D1BB685A01FB681344D9
:1043D80003F510631B6803F00043B3F1004F1FD1CE
:1043E800BB685A01FB68134403F510631B68BA687D
:1043F8005101FA680A4402F5106243F00063136041
:10440800BB685A01FB68134403F510631B68BA685C
:104418005101FA680A4402F5106243F080431360C0
:10442800FB6803F50063DA6B3B681B7803F00F0346
:10443800012101FA03F39BB2DB43F96801F500613E
:104448001340CB63FB6803F50063DA693B681B78AC
:1044580003F00F03012101FA03F39BB2DB43F96870
:1044680001F500611340CB61BB685A01FB68134436
:1044780003F510631A68BB685901FB680B4403F520
:1044880010631946354B13400B6060E0BB685A0156
:10449800FB68134403F530631B6803F00043B3F172
:1044A800004F1FD1BB685A01FB68134403F5306302
:1044B8001B68BA685101FA680A4402F5306243F091
:1044C80000631360BB685A01FB68134403F530634B
:1044D8001B68BA685101FA680A4402F5306243F071
:1044E80080431360FB6803F50063DA6B3B681B7855
:1044F80003F00F03012101FA03F31B04DB43F968FE
:1045080001F500611340CB63FB6803F50063DA69CA
:104518003B681B7803F00F03012101FA03F31B0426
:10452800DB43F96801F500611340CB61BB685A01B0
:10453800FB68134403F530631A68BB685901FB68CC
:104548000B4403F530631946054B13400B600023F9
:1045580018461437BD465DF8047B7047007833EC85
:104568000078F3EF80B58AB002AFF860B9601346FF
:10457800FB71FB68FB61BB681B78BB61BB685B7840
:10458800012B40F05C81BB689B69002B32D1BB6971
:104598005A01FB69134403F510631B69BA69510199
:1045A800FA690A4402F5106223F0FF5323F4C0139A
:1045B8001361BB695A01FB69134403F510631B6956
:1045C800BA695101FA690A4402F5106243F40023FA
:1045D8001361BB695A01FB69134403F510631B6936
:1045E800BA695101FA690A4402F51062DB0CDB046E
:1045F800136174E0BB695A01FB69134403F5106346
:104608001B69BA695101FA690A4402F51062DB0CA8
:10461800DB041361BB695A01FB69134403F510639A
:104628001B69BA695101FA690A4402F5106223F05C
:10463800FF5323F4C0131361BB695A01FB69134488
:1046480003F510631A69BB689969BB68DB680B449A
:10465800591EBB68DB68B1FBF3F3D9049D4B0B40D3
:10466800B9694801F969014401F5106113430B6107
:10467800BB695A01FB69134403F510631A69BB68E7
:104688009B69C3F31203B9694801F969014401F54B
:10469800106113430B61BB681B79012B1FD1BB69E8
:1046A8005A01FB69134403F510631B69BA69510188
:1046B800FA690A4402F5106223F0C0431361BB692A
:1046C8005A01FB69134403F510631B69BA69510168
:1046D800FA690A4402F5106243F000531361FB794A
:1046E800012B4BD1BB685B69002B09D0BB695A0110
:1046F800FB69134403F510631A46BB685B69536191
:10470800BB681B79012B28D1FB6903F500639B6803
:1047180003F48073002B10D1BB695A01FB69134461
:1047280003F510631B68BA695101FA690A4402F576
:10473800106243F0005313600FE0BB695A01FB6934
:10474800134403F510631B68BA695101FA690A44F6
:1047580002F5106243F080531360BB695A01FB698C
:10476800134403F510631B68BA695101FA690A44D6
:1047780002F5106243F00443136033E1BB695A0148
:10478800FB69134403F510631B68BA695101FA69A0
:104798000A4402F5106243F004431360BB681B79B6
:1047A800012B15D0BB689B69002B00F01B81FB69AE
:1047B80003F500635A6BBB681B7803F00F030121F4
:1047C80001FA03F3F96901F5006113434B6309E149
:1047D800FB6903F500639B6803F48073002B10D119
:1047E800BB695A01FB69134403F510631B68BA6976
:1047F8005101FA690A4402F5106243F0005313604C
:104808000FE0BB695A01FB69134403F510631B6889
:10481800BA695101FA690A4402F5106243F08053FB
:104828001360BB681969BB681A78BB689B6998B242
:10483800FB7900930346F86800F0DEFAD2E0BB6922
:104848005A01FB69134403F530631B69BA695101C6
:10485800FA690A4402F53062DB0CDB041361BB69B8
:104868005A01FB69134403F530631B69BA695101A6
:10487800FA690A4402F5306223F0FF5323F4C013A7
:104888001361BB689B69002B26D1BB695A01FB6980
:10489800134403F530631A69BB68DB68C3F312037A
:1048A800B9694801F969014401F5306113430B61A5
:1048B800BB695A01FB69134403F530631B69BA6984
:1048C8005101FA690A4402F5306243F40023136186
:1048D8003AE000BF0000F81FBB689A69BB68DB6854
:1048E80013445A1EBB68DB68B2FBF3F3FB82BB6858
:1048F800DB68FA8A03FB02F2BB68DA61BB695A011A
:10490800FB69134403F530631A69FB8AD904384BF1
:104918000B40B9694801F969014401F53061134355
:104928000B61BB695A01FB69134403F530631A69CB
:10493800BB68DB69C3F31203B9694801F96901442B
:1049480001F5306113430B61FB79012B0DD1BB6875
:104958001B69002B09D0BB681969BB695A01FB693F
:10496800134403F530630A465A61BB681B79012B6F
:1049780028D1FB6903F500639B6803F48073002B5F
:1049880010D1BB695A01FB69134403F530631B68F6
:10499800BA695101FA690A4402F5306243F00053DA
:1049A80013600FE0BB695A01FB69134403F53063D8
:1049B8001B68BA695101FA690A4402F5306243F08A
:1049C80080531360BB695A01FB69134403F53063D4
:1049D8001B68BA695101FA690A4402F5306243F06A
:1049E80004431360002318462037BD4680BD00BF2E
:1049F8000000F81F80B487B000AFF860B9601346B4
:104A0800FB71FB687B61BB681B783B61BB685B78AB
:104A1800012B40F0CE80BB689B69002B32D13B69EB
:104A28005A017B69134403F510631B693A69510104
:104A38007A690A4402F5106223F0FF5323F4C01385
:104A480013613B695A017B69134403F510631B69C1
:104A58003A6951017A690A4402F5106243F4002365
:104A680013613B695A017B69134403F510631B69A1
:104A78003A6951017A690A4402F51062DB0CDB04D9
:104A880013614EE03B695A017B69134403F51063D7
:104A98001B693A6951017A690A4402F51062DB0C14
:104AA800DB0413613B695A017B69134403F5106306
:104AB8001B693A6951017A690A4402F5106223F0C8
:104AC800FF5323F4C0131361BB689A69BB68DB68A2
:104AD8009A4203D9BB68DA68BB689A613B695A0194
:104AE8007B69134403F510631B693A6951017A69BC
:104AF8000A4402F5106243F4002313613B695A012A
:104B08007B69134403F510631A69BB689B69C3F397
:104B18001203396948017969014401F510611343A9
:104B28000B61FB79012B1ED1BB685B69002B09D097
:104B38003B695A017B69134403F510631A46BB6845
:104B48005B6953613B695A017B69134403F5106340
:104B58001B683A6951017A690A4402F5106243F008
:104B68000443136097E03B695A017B69134403F5DA
:104B780010631B683A6951017A690A4402F51062A8
:104B880043F004431360BB689B69002B00F08380EB
:104B98007B6903F500635A6BBB681B7803F00F034E
:104BA800012101FA03F3796901F5006113434B63AD
:104BB80071E03B695A017B69134403F530631B6953
:104BC8003A6951017A690A4402F53062DB0CDB0468
:104BD80013613B695A017B69134403F530631B6910
:104BE8003A6951017A690A4402F5306223F0FF53A9
:104BF80023F4C0131361BB689B69002B03D0BB6807
:104C0800DA68BB689A61BB68DA68BB68DA613B69D5
:104C18005A017B69134403F530631B693A695101F2
:104C28007A690A4402F5306243F4002313613B6950
:104C38005A017B69134403F530631A69BB68DB6961
:104C4800C3F31203396948017969014401F53061F8
:104C580013430B61FB79012B0DD1BB681B69002B3A
:104C680009D0BB6819693B695A017B69134403F58C
:104C780030630A465A613B695A017B69134403F55C
:104C880030631B683A6951017A690A4402F5306257
:104C980043F004431360002318461C37BD465DF8F3
:104CA800047B704780B487B000AF78603960002318
:104CB800FB600023FB757B683B613B685B78012BDD
:104CC8004AD13B681B785A013B69134403F51063CA
:104CD8001B6803F00043B3F1004F40F086803B6847
:104CE8001B785A013B69134403F510631B683A6843
:104CF800127851013A690A4402F5106243F00063E0
:104D080013603B681B785A013B69134403F5106331
:104D18001B683A68127851013A690A4402F5106230
:104D280043F080431360FB680133FB60FB6842F289
:104D38001072934202D90123FB7556E03B681B7839
:104D48005A013B69134403F510631B6803F00043E1
:104D5800B3F1004FE7D048E03B681B785A013B6944
:104D6800134403F530631B6803F00043B3F1004FAD
:104D78003BD13B681B785A013B69134403F5306308
:104D88001B683A68127851013A690A4402F53062A0
:104D980043F0006313603B681B785A013B69134476
:104DA80003F530631B683A68127851013A690A447E
:104DB80002F5306243F080431360FB680133FB6007
:104DC800FB6842F21072934202D90123FB750CE092
:104DD8003B681B785A013B69134403F530631B6831
:104DE80003F00043B3F1004FE7D0FB7D18461C37B2
:104DF800BD465DF8047B704780B489B000AFF860A9
:104E0800B96011461A460B46FB711346BB80FB6816
:104E18007B61BB68FB6197F82830002B23D1BB88E6
:104E280003339B083B610023BB6118E0FB791A033D
:104E38007B69134403F580531A46FB691B681360AA
:104E4800FB690133FB61FB690133FB61FB690133DA
:104E5800FB61FB690133FB61BB690133BB61BA6963
:104E68003B699A42E2D3002318462437BD465DF8D1
:104E7800047B704780B48BB000AFF860B96013460C
:104E8800FB80FB68BB61BB687B62FB889B089BB2AD
:104E98007B61FB8803F00303FB8300233B6214E080
:104EA800BB6903F580531A687B6A1A607B6A013311
:104EB8007B627B6A01337B627B6A01337B627B6A3C
:104EC80001337B623B6A01333B623A6A7B699A42EF
:104ED800E6D3FB8B002B1ED000233B62BB6903F596
:104EE80080531A4607F1100312681A603A693B6A40
:104EF800DBB2DB0022FA03F3DAB27B6A1A703B6A90
:104F080001333B627B6A01337B62FB8B013BFB8392
:104F1800FB8B002BEAD17B6A18462C37BD465DF81F
:104F2800047B704780B485B000AF786039607B68D7
:104F3800FB603B681B78BB603B685B78012B2CD11E
:104F4800BB685A01FB68134403F510631B68002B08
:104F580012DBBB68002B0FD0BB685A01FB681344F7
:104F680003F510631B68BA685101FA680A4402F530
:104F7800106223F080431360BB685A01FB68134436
:104F880003F510631B68BA685101FA680A4402F510
:104F9800106243F4001313602BE0BB685A01FB68EE
:104FA800134403F530631B68002B12DBBB68002B2E
:104FB8000FD0BB685A01FB68134403F530631B68C4
:104FC800BA685101FA680A4402F5306223F0804356
:104FD8001360BB685A01FB68134403F530631B6810
:104FE800BA685101FA680A4402F5306243F40013C2
:104FF8001360002318461437BD465DF8047B7047DC
:1050080080B485B000AF786039607B68FB603B682E
:105018001B78BB603B685B78012B28D1BB685A01C1
:10502800FB68134403F510631B68BA685101FA68FA
:105038000A4402F5106223F4001313603B681B79DD
:10504800032B03D03B681B79022B38D1BB685A016C
:10505800FB68134403F510631B68BA685101FA68CA
:105068000A4402F5106243F08053136027E0BB68DE
:105078005A01FB68134403F530631B68BA68510191
:10508800FA680A4402F5306223F4001313603B689F
:105098001B79032B03D03B681B79022B0FD1BB680C
:1050A8005A01FB68134403F530631B68BA68510161
:1050B800FA680A4402F5306243F080531360002313
:1050C80018461437BD465DF8047B704780B485B038
:1050D80000AF78600B46FB707B68FB60FB6803F5EC
:1050E80000631B68FA6802F5006223F4FE6313602C
:1050F800FB6803F500631A68FB781B0103F4FE6381
:10510800F96801F5006113430B6000231846143752
:10511800BD465DF8047B704780B485B000AF786009
:105128007B68FB60FB6803F560631B68FA6802F53F
:10513800606223F003031360FB6803F500635B6898
:10514800FA6802F5006223F0020353600023184650
:105158001437BD465DF8047B704780B485B000AF56
:1051680078607B68FB60FB6803F560631B68FA681E
:1051780002F5606223F003031360FB6803F5006324
:105188005B68FA6802F5006243F00203536000238B
:1051980018461437BD465DF8047B704780B485B067
:1051A80000AF78607B685B69FB607B689B69FA6825
:1051B8001340FB60FB6818461437BD465DF8047B56
:1051C800704780B485B000AF78607B68FB60FB688F
:1051D80003F500639B69BB60FB6803F50063DB694B
:1051E800BA681340BB60BB681B0C18461437BD4631
:1051F8005DF8047B704780B485B000AF78607B6849
:10520800FB60FB6803F500639B69BB60FB6803F503
:105218000063DB69BA681340BB60BB689BB2184681
:105228001437BD465DF8047B704780B485B000AF85
:1052380078600B46FB707B68FB60FB785A01FB6863
:10524800134403F530639B68BB60FB6803F5006398
:105258005B69BA681340BB60BB6818461437BD4623
:105268005DF8047B704780B487B000AF78600B4668
:10527800FB707B687B617B6903F500631B693B619D
:105288007B6903F500635B6BFB60FB7803F00F033E
:10529800FA6822FA03F3DB01DBB23A6913433B6194
:1052A800FB785A017B69134403F510639B683A69DC
:1052B8001340BB60BB6818461C37BD465DF8047BCD
:1052C800704780B483B000AF78607B685B6903F097
:1052D800010318460C37BD465DF8047B704780B45F
:1052E80085B000AF78607B68FB60FB6803F51063EE
:1052F8001B68FA6802F5106223F4FF6323F00703C2
:105308001360FB6803F500635B68FA6802F50062E6
:1053180043F480735360002318461437BD465DF884
:10532800047B704780B487B000AFF8600B467A60A2
:10533800FB72FB687B61FB683C3304331B683B6191
:105348003B69264A93420AD97B6903F530631B6897
:1053580003F00043B3F1004F01D1002337E07B692C
:1053680003F530631A46002313617B6903F5306344
:105378001B697A6902F5306243F4002313617B6983
:1053880003F530631B697A6902F5306243F018034C
:1053980013617B6903F530631B697A6902F5306232
:1053A80043F0C0431361FB7A012B0FD17B6903F5EE
:1053B80030631A467B6853617B6903F530631B6869
:1053C8007A6902F5306243F080231360002318469F
:1053D8001C37BD465DF8047B704700BF0A30544F48
:1053E80080B485B000AF78600023FB60FB680133B0
:1053F800FB60FB68134A934201D903231BE07B68D7
:105408001B69002BF2DA0023FB607B681B6943F001
:1054180001027B681A61FB680133FB60FB68094A7B
:10542800934201D9032306E07B681B6903F001035B
:10543800012BF0D0002318461437BD465DF8047BD5
:10544800704700BF400D030080B586B000AFF8601C
:10545800B9601346FB71FB68002B01D103231FE0E1
:10546800FB680022C3F8B822FB680022C3F8C422F4
:10547800FB680022C3F8D022BB68002B03D0FB686E
:10548800BA68C3F8B422FB68012283F89C22FB683F
:10549800FA791A70F868FCF73DFF0346FB75FB7D47
:1054A80018461837BD4680BD80B584B000AF786017
:1054B80039600023FB813B68002B01D1032325E0E1
:1054C8007B683A68C3F8B8227B68D3F8D4227B6833
:1054D800AE3253F82230DB6A002B0FD07B68D3F84A
:1054E800D4227B68AE3253F82230DB6A07F10E0211
:1054F8001046984702467B68C3F8D0227B68D3F8E9
:10550800D8325A1C7B68C3F8D822002318461037B3
:10551800BD4680BD80B582B000AF78607868FCF782
:1055280045FF034618460837BD4680BD80B483B0A2
:1055380000AF7860002318460C37BD465DF8047B41
:10554800704780B584B000AF78600B46FB700023CD
:10555800FB737B68D3F8B832002B09D07B68D3F88B
:10556800B8321B68FA781146786898470346FB7387
:10557800FB7B18461037BD4680BD80B584B000AFB0
:1055880078600B46FB700023FB737B68D3F8B83256
:105598005B68FA781146786898470346002B01D073
:1055A8000323FB73FB7B18461037BD4680BD80B5CF
:1055B80084B000AF786039607B6803F2AA23396849
:1055C800184601F008F97B680122C3F894227B6829
:1055D800B3F8B0321A467B68C3F898227B6893F810
:1055E800AA3203F01F03022B1AD0022B22D8002B59
:1055F80002D0012B0AD01DE07B6803F2AA231946CA
:10560800786800F05FFB0346FB7320E07B6803F2D9
:10561800AA231946786800F0C7FB0346FB7316E017
:105628007B6803F2AA231946786800F029FC034630
:10563800FB730CE07B6893F8AA3223F07F03DBB29C
:1056480019467868FCF712FF0346FB7300BFFB7B23
:1056580018461037BD4680BD80B586B000AFF860EB
:105668000B467A60FB720023FB75FB7A002B6ED128
:10567800FB6803F5AA733B61FB68D3F89432032BEC
:1056880040F098803B699A683B69DB689A4213D975
:105698003B699A683B69DB68D21A3B699A603B6947
:1056A800DA683B699B68934228BF13461A467968B3
:1056B800F86801F084F97DE0FB6893F8AA3203F0FA
:1056C8001F03022B14D0022B1DD8002B02D0012B54
:1056D80003D018E00023BB7518E0FB68B3F8AE32BE
:1056E800DBB21946F86800F05EFA0346BB750DE0B8
:1056F800FB68B3F8AE32DBB21946F86800F060FA1E
:105708000346BB7502E00023BB7500BFBB7D002BC1
:1057180019D1FB6893F89C32DBB2032B13D1BA7D05
:10572800FB68AE3253F822301B69002B0BD0BA7DD0
:10573800FB68C3F8D422BA7DFB68AE3253F8223036
:105748001B69F8689847F86801F04AF932E0FB7A73
:1057580003F07F03DBB21946F86800F031FA03461C
:10576800BB75BB7DFF2B25D0BB7D002B22D1FB68F1
:1057780093F89C32DBB2032B17D1BA7DFB68AE32AB
:1057880053F822309B69002B0FD0BA7DFB68C3F811
:10579800D422BA7DFB68AE3253F822309B69FA7A7C
:1057A8001146F86898470346FB75FB7D002B01D02E
:1057B800FB7D00E0002318461837BD4680BD80B544
:1057C80086B000AFF8600B467A60FB72FB7A002B5C
:1057D8006FD1FB6814333B61FB68D3F89432022B1A
:1057E8005AD13B699A683B69DB689A4214D93B698C
:1057F8009A683B69DB68D21A3B699A603B699B6887
:105808001A467968F86801F0ACF8002300220021F4
:10581800F868FCF7D5FE3FE03B69DA683B699B68AE
:105828009A421CD13B695A683B69DB689A4216D395
:105838003B695A68FB68D3F898329A420FD2002223
:105848000021F86801F08DF8FB680022C3F898225F
:10585800002300220021F868FCF7B2FE1CE0FB6878
:1058680093F89C32DBB2032B0FD1FB68D3F8B83224
:10587800DB68002B09D0FB680022C3F8D422FB6840
:10588800D3F8B832DB68F86898478021F868FCF7E5
:10589800EDFDF86801F0B7F8FB6893F8A032002B2B
:1058A8003AD0F868FFF742FEFB68002283F8A0228E
:1058B80032E0FB7A63F07F03DBB21946F86800F048
:1058C8007FF90346FB75FB7DFF2B25D0FB7D002B65
:1058D80022D1FB6893F89C32DBB2032B1CD1FA7DF2
:1058E800FB68AE3253F822305B69002B14D0FA7D86
:1058F800FB68C3F8D422FA7DFB68AE3253F8223035
:105908005B69FA7A1146F86898470346BB75BB7D10
:10591800002B01D0BB7D00E0002318461837BD4698
:1059280080BD80B584B000AF78600023FB737B68CE
:10593800012283F89C227B680022C3F894227B68AA
:1059480000225A607B680022C3F8A4227B680022E8
:1059580083F8A0227B68D3F8B832002B14D07B6878
:10596800D3F8B8325B68002B0ED07B68D3F8B83216
:105978005B687A685268D2B21146786898470346DD
:10598800002B01D00323FB734023002200217868F9
:10599800FCF727FD7B680122A3F864217B6840227D
:1059A800C3F860214023002280217868FCF719FDA4
:1059B8007B6801229A847B6840221A62FB7B184626
:1059C8001037BD4680BD80B483B000AF78600B4609
:1059D800FB707B68FA781A74002318460C37BD46AA
:1059E8005DF8047B704780B483B000AF78607B6853
:1059F80093F89C32DAB27B6883F89D227B68042294
:105A080083F89C22002318460C37BD465DF8047BBA
:105A1800704780B483B000AF78607B6893F89C329D
:105A2800DBB2042B06D17B6893F89D32DAB27B682F
:105A380083F89C22002318460C37BD465DF8047B8A
:105A4800704780B582B000AF78607B6893F89C326D
:105A5800DBB2032B10D17B68D3F8B832002B0BD004
:105A68007B68D3F8B832DB69002B05D07B68D3F8A4
:105A7800B832DB6978689847002318460837BD466E
:105A880080BD80B582B000AF78600B46FB707B6844
:105A9800D3F8D4227B68AE3253F82230002B01D1E0
:105AA80003231CE07B6893F89C32DBB2032B15D1EF
:105AB8007B68D3F8D4227B68AE3253F822301B6A55
:105AC800002B0BD07B68D3F8D4227B68AE3253F816
