:020000040800F2
:1000000000000220F5960008BD160008C31600087F
:10001000C9160008CF160008D51600080000000019
:10002000000000000000000000000000DB160008D7
:10003000E916000800000000F71600080517000880
:100040004597000845970008459700084597000820
:100050004597000845970008459700084597000810
:100060004597000845970008459700084597000800
:1000700045970008459700084597000845970008F0
:1000800045970008459700084597000800000000C4
:10009000000000000000000000000000459700087C
:1000A00045970008459700084597000845970008C0
:1000B0004597000845970008111700084597000864
:1000C00045970008459700084597000845970008A0
:1000D0004597000845970008459700080000000074
:1000E0004597000845970008459700080000000064
:1000F000000000000000000000000000459700081C
:100100000000000045970008459700084597000843
:1001100000000000000000000000000000000000DF
:10012000459700084597000845970008459700083F
:1001300045970008000000000000000000000000DB
:10014000000000000000000000000000251700086B
:10015000459700084597000845970008459700080F
:1001600045970008459700080000000000000000C7
:10017000000000000000000000000000000000007F
:10018000000000004597000800000000000000008B
:0801900045970008459700089F
:1001A000034613F8012B002AFBD1181A01387047B7
:1001B00001F0FF01102A2BDB10F0070F08D010F818
:1001C000013B013A8B422DD010F0070F42B3F6D11C
:1001D000F0B441EA012141EA014122F007047FF035
:1001E00000070023F0E80256083C85EA010586EA8C
:1001F000010685FA47F5A3FA87F586FA47F6A5FAC8
:1002000087F68EB9EED1F0BC01F0FF0102F00702D3
:1002100032B110F8013B013A83EA010313B1F8D17E
:100220000020704701387047002D06BF354603385F
:10023000073815F0010F07D1013015F4807F02BF98
:10024000013015F4C03F0130F0BC0138704700BFE9
:1002500081F0004102E000BF83F0004330B54FEA77
:1002600041044FEA430594EA050F08BF90EA020FE4
:100270001FBF54EA000C55EA020C7FEA645C7FEA77
:10028000655C00F0E2804FEA5454D4EB5555B8BF9A
:100290006D420CDD2C4480EA020281EA030382EA0B
:1002A000000083EA010180EA020281EA0303362D9D
:1002B00088BF30BD11F0004F4FEA01314FF4801C70
:1002C0004CEA113102D0404261EB410113F0004F82
:1002D0004FEA03334CEA133302D0524263EB430339
:1002E00094EA050F00F0A780A4F10104D5F1200ED7
:1002F0000DDB02FA0EFC22FA05F2801841F1000132
:1003000003FA0EF2801843FA05F359410EE0A5F105
:1003100020050EF1200E012A03FA0EFC28BF4CF036
:10032000020C43FA05F3C01851EBE37101F00045EC
:1003300007D54FF0000EDCF1000C7EEB00006EEBF9
:100340000101B1F5801F1BD3B1F5001F0CD3490883
:100350005FEA30004FEA3C0C04F101044FEA4452DA
:1003600012F5800F80F09A80BCF1004F08BF5FEA61
:10037000500C50F1000041EB045141EA050130BD41
:100380005FEA4C0C404141EB0101013C28BFB1F553
:10039000801FE9D291F0000F04BF01460020B1FA9E
:1003A00081F308BF2033A3F10B03B3F120020CDA71
:1003B0000C3208DD02F1140CC2F10C0201FA0CF04F
:1003C00021FA02F10CE002F11402D8BFC2F1200CB4
:1003D00001FA02F120FA0CFCDCBF41EA0C0190406A
:1003E000E41AA2BF01EB0451294330BD6FEA0404B3
:1003F0001F3C1CDA0C340EDC04F11404C4F120029E
:1004000020FA04F001FA02F340EA030021FA04F3AF
:1004100045EA030130BDC4F10C04C4F1200220FA06
:1004200002F001FA04F340EA0300294630BD21FA44
:1004300004F0294630BD94F0000F83F4801306BF0A
:1004400081F480110134013D4EE77FEA645C18BFFE
:100450007FEA655C29D094EA050F08BF90EA020F95
:1004600005D054EA000C04BF1946104630BD91EA8D
:10047000030F1EBF0021002030BD5FEA545C05D190
:100480004000494128BF41F0004130BD14F58004CF
:100490003CBF01F5801130BD01F0004545F0FE4143
:1004A00041F470014FF0000030BD7FEA645C1ABF78
:1004B000194610467FEA655C1CBF0B46024650EAAF
:1004C000013406BF52EA033591EA030F41F40021DB
:1004D00030BD00BF90F0000F04BF0021704730B561
:1004E0004FF4806404F132044FF000054FF0000136
:1004F00050E700BF90F0000F04BF0021704730B5F7
:100500004FF4806404F1320410F0004548BF4042CB
:100510004FF000013EE700BF42004FEAE2014FEA20
:1005200031014FEA02701FBF12F07F4393F07F4FFB
:1005300081F06051704732F07F4208BF704793F0FE
:100540007F4F04BF41F40021704730B54FF4607411
:1005500001F0004521F000411CE700BF50EA010214
:1005600008BF704730B54FF000050AE050EA0102BD
:1005700008BF704730B511F0004502D5404261EB2D
:1005800041014FF4806404F132045FEA915C3FF46E
:10059000D8AE4FF003025FEADC0C18BF03325FEA0B
:1005A000DC0C18BF033202EBDC02C2F1200300FABC
:1005B00003FC20FA02F001FA03FE40EA0E0021FAE1
:1005C00002F11444BDE600BF70B54FF0FF0C4CF4CF
:1005D000E06C1CEA11541DBF1CEA135594EA0C0F81
:1005E00095EA0C0F00F0DEF82C4481EA030621EABC
:1005F0004C5123EA4C5350EA013518BF52EA0335F7
:1006000041F4801143F4801338D0A0FB02CE4FF0A8
:100610000005E1FB02E506F00042E0FB03E54FF0D8
:100620000006E1FB03569CF0000F18BF4EF0010ED0
:10063000A4F1FF04B6F5007F64F5407404D25FEACC
:100640004E0E6D4146EB060642EAC62141EA55517F
:100650004FEAC52040EA5E504FEACE2EB4F1FD0CC1
:1006600088BFBCF5E06F1ED8BEF1004F08BF5FEA3F
:10067000500E50F1000041EB045170BD06F00046F1
:1006800046EA010140EA020081EA0301B4EB5C049E
:10069000C2BFD4EB0C0541EA045170BD41F4801196
:1006A0004FF0000E013C00F3AB8014F1360FDEBFBB
:1006B000002001F0004170BDC4F10004203C35DA97
:1006C0000C341BDC04F11404C4F1200500FA05F31A
:1006D00020FA04F001FA05F240EA020001F00042BB
:1006E00021F0004110EBD37021FA04F642EB060131
:1006F0005EEA430E08BF20EAD37070BDC4F10C045B
:10070000C4F1200500FA04F320FA05F001FA04F21E
:1007100040EA020001F0004110EBD37041F100010A
:100720005EEA430E08BF20EAD37070BDC4F1200515
:1007300000FA05F24EEA020E20FA04F301FA05F27D
:1007400043EA020321FA04F001F0004121FA04F225
:1007500020EA020000EBD3705EEA430E08BF20EAF5
:10076000D37070BD94F0000F0FD101F0004640002F
:1007700041EB010111F4801F08BF013CF7D041EAB1
:10078000060195F0000F18BF704703F000465200B5
:1007900043EB030313F4801F08BF013DF7D043EA86
:1007A0000603704794EA0C0F0CEA135518BF95EA3C
:1007B0000C0F0CD050EA410618BF52EA4306D1D1C3
:1007C00081EA030101F000414FF0000070BD50EAE2
:1007D000410606BF1046194652EA430619D094EA6C
:1007E0000C0F02D150EA013613D195EA0C0F05D156
:1007F00052EA03361CBF104619460AD181EA0301AA
:1008000001F0004141F0FE4141F470014FF0000061
:1008100070BD41F0FE4141F4780170BD70B54FF0FC
:10082000FF0C4CF4E06C1CEA11541DBF1CEA13557C
:1008300094EA0C0F95EA0C0F00F0A7F8A4EB05045E
:1008400081EA030E52EA03354FEA013100F0888055
:100850004FEA03334FF0805545EA131343EA12631E
:100860004FEA022245EA111545EA10654FEA0026D3
:100870000EF000419D4208BF964244F1FD0404F58C
:10088000407402D25B084FEA3202B61A65EB0305E8
:100890005B084FEA32024FF480104FF4002CB6EBA5
:1008A000020E75EB030E22BFB61A754640EA0C0025
:1008B0005B084FEA3202B6EB020E75EB030E22BF65
:1008C000B61A754640EA5C005B084FEA3202B6EBA6
:1008D000020E75EB030E22BFB61A754640EA9C0065
:1008E0005B084FEA3202B6EB020E75EB030E22BF35
:1008F000B61A754640EADC0055EA060E18D04FEAF3
:10090000051545EA16754FEA06164FEAC30343EA92
:1009100052734FEAC2025FEA1C1CC0D111F4801F5F
:100920000BD141EA00014FF000004FF0004CB6E758
:1009300011F4801F04BF01430020B4F1FD0C88BFF7
:10094000BCF5E06F3FF6AFAEB5EB030C04BFB6EB02
:10095000020C5FEA500C50F1000041EB045170BDF5
:100960000EF0004E4EEA113114EB5C04C2BFD4EB22
:100970000C0541EA045170BD41F480114FF0000EA6
:10098000013C90E645EA060E8DE60CEA135594EA22
:100990000C0F08BF95EA0C0F3FF43BAF94EA0C0F25
:1009A0000AD150EA01347FF434AF95EA0C0F7FF49A
:1009B00025AF104619462CE795EA0C0F06D152EAEE
:1009C00003353FF4FDAE1046194622E750EA4106D2
:1009D00018BF52EA43067FF4C5AE50EA41047FF4E3
:1009E0000DAF52EA43057FF4EBAE12E74FF0FF3C48
:1009F00006E000BF4FF0010C02E000BF4FF0010C19
:100A00004DF804CD4FEA410C7FEA6C5C4FEA430C91
:100A100018BF7FEA6C5C1BD001B050EA410C0CBFE0
:100A200052EA430C91EA030F02BF90EA020F002042
:100A3000704710F1000F91EA030F58BF994208BFA9
:100A400090422CBFD8176FEAE37040F00100704766
:100A50004FEA410C7FEA6C5C02D150EA013C07D1BD
:100A60004FEA430C7FEA6C5CD6D152EA033CD3D008
:100A70005DF8040B704700BF8446104662468C4602
:100A80001946634600E000BF01B5FFF7B7FF002835
:100A900048BF10F1000F01BD4DF808EDFFF7F4FF5E
:100AA0000CBF012000205DF808FB00BF4DF808EDE9
:100AB000FFF7EAFF34BF012000205DF808FB00BF0C
:100AC0004DF808EDFFF7E0FF94BF012000205DF82E
:100AD00008FB00BF4DF808EDFFF7CEFF94BF0120E3
:100AE00000205DF808FB00BF4DF808EDFFF7C4FFDC
:100AF00034BF012000205DF808FB00BF4FEA410C25
:100B00007FEA6C5C02D150EA013C0AD14FEA430C07
:100B10007FEA6C5C02D152EA033C02D14FF0000044
:100B200070474FF0010070474A0011D212F50012D1
:100B300011D20DD56FF47873B3EB62520ED44FEA35
:100B4000C12343F0004343EA505323FA02F07047B5
:100B50004FF00000704750EA013002D14FF0FF30F3
:100B600070474FF0000070474FEA4102B2F1E04396
:100B700024BFB3F5001CDCF1FE5C0DD901F0004C84
:100B80004FEAC0024CEA5070B2F1004F40EB8300D4
:100B900008BF20F00100704711F0804F21D113F100
:100BA0003872BCBF01F00040704741F480114FEA39
:100BB0005252C2F11802C2F1200C10FA0CF320FAC2
:100BC00002F018BF40F001004FEAC1234FEAD323DF
:100BD00003FA0CFC40EA0C0023FA02F34FEA430349
:100BE000CCE77FEA625307D150EA01331EBF4FF0D2
:100BF000FE4040F44000704701F0004040F0FE40ED
:100C000040F40000704700BF53B94AB9002908BF3B
:100C100000281CBF4FF0FF314FF0FF3000F00CB840
:100C2000ADF1080C6DE904CE09F098FCDDF804E0A4
:100C3000DDE9022304B07047704700BF0348044B4E
:100C4000834202D0034B03B118477047580100207C
:100C500058010020000000000548064B1B1AD90F60
:100C600001EBA301491002D0034B03B118477047B1
:100C700058010020580100200000000010B5064C6B
:100C8000237843B9FFF7DAFF044B13B10448AFF3FD
:100C900000800123237010BD5801002000000000D7
:100CA00030A8000808B5054B1BB105490548AFF34E
:100CB0000080BDE80840FFF7CFBF00BF0000000084
:100CC0005C01002030A8000880B500AF02F0FAFCFB
:100CD00000F09AF800F040FA00F0C6F900F0FCF8D5
:100CE00003F056F900F04AF93C4800F07FFE00217D
:100CF0003B4800F037FF3B4B00225A633A4B1B78CE
:100D0000002B0FD139493A4808F01EFD3848FFF74B
:100D100047FA03461946364803F016FB324B0122C8
:100D20001A701EE0324B1B78542B03D0304B1B78CB
:100D3000742B16D12F4B1B881A462F4B1B882F491B
:100D40002B4808F001FD2A48FFF72AFA0346194606
:100D5000274803F0F9FA244B00221A70244B002292
:100D60001A7000228021264800F07AFC0346002BEE
:100D70000ED0244B1B78002B14BF01230023DBB2C1
:100D800083F00103DBB203F00103DAB21D4B1A70EA
:100D9000194B1B88202B0ED91A4B1B7883F00103AB
:100DA000DBB2002B07D00F4B0E4ADB6A53631920CE
:100DB00002F0FAFC10E0104B1B881B2B9ED8114B45
:100DC0001B7883F00103DBB2002B97D0054B002288
:100DD0005A63192002F0E8FC90E700BF04020020EB
:100DE000BC010020000400406503002048A8000862
:100DF00050020020500300204E02002060A800088E
:100E0000000402406403002080B594B000AF07F1F5
:100E1000200330220021184608F0B6FC07F10C032D
:100E200000221A605A609A60DA601A610023BB607F
:100E3000274B1B6C264A43F080531364244B1B6CD6
:100E400003F08053BB60BB6800237B60214B1B68B1
:100E5000204A43F4404313601E4B1B6803F4404395
:100E60007B607B6801233B624FF480337B6202230B
:100E7000BB634FF48003FB6319233B64C0237B6493
:100E80000223BB640423FB6407F12003184601F02E
:100E900021FD0346002B01D000F096FB0F23FB60E1
:100EA00002233B6100237B614FF48053BB6100232D
:100EB000FB6107F10C030321184601F083FF034691
:100EC000002B01D000F080FB00BF5037BD4680BD35
:100ED000003802400070004080B584B000AF3B464F
:100EE00000221A605A609A60DA60214B214A1A6027
:100EF0001F4B4FF480325A601D4B00229A601C4BEE
:100F000000221A611A4B00221A76194B002283F82C
:100F10002020174B0022DA62154B174A9A62144BB5
:100F20000022DA60124B0122DA61114B002283F8B1
:100F300030200F4B01225A610D4802F06BFC034632
:100F4000002B01D000F040FB00233B6001237B60BD
:100F50000023BB603B461946054802F0EBFD034603
:100F6000002B01D000F030FB00BF1037BD4680BD24
:100F700074010020002001400100000F80B58EB0F8
:100F800000AF07F1280300221A605A609A60DA6005
:100F900007F1200300221A605A603B1D00221A60EC
:100FA0005A609A60DA601A615A619A612C4B2D4A34
:100FB0001A602B4B01225A60294B00229A60284B61
:100FC0004FF6FF72DA60264B00221A61244B002292
:100FD0009A61234800F0BAFC0346002B01D000F0D0
:100FE000F3FA4FF48053BB6207F1280319461C48FB
:100FF00001F032F80346002B01D000F0E5FA184862
:1010000000F056FD0346002B01D000F0DDFA00236E
:101010003B6200237B6207F120031946104801F070
:10102000D7FB0346002B01D000F0CEFA60237B6093
:101030000023BB600023FB6000237B613B1D00227B
:101040001946074800F046FF0346002B01D000F088
:10105000BBFA034800F01AFC00BF3837BD4680BD1C
:10106000BC0100200004004080B58EB000AF07F145
:10107000280300221A605A609A60DA6007F12003A0
:1010800000221A605A603B1D00221A605A609A6062
:10109000DA601A615A619A612D4B2E4A1A602C4B04
:1010A00042F27F525A602A4B00229A60284B40F24B
:1010B0000642DA60264B00221A61254B00229A6113
:1010C000234800F043FC0346002B01D000F07CFADB
:1010D0004FF48053BB6207F1280319461C4800F007
:1010E000BBFF0346002B01D000F06EFA184800F059
:1010F000DFFC0346002B01D000F066FA00233B62C0
:1011000000237B6207F120031946114801F060FBC0
:101110000346002B01D000F057FA60237B600023C8
:10112000BB600023FB6000237B613B1D002219464E
:10113000074800F0CFFE0346002B01D000F044FA30
:10114000034800F0A3FB00BF3837BD4680BD00BF99
:10115000040200200008004080B58AB000AF07F10B
:10116000140300221A605A609A60DA601A61002340
:101170003B61344B1B6B334A43F004031363314B25
:101180001B6B03F004033B613B690023FB602D4BA9
:101190001B6B2C4A43F0800313632A4B1B6B03F039
:1011A0008003FB60FB680023BB60264B1B6B254A5A
:1011B00043F001031363234B1B6B03F00103BB607C
:1011C000BB6800237B601F4B1B6B1E4A43F002036E
:1011D00013631C4B1B6B03F002037B607B680022D4
:1011E0004FF40051184802F041F94FF400537B616D
:1011F0000123BB610023FB6100233B6207F1140361
:101200001946114801F096FF04237B610023BB615E
:101210000023FB6107F1140319460C4801F08AFF13
:1012200049F280037B610023BB610023FB6107F16E
:1012300014031946064801F07DFF00BF2837BD465C
:1012400080BD00BF0038024000080240000002409C
:101250000004024000000000B0B582B000AF78602A
:10126000C74802F01BFB6421C54802F0CBFBC44811
:1012700002F053FC03469AB2C24B1A80C14B1B8842
:101280001846FFF737F9B0A3D3E90023FFF79CF91D
:1012900002460B4610461946ADA3D3E90023FFF7DB
:1012A000BDFA02460B4643EC172BB0EE470AF0EEB0
:1012B000670A08F0DDFE51EC100BA7A3D3E9002369
:1012C000FFF782F902460B46104619464FF000021E
:1012D0004FF08043FEF7C2FF02460B461046194608
:1012E000FFF722FC03469AB2A74B1A80A74B1B7844
:1012F000002B00F02581A64B1B881A46A14B1B88AA
:10130000D31A07EE903AF8EEE77AA24BC3ED007AD3
:10131000A14B1B881846FFF7EDF804460D469D4B80
:101320001B681846FFF7F8F84FF000029B4BFFF7D9
:101330004BF902460B46104619464FF00002984BF7
:10134000FFF76CFA02460B4620462946FEF786FF59
:1013500002460B4610461946FFF7E6FB03469AB2D3
:101360008D4B1A808F4B93ED007A8A4BD3ED007A28
:1013700027EE277A8C4B1B781A46874B1B8802FB7B
:1013800003F307EE903AF8EEE77A77EE277A17EE56
:10139000900AFFF7C1F804460D46844B1B781A46A5
:1013A0004FF47A7302FB03F307EE903AB8EEE77A54
:1013B000784BD3ED006A7E4BD3ED007A76EEE77A78
:1013C00067EE277A17EE900AFFF7A6F864A3D3E931
:1013D0000023FFF723FA02460B4620462946FEF774
:1013E0003DFF02460B4610461946FFF7BDFB03467C
:1013F000704A13606F4BD3ED007A9FED6F7A67EE02
:10140000877AFCEEE77A17EE903A9AB26B4B1A8025
:101410005C4B1B8840F6980293423CD9684B5B6B4F
:101420001846FFF757F804460D46654BDB6A184629
:10143000FFF750F84CA3D3E90023FFF7C5F80246A5
:101440000B4620462946FFF731FB0346002B22D0EE
:101450005B4BDB6A1846FFF73DF845A3D3E9002351
:10146000FFF7B2F802460B4614461D46544B5B6B21
:101470001846FFF72FF802460B4620462946FEF78E
:10148000EDFE02460B464E4C10461946FFF74CFB4C
:10149000034663633FE03B4B1B8840F69702934251
:1014A00039D8474B5B6B1846FFF714F804460D46D6
:1014B000434BDB6A1846FFF70DF82BA3D3E9002353
:1014C000FFF782F802460B4620462946FFF7EEFA60
:1014D0000346002B1FD03A4BDB6A1846FEF7FAFF93
:1014E00025A3D3E90023FFF76FF802460B46144605
:1014F0001D46334B5B6B1846FEF7ECFF22462B462E
:10150000FEF7AAFE02460B462D4C10461946FFF781
:101510000BFB034663632A4B5B6B07EE903AB8EE16
:10152000677A244BD3ED007ADFED266A76EEE77A10
:1015300077EE277A224BFCEEE77A17EE902A5A6371
:1015400000BF0837BD46B0BD6666666666660A407F
:101550000000000000FEAF400E2DB29DEFF74740A7
:10156000FCA9F1D24D62403F9A9999999999E93F26
:101570009A9999999999A93F333333333333C33FB8
:10158000740100204C0200204E0200206403002061
:1015900000000020540300205C0300200000E03F16
:1015A00000408F40040000200800002009000020B7
:1015B00058030020600300200000C84250030020B0
:1015C0000004004000FF7F4780B400AF72B600BF48
:1015D000FEE780B586B000AF78600B467B8013468F
:1015E0003B800523FB600023FB740023BB740023B6
:1015F0003B8200237B6118E07B881946786801F004
:101600001DFF0346002B05D0FB7C0133FB74002338
:10161000BB7404E0BB7C0133BB740023FB7401206A
:1016200002F0C2F87B6901337B617A69FB689A42F8
:10163000E2D33B88002B07D0FA7CFB685B089A4218
:1016400009D9FF233B8206E0BA7CFB685B089A421B
:1016500001D9FF233B823B8A18461837BD4680BD1F
:1016600080B582B000AF78600B467B8013463B802C
:101670003A887B8819467868FFF7ABFF0346002B52
:1016800017D03B88002B09D000BF7B8819467868AB
:1016900001F0D4FE0346002BF7D108E000BF7B88A1
:1016A0001946786801F0CAFE0346002BF7D0FF23E5
:1016B00000E0002318460837BD4680BD80B400AF67
:1016C000FEE780B400AFFEE780B400AFFEE780B471
:1016D00000AFFEE780B400AFFEE780B400AF00BF0C
:1016E000BD465DF8047B704780B400AF00BFBD46C7
:1016F0005DF8047B704780B400AF00BFBD465DF865
:10170000047B704780B500AF02F02EF800BF80BDAB
:1017100080B500AF024800F0D5FA00BF80BD00BF21
:101720000402002080B500AF024803F09FFA00BF1A
:1017300080BD00BF4818002080B483B000AF0023F4
:101740007B60104B5B6C0F4A43F4804353640D4B3A
:101750005B6C03F480437B607B6800233B60094B38
:101760001B6C084A43F080531364064B1B6C03F058
:1017700080533B603B6800BF0C37BD465DF8047B7F
:10178000704700BF0038024080B58AB000AF786073
:1017900007F1140300221A605A609A60DA601A6135
:1017A0007B681B68174A934227D100233B61164B85
:1017B0005B6C154A43F480735364134B5B6C03F406
:1017C00080733B613B690023FB600F4B1B6B0E4A30
:1017D00043F0010313630C4B1B6B03F00103FB602D
:1017E000FB6801237B610323BB610023FB6107F1DD
:1017F00014031946054801F09DFC00BF2837BD467B
:1018000080BD00BF002001400038024000000240BF
:1018100080B584B000AF78607B681B68184A93423B
:101820000ED10023FB60174B1B6C164A43F00203DA
:101830001364144B1B6C03F00203FB60FB681AE09B
:101840007B681B68104A934215D10023BB600D4B87
:101850001B6C0C4A43F0040313640A4B1B6C03F02B
:101860000403BB60BB68002200211E2001F0F3FED0
:101870001E2001F00CFF00BF1037BD4680BD00BF29
:1018800000040040003802400008004080B58AB0E3
:1018900000AF786007F1140300221A605A609A6062
:1018A000DA601A617B681B68244A93421ED10023C8
:1018B0003B61234B1B6B224A43F002031363204B13
:1018C0001B6B03F002033B613B6910237B61022326
:1018D000BB610023FB6100233B6202237B6207F1B3
:1018E00014031946174801F025FC22E07B681B68A9
:1018F000154A93421DD10023FB60114B1B6B104A0C
:1019000043F0020313630E4B1B6B03F00203FB60F7
:10191000FB6840237B610223BB610023FB61002342
:101920003B6202237B6207F114031946054801F06C
:1019300001FC00BF2837BD4680BD00BF0004004049
:1019400000380240000402400008004080B582B028
:1019500000AF78607B68002B01D1012341E07B68F8
:1019600093F83D30DBB2002B06D17B68002283F870
:101970003C207868FFF74CFF7B68022283F83D200B
:101980007B681A687B6804331946104600F054FCE3
:101990007B68012283F846207B68012283F83E2081
:1019A0007B68012283F83F207B68012283F8402076
:1019B0007B68012283F841207B68012283F8422062
:1019C0007B68012283F843207B68012283F844204E
:1019D0007B68012283F845207B68012283F83D2043
:1019E000002318460837BD4680BD000080B485B08E
:1019F00000AF78607B6893F83D30DBB2012B01D0FB
:101A0000012344E07B68022283F83D207B681B6849
:101A1000DA687B681B6842F00102DA607B681B6849
:101A20001E4A934218D07B681B68B3F1804F13D0D5
:101A30007B681B681A4A93420ED07B681B68194A60
:101A4000934209D07B681B68174A934204D07B6895
:101A50001B68164A934211D17B681B689B6803F090
:101A60000703FB60FB68062B10D07B681B681A68B5
:101A70007B681B6842F001021A6007E07B681B6804
:101A80001A687B681B6842F001021A60002318463E
:101A90001437BD465DF8047B704700BF000001406D
:101AA0000004004000080040000C004000400140DD
:101AB00080B582B000AF78607B68002B01D1012334
:101AC00041E07B6893F83D30DBB2002B06D17B68A8
:101AD000002283F83C20786800F039F87B68022205
:101AE00083F83D207B681A687B68043319461046EA
:101AF00000F0A2FB7B68012283F846207B6801226C
:101B000083F83E207B68012283F83F207B68012216
:101B100083F840207B68012283F841207B68012202
:101B200083F842207B68012283F843207B680122EE
:101B300083F844207B68012283F845207B680122DA
:101B400083F83D20002318460837BD4680BD80B489
:101B500083B000AF786000BF0C37BD465DF8047BF2
:101B60007047000080B584B000AF786039603B6892
:101B7000002B09D17B6893F83E30DBB2012B14BFF8
:101B800001230023DBB222E03B68042B09D17B68F0
:101B900093F83F30DBB2012B14BF01230023DBB2EB
:101BA00015E03B68082B09D17B6893F84030DBB225
:101BB000012B14BF01230023DBB208E07B6893F8FC
:101BC0004130DBB2012B14BF01230023DBB2002B19
:101BD00001D0012368E03B68002B04D17B6802221E
:101BE00083F83E2013E03B68042B04D17B6802227B
:101BF00083F83F200BE03B68082B04D17B6802226E
:101C000083F8402003E07B68022283F841207B6850
:101C10001B6801223968184600F0B4FD7B681B6818
:101C2000234A934207D17B681B685A6C7B681B6808
:101C300042F400425A647B681B681D4A934218D0E4
:101C40007B681B68B3F1804F13D07B681B68194A0F
:101C500093420ED07B681B68174A934209D07B6879
:101C60001B68164A934204D07B681B68144A93424F
:101C700011D17B681B689B6803F00703FB60FB685E
:101C8000062B10D07B681B681A687B681B6842F0C3
:101C900001021A6007E07B681B681A687B681B6892
:101CA00042F001021A60002318461037BD4680BD7D
:101CB000000001400004004000080040000C00400B
:101CC0000040014080B582B000AF78607B681B683F
:101CD0001B6903F00203022B22D17B681B68DB68BF
:101CE00003F00203022B1BD17B681B686FF002021A
:101CF0001A617B6801221A777B681B689B6903F075
:101D00000303002B03D0786800F077FA05E07868C9
:101D100000F069FA786800F07AFA7B6800221A7796
:101D20007B681B681B6903F00403042B22D17B68CA
:101D30001B68DB6803F00403042B1BD17B681B6862
:101D40006FF004021A617B6802221A777B681B68B5
:101D50009B6903F44073002B03D0786800F04DFAC0
:101D600005E0786800F03FFA786800F050FA7B6888
:101D700000221A777B681B681B6903F00803082B95
:101D800022D17B681B68DB6803F00803082B1BD19A
:101D90007B681B686FF008021A617B6804221A775F
:101DA0007B681B68DB6903F00303002B03D07868B2
:101DB00000F023FA05E0786800F015FA786800F082
:101DC00026FA7B6800221A777B681B681B6903F080
:101DD0001003102B22D17B681B68DB6803F0100313
:101DE000102B1BD17B681B686FF010021A617B6897
:101DF00008221A777B681B68DB6903F44073002BA9
:101E000003D0786800F0F9F905E0786800F0EBF9A4
:101E1000786800F0FCF97B6800221A777B681B6801
:101E20001B6903F00103012B0ED17B681B68DB6883
:101E300003F00103012B07D17B681B686FF00102DF
:101E40001A617868FFF708FA7B681B681B6903F062
:101E50008003802B0ED17B681B68DB6803F0800356
:101E6000802B07D17B681B686FF080021A6178684D
:101E700000F026FD7B681B681B6903F04003402BC4
:101E80000ED17B681B68DB6803F04003402B07D151
:101E90007B681B686FF040021A61786800F0C1F936
:101EA0007B681B681B6903F02003202B0ED17B6825
:101EB0001B68DB6803F02003202B07D17B681B68BD
:101EC0006FF020021A61786800F0F0FC00BF08375C
:101ED000BD4680BD80B586B000AFF860B9607A605D
:101EE0000023FB75FB6893F83C30012B01D10223E2
:101EF000AEE0FB68012283F83C207B680C2B00F2EB
:101F00009F8001A252F823F03D1F000841200008E5
:101F100041200008412000087D1F000841200008E2
:101F20004120000841200008BF1F00084120000890
:101F30004120000841200008FF1F0008FB681B68C3
:101F4000B968184600F0F8F9FB681B689A69FB68E5
:101F50001B6842F008029A61FB681B689A69FB687B
:101F60001B6822F004029A61FB681B689969BB68D0
:101F70001A69FB681B680A439A6164E0FB681B6886
:101F8000B968184600F03EFAFB681B689A69FB685E
:101F90001B6842F400629A61FB681B689A69FB68DF
:101FA0001B6822F480629A61FB681B689969BB68B0
:101FB0001B691A02FB681B680A439A6143E0FB68CD
:101FC0001B68B968184600F089FAFB681B68DA6973
:101FD000FB681B6842F00802DA61FB681B68DA697B
:101FE000FB681B6822F00402DA61FB681B68D96990
:101FF000BB681A69FB681B680A43DA6123E0FB6867
:102000001B68B968184600F0D3FAFB681B68DA69E8
:10201000FB681B6842F40062DA61FB681B68DA69DE
:10202000FB681B6822F48062DA61FB681B68D9696F
:10203000BB681B691A02FB681B680A43DA6102E08D
:102040000123FB7500BFFB68002283F83C20FB7D69
:1020500018461837BD4680BD80B584B000AF7860A3
:1020600039600023FB737B6893F83C30012B01D16E
:102070000223B4E07B68012283F83C207B680222C3
:1020800083F83D207B681B689B68BB60BB6823F0BE
:102090007703BB60BB6823F47F43BB607B681B682E
:1020A000BA689A603B681B68B3F5005F3ED0B3F531
:1020B000005F00F28780B3F5805F00F08680B3F5A3
:1020C000805F7FD8702B1AD0702B7BD8602B50D0BC
:1020D000602B77D8502B3CD0502B73D8402B58D046
:1020E000402B6FD8302B64D0302B6BD8202B60D096
:1020F000202B67D8002B5CD0102B5AD062E07B6875
:1021000018683B6899683B685A683B68DB6800F070
:1021100019FB7B681B689B68BB60BB6843F0770357
:10212000BB607B681B68BA689A604FE07B68186880
:102130003B6899683B685A683B68DB6800F002FBC3
:102140007B681B689A687B681B6842F480429A60CF
:102150003CE07B6818683B6859683B68DB681A4656
:1021600000F076FA7B681B685021184600F0CFFA21
:102170002CE07B6818683B6859683B68DB681A4646
:1021800000F095FA7B681B686021184600F0BFFAE2
:102190001CE07B6818683B6859683B68DB681A4636
:1021A00000F056FA7B681B684021184600F0AFFA31
:1021B0000CE07B681A683B681B681946104600F003
:1021C000A6FA03E00123FB7300E000BF7B68012255
:1021D00083F83D207B68002283F83C20FB7B184677
:1021E0001037BD4680BD80B483B000AF786000BFBB
:1021F0000C37BD465DF8047B704780B483B000AFF8
:10220000786000BF0C37BD465DF8047B704780B432
:1022100083B000AF786000BF0C37BD465DF8047B2B
:10222000704780B483B000AF786000BF0C37BD4604
:102230005DF8047B7047000080B485B000AF786023
:1022400039607B681B68FB607B68344A93420FD01F
:102250007B68B3F1804F0BD07B68314A934207D043
:102260007B68304A934203D07B682F4A934208D15F
:10227000FB6823F07003FB603B685B68FA681343FC
:10228000FB607B68254A93421BD07B68B3F1804F8B
:1022900017D07B68224A934213D07B68214A93422D
:1022A0000FD07B68204A93420BD07B681F4A934231
:1022B00007D07B681E4A934203D07B681D4A934235
:1022C00008D1FB6823F44073FB603B68DB68FA6865
:1022D0001343FB60FB6823F080023B685B69134398
:1022E000FB607B68FA681A603B689A687B68DA6210
:1022F0003B681A687B689A627B68084A934203D1FC
:102300003B681A697B681A637B6801225A6100BFC7
:102310001437BD465DF8047B704700BF00000140E4
:102320000004004000080040000C00400040014054
:10233000004401400048014080B487B000AF78609D
:1023400039607B681B6A23F001027B681A627B6834
:102350001B6A7B617B685B683B617B689B69FB6098
:10236000FB6823F07003FB60FB6823F00303FB6052
:102370003B681B68FA681343FB607B6923F0020328
:102380007B613B689B687A6913437B617B681C4A6D
:1023900093420CD17B6923F008037B613B68DB68C7
:1023A0007A6913437B617B6923F004037B617B685B
:1023B000134A934211D13B6923F480733B613B691B
:1023C00023F400733B613B685B693A6913433B61EB
:1023D0003B689B693A6913433B617B683A695A6081
:1023E0007B68FA689A613B685A687B685A637B68C5
:1023F0007A691A6200BF1C37BD465DF8047B7047DE
:102400000000014080B487B000AF786039607B681D
:102410001B6A23F010027B681A627B681B6A7B616F
:102420007B685B683B617B689B69FB60FB6823F4AE
:10243000E043FB60FB6823F44073FB603B681B6870
:102440001B02FA681343FB607B6923F020037B6166
:102450003B689B681B017A6913437B617B681E4A5A
:1024600093420DD17B6923F080037B613B68DB687D
:102470001B017A6913437B617B6923F040037B6115
:102480007B68154A934213D13B6923F480633B6117
:102490003B6923F400633B613B685B699B003A69DD
:1024A00013433B613B689B699B003A6913433B6163
:1024B0007B683A695A607B68FA689A613B685A6837
:1024C0007B689A637B687A691A6200BF1C37BD46D5
:1024D0005DF8047B704700BF0000014080B487B006
:1024E00000AF786039607B681B6A23F480727B6878
:1024F0001A627B681B6A7B617B685B683B617B68F7
:10250000DB69FB60FB6823F07003FB60FB6823F072
:102510000303FB603B681B68FA681343FB607B693D
:1025200023F400737B613B689B681B027A69134349
:102530007B617B681D4A93420DD17B6923F4006364
:102540007B613B68DB681B027A6913437B617B69B3
:1025500023F480637B617B68144A934213D13B6907
:1025600023F480533B613B6923F400533B613B6898
:102570005B691B013A6913433B613B689B691B0123
:102580003A6913433B617B683A695A607B68FA6831
:10259000DA613B685A687B68DA637B687A691A6239
:1025A00000BF1C37BD465DF8047B7047000001404A
:1025B00080B487B000AF786039607B681B6A23F411
:1025C00080527B681A627B681B6A3B617B685B6830
:1025D0007B617B68DB69FB60FB6823F4E043FB60A5
:1025E000FB6823F44073FB603B681B681B02FA68BE
:1025F0001343FB603B6923F400533B613B689B68DA
:102600001B033A6913433B617B68104A934209D12B
:102610007B6923F480437B613B685B699B017A693A
:1026200013437B617B687A695A607B68FA68DA6178
:102630003B685A687B681A647B683A691A6200BF13
:102640001C37BD465DF8047B704700BF00000140A9
:1026500080B487B000AFF860B9607A60FB681B6A2D
:102660007B61FB681B6A23F00102FB681A62FB684E
:102670009B693B613B6923F0F0033B617B681B0175
:102680003A6913433B617B6923F00A037B617A69F2
:10269000BB6813437B61FB683A699A61FB687A699E
:1026A0001A6200BF1C37BD465DF8047B704780B4DA
:1026B00087B000AFF860B9607A60FB681B6A23F0EE
:1026C0001002FB681A62FB689B697B61FB681B6AEE
:1026D0003B617B6923F470437B617B681B037A69F0
:1026E00013437B613B6923F0A0033B61BB681B0183
:1026F0003A6913433B61FB687A699A61FB683A69FE
:102700001A6200BF1C37BD465DF8047B704780B479
:1027100085B000AF786039607B689B68FB60FB68C0
:1027200023F07003FB603A68FB68134343F0070330
:10273000FB607B68FA689A6000BF1437BD465DF89D
:10274000047B704780B487B000AFF860B9607A60EE
:102750003B60FB689B687B617B6923F47F437B6103
:102760003B681A027B681A43BB6813437A691343B8
:102770007B61FB687A699A6000BF1C37BD465DF8D3
:10278000047B704780B487B000AFF860B9607A60AE
:10279000BB6803F01F03012202FA03F37B61FB68AD
:1027A0001A6A7B69DB431A40FB681A62FB681A6A83
:1027B000BB6803F01F03796801FA03F31A43FB684F
:1027C0001A6200BF1C37BD465DF8047B70470000ED
:1027D00080B485B000AF786039607B6893F83C3096
:1027E000012B01D1022350E07B68012283F83C20B9
:1027F0007B68022283F83D207B681B685B68FB6076
:102800007B681B689B68BB60FB6823F07003FB6000
:102810003B681B68FA681343FB607B681B68FA68B7
:102820005A607B681B681C4A934218D07B681B68FF
:10283000B3F1804F13D07B681B68184A93420ED0C7
:102840007B681B68164A934209D07B681B68154A4F
:10285000934204D07B681B68134A93420CD1BB6837
:1028600023F08003BB603B685B68BA681343BB60BE
:102870007B681B68BA689A607B68012283F83D20F8
:102880007B68002283F83C20002318461437BD469D
:102890005DF8047B704700BF000001400004004069
:1028A00000080040000C00400040014080B483B0AC
:1028B00000AF786000BF0C37BD465DF8047B704701
:1028C00080B483B000AF786000BF0C37BD465DF8C0
:1028D000047B704780B586B000AF78607B68002BC2
:1028E00001D1012367E27B681B6803F00103002B21
:1028F00075D0884B9B6803F00C03042B0CD0854BE0
:102900009B6803F00C03082B12D1824B5B6803F425
:102910008003B3F5800F0BD17E4B1B6803F40033AB
:10292000002B5BD07B685B68002B57D1012342E210
:102930007B685B68B3F5803F06D1764B1B68754AB0
:1029400043F4803313601DE07B685B68B3F5A02F10
:102950000CD1704B1B686F4A43F4802313606D4B9E
:102960001B686C4A43F4803313600BE0694B1B68AF
:10297000684A23F480331360664B1B68654A23F46E
:10298000802313607B685B68002B13D000F000FF8E
:10299000386108E000F0FCFE02463B69D31A642B64
:1029A00001D9032307E25B4B1B6803F40033002BC0
:1029B000F0D014E000F0ECFE386108E000F0E8FE32
:1029C00002463B69D31A642B01D90323F3E1514B2F
:1029D0001B6803F40033002BF0D100E000BF7B68DC
:1029E0001B6803F00203002B63D04A4B9B6803F083
:1029F0000C03002B0BD0474B9B6803F00C03082BF8
:102A00001CD1444B5B6803F48003002B16D1414B6F
:102A10001B6803F00203002B05D07B68DB68012BE9
:102A200001D00123C7E13B4B1B6823F0F8027B6810
:102A30001B69DB00374913430B603AE07B68DB68B6
:102A4000002B20D0344B01221A6000F0A1FE386127
:102A500008E000F09DFE02463B69D31A022B01D923
:102A60000323A8E12B4B1B6803F00203002BF0D0DB
:102A7000284B1B6823F0F8027B681B69DB002549A3
:102A800013430B6015E0244B00221A6000F080FE17
:102A9000386108E000F07CFE02463B69D31A022B45
:102AA00001D9032387E11B4B1B6803F00203002BB2
:102AB000F0D17B681B6803F00803002B36D07B68DD
:102AC0005B69002B16D0154B01221A6000F060FEE6
:102AD000386108E000F05CFE02463B69D31A022B25
:102AE00001D9032367E10B4B5B6F03F00203002B5B
:102AF000F0D01BE0094B00221A6000F049FE38615B
:102B00000EE000F045FE02463B69D31A022B07D9BE
:102B1000032350E10038024000004742800E474244
:102B2000884B5B6F03F00203002BEAD17B681B68C4
:102B300003F00403002B00F097800023FB75814B0A
:102B40001B6C03F08053002B0FD10023BB607D4B27
:102B50001B6C7C4A43F0805313647A4B1B6C03F06C
:102B60008053BB60BB680123FB75774B1B6803F484
:102B70008073002B18D1744B1B68734A43F4807325
:102B8000136000F005FE386108E000F001FE024627
:102B90003B69D31A022B01D903230CE16A4B1B6852
:102BA00003F48073002BF0D07B689B68012B06D167
:102BB000644B1B6F634A43F0010313671CE07B689F
:102BC0009B68052B0CD15F4B1B6F5E4A43F00403DF
:102BD00013675C4B1B6F5B4A43F0010313670BE009
:102BE000584B1B6F574A23F001031367554B1B6F5C
:102BF000544A23F0040313677B689B68002B15D0AD
:102C000000F0C6FD38610AE000F0C2FD02463B69F3
:102C1000D31A41F28832934201D90323CBE0494BC6
:102C20001B6F03F00203002BEED014E000F0B0FDA8
:102C300038610AE000F0ACFD02463B69D31A41F26C
:102C40008832934201D90323B5E03E4B1B6F03F05A
:102C50000203002BEED1FB7D012B05D1394B1B6C00
:102C6000384A23F0805313647B689B69002B00F083
:102C7000A180344B9B6803F00C03082B5CD07B686D
:102C80009B69022B41D1314B00221A6000F080FD7C
:102C9000386108E000F07CFD02463B69D31A022B44
:102CA00001D9032387E0274B1B6803F00073002B37
:102CB000F0D17B68DA697B681B6A1A437B685B6AC0
:102CC0009B011A437B689B6A5B08013B1B041A4308
:102CD0007B68DB6A1B061B4913434B601B4B0122BD
:102CE0001A6000F055FD386108E000F051FD024621
:102CF0003B69D31A022B01D903235CE0114B1B68FB
:102D000003F00073002BF0D054E0104B00221A6047
:102D100000F03EFD386108E000F03AFD02463B69F4
:102D2000D31A022B01D9032345E0064B1B6803F09D
:102D30000073002BF0D13DE07B689B69012B07D12C
:102D4000012338E000380240007000406000474234
:102D50001B4B5B68FB607B689B69012B28D0FB6881
:102D600003F480027B68DB699A4221D1FB6803F09F
:102D70003F027B681B6A9A421AD1FA6847F6C07311
:102D800013407A68526A9201934211D1FB6803F4AE
:102D900040327B689B6A5B08013B1B049A4207D167
:102DA000FB6803F070627B68DB6A1B069A4201D005
:102DB000012300E0002318461837BD4680BD00BF40
:102DC0000038024080B584B000AF786039607B681D
:102DD000002B01D10123CCE0684B1B6803F00703F3
:102DE0003A689A420CD9654B3A68D2B21A70634B72
:102DF0001B6803F007033A689A4201D00123B8E048
:102E00007B681B6803F00203002B20D07B681B68E3
:102E100003F00403002B05D0594B9B68584A43F438
:102E2000E05393607B681B6803F00803002B05D018
:102E3000534B9B68524A43F460439360504B9B68EA
:102E400023F0F0027B689B684D4913438B607B68DD
:102E50001B6803F00103002B44D07B685B68012BE7
:102E600007D1474B1B6803F40033002B19D1012312
:102E70007FE07B685B68022B03D07B685B68032B79
:102E800007D13F4B1B6803F00073002B09D10123CE
:102E90006FE03B4B1B6803F00203002B01D10123C1
:102EA00067E0374B9B6823F003027B685B6834491B
:102EB00013438B6000F06CFCF8600AE000F068FCE3
:102EC0000246FB68D31A41F28832934201D90323A8
:102ED0004FE02B4B9B6803F00C027B685B689B0008
:102EE0009A42EBD1254B1B6803F007033A689A42DC
:102EF0000CD2224B3A68D2B21A70204B1B6803F0F6
:102F000007033A689A4201D0012332E07B681B68CC
:102F100003F00403002B08D0194B9B6823F4E05204
:102F20007B68DB68164913438B607B681B6803F082
:102F30000803002B09D0124B9B6823F460427B6886
:102F40001B69DB000E4913438B6000F021F8024639
:102F50000B4B9B681B0903F00F030A49CB5C22FA59
:102F600003F3094A1360094B1B68184600F0CCFBB9
:102F7000002318461037BD4680BD00BF003C02400C
:102F800000380240C0A80008140000200C000020F7
:102F90002DE9B04F90B000AF00237B630023FB63AB
:102FA00000233B630023BB63594B9B6803F00C0376
:102FB000082B0DD0082B00F2A180002B02D0042B8F
:102FC00003D09BE0534BBB639BE0534BBB6398E048
:102FD0004F4B5B6803F03F037B634D4B5B6803F42F
:102FE0008003002B28D04A4B5B689B0900223B6280
:102FF0007A623B6AC3F308000021474B03FB01F2EE
:10300000002300FB03F31344434AA0FB0212FA62BD
:103010000A46BA62FA6A1344FB627B6B0022BB6108
:10302000FA61D7E90623D7E90A01FDF7EDFD02466B
:103030000B461346FB6353E0354B5B689B0900224C
:103040003B617A613B69C3F3080A4FF0000B5246BB
:103050005B464FF000004FF00001590141EAD26198
:10306000500102460B46B2EB0A0863EB0B094FF026
:1030700000024FF000034FEA891343EA98634FEAD6
:103080008812B2EB080463EB09054FF000024FF021
:103090000003EB0043EA5473E20014461D4614EBB0
:1030A0000A033B6045EB0B037B604FF000024FF0DF
:1030B0000003D7E9004529468B02214643EA915394
:1030C00021468A02104619467B6B0022BB60FA60DB
:1030D000D7E90223FDF798FD02460B461346FB6332
:1030E0000B4B5B681B0C03F0030301335B003B637A
:1030F000FA6B3B6BB2FBF3F3BB6302E0054BBB63C4
:1031000000BFBB6B18464037BD46BDE8B08F00BF5F
:10311000003802400024F40040787D0180B400AF04
:10312000034B1B681846BD465DF8047B704700BF23
:103130001400002080B489B000AF786039600023AB
:103140007B6100233B610023BB610023FB6159E1EC
:103150000122FB6902FA03F37B613B681B687A6911
:1031600013403B613A697B699A4240F048813B6871
:103170005B6803F00303012B05D03B685B6803F039
:103180000303022B30D17B689B68BB61FB695B004A
:10319000032202FA03F3DB43BA691340BB613B68C5
:1031A000DA68FB695B0002FA03F3BA691343BB6197
:1031B0007B68BA699A607B685B68BB610122FB69C6
:1031C00002FA03F3DB43BA691340BB613B685B68F7
:1031D0001B0903F00102FB6902FA03F3BA69134306
:1031E000BB617B68BA695A603B685B6803F00303A4
:1031F000032B17D07B68DB68BB61FB695B00032294
:1032000002FA03F3DB43BA691340BB613B689A6877
:10321000FB695B0002FA03F3BA691343BB617B6885
:10322000BA69DA603B685B6803F00303022B23D1C1
:10323000FB69DA087B68083253F82230BB61FB690E
:1032400003F007039B000F2202FA03F3DB43BA6982
:103250001340BB613B681A69FB6903F007039B00DD
:1032600002FA03F3BA691343BB61FB69DA087B68AE
:103270000832B96943F822107B681B68BB61FB699F
:103280005B00032202FA03F3DB43BA691340BB611C
:103290003B685B6803F00302FB695B0002FA03F31F
:1032A000BA691343BB617B68BA691A603B685B68A3
:1032B00003F44033002B00F0A2800023FB60574B47
:1032C0005B6C564A43F480435364544B5B6C03F489
:1032D0008043FB60FB68524AFB699B08023352F84B
:1032E0002330BB61FB6903F003039B000F2202FA4A
:1032F00003F3DB43BA691340BB617B68494A9342DD
:1033000019D07B68484A934213D07B68474A93425E
:103310000DD07B68464A934207D07B68454A93426A
:1033200001D1042308E0072306E0032304E002237D
:1033300002E0012300E00023FA6902F00302920098
:103340009340BA691343BB613549FB699B0802335B
:10335000BA6941F82320384B9B68BB613B69DB436A
:10336000BA691340BB613B685B6803F48013002BB0
:1033700003D0BA693B691343BB612F4ABB699360B1
:103380002D4BDB68BB613B69DB43BA691340BB6112
:103390003B685B6803F40013002B03D0BA693B69F8
:1033A0001343BB61244ABB69D360234B5B68BB6199
:1033B0003B69DB43BA691340BB613B685B6803F45C
:1033C0000033002B03D0BA693B691343BB611A4A2F
:1033D000BB695360184B1B68BB613B69DB43BA692F
:1033E0001340BB613B685B6803F48033002B03D060
:1033F000BA693B691343BB610F4ABB691360FB6940
:103400000133FB61FB690F2B7FF6A2AE00BF00BF4B
:103410002437BD465DF8047B704700BF003802408A
:103420000038014000000240000402400008024051
:10343000000C024000100240003C014080B485B006
:1034400000AF78600B467B807B681A697B881340ED
:10345000002B02D00123FB7301E00023FB73FB7BF5
:1034600018461437BD465DF8047B704780B483B0BE
:1034700000AF78600B467B8013467B707B78002B17
:1034800003D07A887B689A6103E07B881A047B68A2
:103490009A6100BF0C37BD465DF8047B70470000A1
:1034A00080B485B000AF78607B6803F00703FB60F1
:1034B0000C4BDB68BB60BA684FF6FF031340BB6080
:1034C000FB681A02BB68134343F0BF6343F4003345
:1034D000BB60044ABB68D36000BF1437BD465DF8CB
:1034E000047B704700ED00E080B400AF044BDB6864
:1034F0001B0A03F007031846BD465DF8047B7047BE
:1035000000ED00E080B483B000AF0346FB7197F993
:103510000730002B0BDBFB7903F01F02074997F9FB
:1035200007305B09012000FA02F241F8232000BFB6
:103530000C37BD465DF8047B704700BF00E100E03A
:1035400080B483B000AF03463960FB7197F9073050
:10355000002B0ADB3B68DAB20C4997F907301201FD
:10356000D2B20B4483F800230AE03B68DAB2084980
:10357000FB7903F00F03043B1201D2B20B441A761D
:1035800000BF0C37BD465DF8047B704700E100E0EA
:1035900000ED00E080B489B000AFF860B9607A60F7
:1035A000FB6803F00703FB61FB69C3F10703042B0E
:1035B00028BF0423BB61FB690433062B02D9FB69D6
:1035C000033B00E000237B614FF0FF32BB6902FA4E
:1035D00003F3DA43BB681A407B699A404FF0FF312E
:1035E0007B6901FA03F3D9437B680B401343184608
:1035F0002437BD465DF8047B7047000080B582B07B
:1036000000AF78607B68013BB3F1807F01D3012379
:103610000FE00A4A7B68013B53600F214FF0FF30F7
:10362000FFF78EFF054B00229A60044B07221A60B9
:10363000002318460837BD4680BD00BF10E000E0FB
:1036400080B582B000AF78607868FFF729FF00BFCF
:103650000837BD4680BD80B586B000AF0346B9606F
:103660007A60FB7300237B61FFF73EFF78617A6825
:10367000B9687869FFF78EFF024697F90F30114657
:103680001846FFF75DFF00BF1837BD4680BD80B507
:1036900082B000AF0346FB7197F907301846FFF779
:1036A00031FF00BF0837BD4680BD80B582B000AF96
:1036B00078607868FFF7A2FF034618460837BD46D2
:1036C00080BD000080B500AF0E4B1B680D4A43F46F
:1036D000007313600B4B1B680A4A43F4806313604A
:1036E000084B1B68074A43F4807313600320FFF7FD
:1036F000A7FF0F2000F008F8FEF71EF80023184679
:1037000080BD00BF003C024080B582B000AF786051
:10371000124B1A68124B1B7819464FF47A73B3FB9D
:10372000F1F3B2FBF3F31846FFF7BFFF0346002B9C
:1037300001D001230EE07B680F2B0AD800227968A4
:103740004FF0FF30FFF787FF064A7B6813600023C6
:1037500000E0012318460837BD4680BD1400002054
:10376000100000200C00002080B400AF064B1B7836
:103770001A46064B1B681344044A136000BFBD463B
:103780005DF8047B704700BF100000206803002034
:1037900080B400AF034B1B681846BD465DF8047B40
:1037A000704700BF6803002080B584B000AF786028
:1037B000FFF7EEFFB8607B68FB60FB68B3F1FF3F8B
:1037C00005D00A4B1B781A46FB681344FB6000BF08
:1037D000FFF7DEFF0246BB68D31AFA689A42F7D8B1
:1037E00000BF00BF1037BD4680BD00BF10000020E5
:1037F00080B400AF064BD3F88830054A43F4700319
:10380000C2F8883000BFBD465DF8047B704700BF3A
:1038100000ED00E080B584B000AF78600023FB735A
:103820007B68002B01D1012333E07B681B6C002BEC
:1038300009D17868FDF7A8FF7B6800225A647B688D
:10384000002283F83C207B681B6C03F01003002BE4
:1038500018D17B681B6C23F4885323F0020343F0D8
:1038600002027B681A64786800F096FA7B6800228E
:103870005A647B681B6C23F0030343F001027B68EE
:103880001A6401E00123FB737B68002283F83C206B
:10389000FB7B18461037BD4680BD000080B485B064
:1038A00000AF78600023BB607B6893F83C30012B4D
:1038B00001D1022397E07B68012283F83C207B68DA
:1038C0001B689B6803F00103012B18D07B681B6801
:1038D0009A687B681B6842F001029A60454B1B683E
:1038E000454AA2FB03239A0C13465B001344BB60BA
:1038F00002E0BB68013BBB60BB68002BF9D17B6871
:103900001B689B6803F00103012B5FD17B681B6C74
:1039100023F4E06323F0010343F480727B681A64AC
:103920007B681B685B6803F48063002B07D07B68AF
:103930001B6C23F4405343F480527B681A647B6809
:103940001B6C03F48053B3F5805F06D17B685B6C1E
:1039500023F006027B685A6402E07B6800225A6406
:103960007B68002283F83C20244BFB607B681B684B
:103970006FF022021A60FB685B6803F01F03002BE4
:103980000FD17B681B689B6803F04053002B29D143
:103990007B681B689A687B681B6842F080429A606B
:1039A00020E07B681B68164A93421BD17B681B682A
:1039B0009B6803F04053002B14D17B681B689A6806
:1039C0007B681B6842F080429A600BE07B681B6C4E
:1039D00043F010027B681A647B685B6C43F0010261
:1039E0007B685A64002318461437BD465DF8047B93
:1039F000704700BF1400002083DE1B4300230140FA
:103A00000020014080B584B000AF786039600023A9
:103A1000FB607B681B689B6803F48063B3F5806F71
:103A200013D17B681B689B6803F48073B3F5807FB8
:103A30000BD17B681B6C43F020027B681A647B68A7
:103A4000002283F83C20012363E0FFF7A1FEF86029
:103A500021E03B68B3F1FF3F1DD03B68002B07D04E
:103A6000FFF796FE0246FB68D31A3A689A4212D2D2
:103A70007B681B681B6803F00203022B0BD07B687A
:103A80001B6C43F004027B681A647B68002283F895
:103A90003C2003233DE07B681B681B6803F00203A6
:103AA000022BD6D17B681B686FF012021A607B680C
:103AB0001B6C43F400727B681A647B681B689B680C
:103AC00003F04053002B23D17B681B7E002B1FD1BA
:103AD0007B681B68DB6A03F47003002B06D07B68ED
:103AE0001B689B6803F48063002B11D17B681B6CFF
:103AF00023F480727B681A647B681B6C03F4805328
:103B0000002B05D17B681B6C43F001027B681A64B3
:103B1000002318461037BD4680BD80B483B000AF87
:103B200078607B681B68DB6C18460C37BD465DF817
:103B3000047B704780B485B000AF786039600023A3
:103B4000BB607B6893F83C30012B01D1022313E169
:103B50007B68012283F83C203B681B68092B25D930
:103B60007B681B68D9683B681B689BB21A46134682
:103B70005B0013441E3B072202FA03F3DA437B681F
:103B80001B680A40DA607B681B68D9683B689A68E2
:103B90003B681B689BB2184603465B0003441E3B10
:103BA0009A407B681B680A43DA6022E07B681B68E6
:103BB00019693B681B689BB21A4613465B001344A5
:103BC000072202FA03F3DA437B681B680A401A6192
:103BD0007B681B6819693B689A683B681B689BB2E5
:103BE000184603465B0003449A407B681B680A43FF
:103BF0001A613B685B68062B24D87B681B68596B8D
:103C00003B685A6813469B001344053B1F2202FA87
:103C100003F3DA437B681B680A405A637B681B68BE
:103C2000596B3B681B689BB218463B685A68134641
:103C30009B001344053B00FA03F27B681B680A43B0
:103C40005A634CE03B685B680C2B24D87B681B688C
:103C5000196B3B685A6813469B001344233B1F2291
:103C600002FA03F3DA437B681B680A401A637B6835
:103C70001B68196B3B681B689BB218463B685A6807
:103C800013469B001344233B00FA03F27B681B6836
:103C90000A431A6323E07B681B68D96A3B685A6849
:103CA00013469B001344413B1F2202FA03F3DA43FD
:103CB0007B681B680A40DA627B681B68D96A3B68CC
:103CC0001B689BB218463B685A6813469B00134416
:103CD000413B00FA03F27B681B680A43DA62294B16
:103CE000FB607B681B68284A93420FD13B681B68C6
:103CF000122B0BD1FB685B6823F40002FB685A604F
:103D0000FB685B6843F48002FB685A607B681B6851
:103D10001D4A93422BD13B681B681C4A934203D037
:103D20003B681B68112B22D1FB685B6823F480027F
:103D3000FB685A60FB685B6843F40002FB685A60EA
:103D40003B681B68114A934211D1114B1B68114A01
:103D5000A2FB03239A0C13469B0013445B00BB6039
:103D600002E0BB68013BBB60BB68002BF9D17B68FC
:103D7000002283F83C20002318461437BD465DF826
:103D8000047B704700230140002001401200001016
:103D90001400002083DE1B4380B485B000AF786040
:103DA000794BFB60FB685B6823F44032FB685A6028
:103DB000FB685A687B685B681A43FB685A607B68DB
:103DC0001B685A687B681B6822F480725A607B68A3
:103DD0001B6859687B681B691A027B681B680A4369
:103DE0005A607B681B685A687B681B6822F04072C7
:103DF0005A607B681B6859687B689A687B681B6897
:103E00000A435A607B681B689A687B681B6822F4C7
:103E100000629A607B681B6899687B68DA687B68D7
:103E20001B680A439A607B689B6A584A934222D077
:103E30007B681B689A687B681B6822F070629A60D6
:103E40007B681B6899687B689A6A7B681B680A4371
:103E50009A607B681B689A687B681B6822F04052F6
:103E60009A607B681B6899687B68DA6A7B681B6864
:103E70000A439A600FE07B681B689A687B681B683E
:103E800022F070629A607B681B689A687B681B6886
:103E900022F040529A607B681B689A687B681B68B6
:103EA00022F002029A607B681B6899687B681B7E1F
:103EB0005A007B681B680A439A607B6893F820303D
:103EC000002B1BD07B681B685A687B681B6842F418
:103ED00000625A607B681B685A687B681B6822F422
:103EE00060425A607B681B6859687B685B6A013B6B
:103EF0005A037B681B680A435A6007E07B681B68AB
:103F00005A687B681B6822F400625A607B681B68F1
:103F1000DA6A7B681B6822F47002DA627B681B68CD
:103F2000D96A7B68DB69013B1A057B681B680A4319
:103F3000DA627B681B689A687B681B6822F40072EF
:103F40009A607B681B6899687B6893F830305A02E6
:103F50007B681B680A439A607B681B689A687B6869
:103F60001B6822F480629A607B681B6899687B6892
:103F70005B699A027B681B680A439A6000BF14372A
:103F8000BD465DF8047B7047002301400100000F2F
:103F900080B500AF00221249124803F0E3FB03464C
:103FA000002B01D0FDF710FB0F490E4803F00AFC6F
:103FB0000346002B01D0FDF707FB0C49094805F02B
:103FC000C3FA0346002B01D0FDF7FEFA054803F0C3
:103FD0002FFC0346002B01D0FDF7F6FA00BF80BD91
:103FE000180000206C0300208800002068000020DA
:103FF00080B483B000AF03463960FB713B68122286
:104000001A80034B18460C37BD465DF8047B704799
:104010003400002080B483B000AF03463960FB71E8
:104020003B6804221A80034B18460C37BD465DF8E6
:10403000047B70474800002080B582B000AF034683
:104040003960FB71FB79002B05D13A6807490848B4
:1040500004F09AFD04E03A680449054804F094FD30
:10406000024B18460837BD4680BD00BF48060020F9
:1040700078A8000880B582B000AF03463960FB71B4
:104080003A680449044804F07FFD024B184608379B
:10409000BD4680BD4806002090A8000880B582B0CB
:1040A00000AF03463960FB713B681A221A8000F0AA
:1040B00043F8024B18460837BD4680BD4C0000202F
:1040C00080B582B000AF03463960FB71FB79002BED
:1040D00005D13A680749084804F056FD04E03A68FB
:1040E0000449054804F050FD024B18460837BD4608
:1040F00080BD00BF48060020A4A8000880B582B09B
:1041000000AF03463960FB71FB79002B05D13A689B
:104110000749084804F038FD04E03A6804490548B6
:1041200004F032FD024B18460837BD4680BD00BF83
:1041300048060020B0A8000880B584B000AF0F4B3F
:104140001B68FB600E4B1B68BB600E4B1B687B60E3
:10415000FA687B681344FB60FB68002B09D00822D7
:104160000949F86800F014F804220849B86800F01A
:104170000FF800BF1037BD4680BD00BF107AFF1F8B
:10418000147AFF1F187AFF1F4E0000205E000020E7
:1041900080B487B000AFF860B9601346FB710023AC
:1041A000FB750023FB7527E0FB681B0F092B0BD861
:1041B000FB681B0FDAB2FB7D5B001946BB680B4442
:1041C0003032D2B21A700AE0FB681B0FDAB2FB7D04
:1041D0005B001946BB680B443732D2B21A70FB68D9
:1041E0001B01FB60FB7D5B000133BA6813440022B6
:1041F0001A70FB7D0133FB75FA7DFB799A42D3D3AC
:1042000000BF00BF1C37BD465DF8047B704700004F
:1042100080B500AF00220549054805F0AFF9054912
:10422000034805F0CDF90023184680BD4810002052
:104230006C0300204808002080B400AF002318461B
:10424000BD465DF8047B704780B483B000AF034681
:104250003960FB711346BB80FB79232B4AD801A23E
:1042600052F823F0F5420008F5420008F542000834
:10427000F5420008F5420008F5420008F542000842
:10428000F5420008F5420008F5420008F542000832
:10429000F5420008F5420008F5420008F542000822
:1042A000F5420008F5420008F5420008F542000812
:1042B000F5420008F5420008F5420008F542000802
:1042C000F5420008F5420008F5420008F5420008F2
:1042D000F5420008F5420008F5420008F5420008E2
:1042E000F5420008F5420008F5420008F5420008D2
:1042F000F542000800BF002318460C37BD465DF8A4
:10430000047B704780B582B000AF7860396079680F
:104310000B4805F055F90A4805F0B6F9FF220021CF
:10432000084805F031FA3B681B681A467968054869
:1043300005F058FA002318460837BD4680BD00BF77
:104340006C0300205002002080B584B000AF78607C
:104350000B467B800023FB730D4BD3F8BC32BB6054
:10436000BB68D3F81432002B01D001230BE07B880B
:104370001A467968064805F001F9054805F03EF946
:104380000346FB73FB7B18461037BD4680BD00BF5C
:104390006C03002080B487B000AFF860B9601346AA
:1043A000FB710023FB7597F9173018461C37BD4683
:1043B0005DF8047B7047000080B58AB000AF78607C
:1043C00007F1140300221A605A609A60DA601A61D9
:1043D0007B681B68B3F1A04F3AD100233B611E4BB1
:1043E0001B6B1D4A43F0010313631B4B1B6B03F054
:1043F00001033B613B694FF4C0537B610223BB6106
:104400000023FB6103233B620A237B6207F1140351
:1044100019461248FEF78EFE0F4B5B6B0E4A43F0B7
:10442000800353630023FB600B4B5B6C0A4A43F42D
:1044300080435364084B5B6C03F48043FB60FB6870
:10444000002200214320FFF706F94320FFF71FF960
:1044500000BF2837BD4680BD003802400000024042
:1044600080B582B000AF78607B68D3F808257B68A0
:1044700003F2C4431946104603F027FA00BF083779
:10448000BD4680BD80B582B000AF78600B46FB7042
:104490007B68D3F80805FA7879681346DB00134483
:1044A0009B000B4403F523731A68FB78194603F04D
:1044B00061FA00BF0837BD4680BD80B582B000AF4D
:1044C00078600B46FB707B68D3F80805FA7879684A
:1044D0001346DB0013449B000B444C331A68FB78F3
:1044E000194603F0FAFA00BF0837BD4680BD80B513
:1044F00082B000AF78607B68D3F80835184603F0C7
:104500002EFC00BF0837BD4680BD80B584B000AF2B
:1045100078600123FB737B68DB68022B01D0FDF719
:1045200053F87B68D3F80835FA7B1146184603F038
:10453000D8FB7B68D3F80835184603F080FB00BF32
:104540001037BD4680BD000080B582B000AF7860F6
:104550007B68D3F80835184603F0D3FB7B681B68EB
:1045600003F560631B687A68126802F5606243F0C5
:10457000010313607B681B6A002B05D0044B1B6989
:10458000034A43F00603136100BF0837BD4680BDF0
:1045900000ED00E080B582B000AF78607B68D3F8B2
:1045A0000835184603F0C3FB00BF0837BD4680BD81
:1045B00080B582B000AF78600B46FB707B68D3F8A3
:1045C0000835FA781146184603F01BFC00BF08377F
:1045D000BD4680BD80B582B000AF78600B46FB70F1
:1045E0007B68D3F80835FA781146184603F0D7FBF4
:1045F00000BF0837BD4680BD80B582B000AF78608F
:104600007B68D3F80835184603F02DFC00BF083747
:10461000BD4680BD80B582B000AF78607B68D3F8BE
:104620000835184603F02AFC00BF0837BD4680BD98
:1046300080B582B000AF78607B681B78002B3CD1DE
:10464000204A7B68C2F808357B681E4AC3F8C82236
:104650001C4B4FF0A0421A601A4B04225A60194BAF
:104660000222DA60174B00221A61164B02229A616D
:10467000144B0022DA61134B00221A62114B002204
:104680005A62104B0022DA620E4B00221A630D4868
:1046900000F09CF90346002B01D0FCF795FF802128
:1046A000084801F0F4FB40220021064801F0A8FB75
:1046B00080220121034801F0A3FB0023184608379C
:1046C000BD4680BD4818002080B584B000AF78603A
:1046D0000023FB730023BB737B68D3F8C8321846F2
:1046E00000F091FA0346FB73FB7B184600F042F999
:1046F0000346BB73BB7B18461037BD4680BD80B5F3
:1047000084B000AF7860084611461A460346FB7035
:104710000B46BB7013463B800023FB730023BB7327
:104720007B68D3F8C802BB783A88F97800F062FF5A
:104730000346FB73FB7B184600F01CF90346BB7372
:10474000BB7B18461037BD4680BD80B584B000AF36
:1047500078600B46FB700023FB730023BB737B6800
:10476000D3F8C832FA781146184600F0ABFF03467A
:10477000FB73FB7B184600F0FDF80346BB73BB7B65
:1047800018461037BD4680BD80B584B000AF786054
:104790000B46FB700023FB730023BB737B68D3F8CD
:1047A000C832FA781146184601F083F80346FB73C5
:1047B000FB7B184600F0DEF80346BB73BB7B184654
:1047C0001037BD4680BD80B584B000AF78600B4621
:1047D000FB700023FB730023BB737B68D3F8C832E4
:1047E000FA781146184601F0C8F80346FB73FB7BC4
:1047F000184600F0BFF80346BB73BB7B1846103762
:10480000BD4680BD80B485B000AF78600B46FB70BC
:104810007B68D3F8C832FB6097F90330002B0BDAC2
:10482000FB7803F07F02F9681346DB0013449B001A
:104830000B443E331B780BE0FB7803F07F02F968F2
:104840001346DB0013449B000B4403F27E231B78CA
:1048500018461437BD465DF8047B704780B584B0B8
:1048600000AF78600B46FB700023FB730023BB7323
:104870007B68D3F8C832FA781146184600F095FEE6
:104880000346FB73FB7B184600F074F80346BB73CA
:10489000BB7B18461037BD4680BD80B586B000AFE3
:1048A000F8607A603B600B46FB720023FB750023C7
:1048B000BB75FB68D3F8C802F97A3B687A6800F0E8
:1048C000AEFF0346FB75FB7D184600F053F8034628
:1048D000BB75BB7D18461837BD4680BD80B586B018
:1048E00000AFF8607A603B600B46FB720023FB75FB
:1048F0000023BB75FB68D3F8C802F97A3B687A6875
:1049000000F02AFF0346FB75FB7D184600F032F8E5
:104910000346BB75BB7D18461837BD4680BD80B5C4
:1049200082B000AF78600B46FB707B68D3F8C8326A
:10493000FA781146184600F05AFF03461846083721
:10494000BD4680BD80B483B000AF7860034B18468D
:104950000C37BD465DF8047B704700BF541D002036
:1049600080B483B000AF786000BF0C37BD465DF8FF
:10497000047B704780B485B000AF0346FB71002311
:10498000FB73FB79032B17D801A252F823F000BF69
:10499000A1490008A7490008AD490008B34900082B
:1049A0000023FB730BE00323FB7308E00123FB737D
:1049B00005E00323FB7302E00323FB7300BFFB7BD3
:1049C00018461437BD465DF8047B7047F0B58FB0CC
:1049D0000AAF78607B68002B01D101230FE17B686F
:1049E0001B68BB607B6893F8BD34DBB2002B06D13B
:1049F0007B68002283F8BC247868FFF7DDFC7B68C5
:104A0000032283F8BD24BB68DB6B03F48073002BA7
:104A100002D17B6800221A617B681B68184601F08E
:104A200068FB7B681B683B607E686D4606F110047E
:104A30000FCC0FC50FCC0FC594E8030085E8030029
:104A4000331D0ECB386801F03FFA0346002B05D02A
:104A50007B68022283F8BD240123D0E07B681B68B9
:104A60000021184601F056FB0023FB734AE0FA7B55
:104A700079681346DB0013449B000B443D3301224D
:104A80001A70FA7B79681346DB0013449B000B44D1
:104A90003C33FA7B1A70FA7BFB7B98B27968134639
:104AA000DB0013449B000B44443302461A80FA7B1C
:104AB00079681346DB0013449B000B44403300220B
:104AC0001A70FA7B79681346DB0013449B000B4491
:104AD000483300221A60FA7B79681346DB001344DE
:104AE0009B000B444C3300221A60FA7B7968134612
:104AF000DB0013449B000B44543300221A60FB7B01
:104B00000133FB73FA7B7B685B689A42AFD3002367
:104B1000FB7344E0FA7B79681346DB0013449B0087
:104B20000B4403F27D2300221A70FA7B7968134646
:104B3000DB0013449B000B4403F51F73FA7B1A70D0
:104B4000FA7B79681346DB0013449B000B4403F5A2
:104B5000207300221A70FA7B79681346DB00134435
:104B60009B000B4403F5227300221A60FA7B7968DC
:104B70001346DB0013449B000B4403F52373002210
:104B80001A60FA7B79681346DB0013449B000B44E0
:104B900003F5257300221A60FB7B0133FB73FA7B5C
:104BA0007B685B689A42B5D37B681B683B607E6814
:104BB0006D4606F110040FCC0FC50FCC0FC594E85D
:104BC000030085E80300331D0ECB386801F0EEFAD0
:104BD0000346002B05D07B68022283F8BD24012305
:104BE0000DE07B68002283F838207B68012283F87F
:104BF000BD247B681B68184602F03DFC0023184664
:104C00001437BD46F0BD80B584B000AF78607B68D6
:104C10001B68FB607B6893F8BC34012B01D1022335
:104C200020E07B68012283F8BC247B689B6A012B0F
:104C300009D17B689B69012B05D0FB689B6B43F412
:104C40008032FB689A637B681B68184601F040FA63
:104C50007B681B68184602F0EDFB7B68002283F836
:104C6000BC24002318461037BD4680BD90B58DB0DA
:104C700000AF78607B681B683B623B6AFB617B68C6
:104C80001B68184602F0ABFC0346002B40F08A84F8
:104C90007B681B68184602F00FFC0346002B00F0EF
:104CA0008084FB6903F500639B681B0AC3F30D0254
:104CB0007B68C3F8FC247B681B68184602F0FCFB89
:104CC000034603F00203022B07D17B681B685A6975
:104CD0007B681B6802F002025A617B681B681846F9
:104CE00002F0EAFB034603F01003102B61D17B684E
:104CF0001B689A697B681B6822F010029A613B6A04
:104D00001B6ABB61BB6903F00F021346DB0013444F
:104D10009B0003F51E737A68134404337B61BB69FF
:104D20005B0C03F00F03022B24D1BA6947F6F07332
:104D30001340002B35D07B691969BB691B099BB2F5
:104D4000C3F30A039BB21A46386A02F021FA7B6960
:104D50001A69BB691B09C3F30A031A447B691A6108
:104D60007B691A6ABB691B09C3F30A031A447B698E
:104D70001A6216E0BB695B0C03F00F03062B10D11F
:104D80007B6803F2C44308221946386A02F000FA2D
:104D90007B691A6ABB691B09C3F30A031A447B695E
:104DA0001A627B681B689A697B681B6842F0100274
:104DB0009A617B681B68184602F07EFB034603F489
:104DC0000023B3F5002F40F0A78000237B627B68AF
:104DD0001B68184602F083FBB86299E0BB6A03F0D7
:104DE0000103002B00F08E807B681B687A6AD2B2C8
:104DF0001146184602F0A7FB38613B6903F0010336
:104E0000002B0CD07B6A5A01FB69134403F5306315
:104E10001A4601239360796A786800F0C3FE3B6903
:104E200003F00803002B0CD07B6A5A01FB69134482
:104E300003F530631A4608239360796A786800F0B6
:104E400099FF3B6903F01003002B08D07B6A5A01DD
:104E5000FB69134403F530631A46102393603B69E2
:104E600003F00203002B30D03B6A5B6903F0800340
:104E7000802B09D1FB6903F500635B68FA6902F5D1
:104E8000006243F4806353607A6A1346DB00134484
:104E90009B0003F51E737A68134404337B617B69BE
:104EA000DB78012B08D17B690022DA707B6ADBB2E8
:104EB00019467868FFF77CFB7B6A5A01FB6913444B
:104EC00003F530631A46022393603B6903F0200325
:104ED000002B08D07B6A5A01FB69134403F5306349
:104EE0001A46202393603B6903F40053002B09D03A
:104EF0007B6A5A01FB69134403F530631A464FF489
:104F0000005393607B6A01337B62BB6A5B08BB62C0
:104F1000BB6A002B7FF462AF7B681B68184602F007
:104F2000CBFA034603F48023B3F5802F40F0DB80F7
:104F30007B681B68184602F0ECFAB86200237B62BB
:104F4000CDE0BB6A03F00103002B00F0C2807B6858
:104F50001B687A6AD2B21146184602F012FB386119
:104F60003B6903F00103002B57D07B6A03F00F036A
:104F7000012202FA03F3FB60FB6903F500635A6B3D
:104F8000FB68DB43F96901F5006113404B637B6A01
:104F90005A01FB69134403F510631A460123936019
:104FA0007B681B69012B32D179687A6A1346DB0072
:104FB00013449B000B444C33196878687A6A134693
:104FC000DB0013449B00034448331B681944786892
:104FD0007A6A1346DB0013449B0003444C33196088
:104FE0007B6A002B13D179687A6A1346DB0013447D
:104FF0009B000B4454331B68002B08D17B68186856
:105000007B6803F2C4431A46012102F019FB7B6A54
:10501000DBB219467868FFF750FA3B6903F00803E2
:10502000002B08D07B6A5A01FB69134403F5106317
:105030001A46082393603B6903F01003002B08D045
:105040007B6A5A01FB69134403F510631A46102367
:1050500093603B6903F04003002B08D07B6A5A0140
:10506000FB69134403F510631A46402393603B69C0
:1050700003F00203002B23D0796A386A01F0FAF9B1
:105080007A6A1346DB0013449B0038337A68134472
:1050900004337B617B69DB78012B08D17B690022BB
:1050A000DA707B6ADBB219467868FFF793FA7B6A9D
:1050B0005A01FB69134403F510631A4602239360F7
:1050C0003B6903F08003002B03D0796A786800F015
:1050D000DBFC7B6A01337B62BB6A5B08BB62BB6A39
:1050E000002B7FF42EAF7B681B68184602F0E4F9B2
:1050F000034603F00043B3F1004F22D1FB6903F5EF
:1051000000635B68FA6902F5006223F001035360F3
:105110007B6893F8F434012B08D17B68002283F874
:10512000F4240021786800F0C3FE02E07868FFF7FD
:1051300031FA7B681B685A697B681B6802F0004281
:105140005A617B681B68184602F0B6F9034603F4FF
:105150000063B3F5006F12D1FB6903F500639B6830
:1051600003F00103012B02D17868FFF7EDF97B68AA
:105170001B685A697B681B6802F400625A617B688D
:105180001B68184602F098F9034603F48053B3F500
:10519000805F40F0B780FB6903F500635B68FA69E4
:1051A00002F5006223F0010353607B681B68102145
:1051B000184601F05FF90023FB6246E0FB6A5A01E2
:1051C000FB69134403F510631A464FF67F3393606F
:1051D000FB6A5A01FB69134403F510631B68FA6A02
:1051E0005101FA690A4402F5106223F400131360B6
:1051F000FB6A5A01FB69134403F530631A464FF604
:105200007F339360FB6A5A01FB69134403F53063F3
:105210001B68FA6A5101FA690A4402F5306223F404
:1052200000131360FB6A5A01FB69134403F53063F2
:105230001B68FA6A5101FA690A4402F5306243F0C8
:1052400000631360FB6A0133FB627B685B68FA6A88
:105250009A42B3D3FB6903F50063DB69FA6902F58F
:10526000006243F00113D3617B681B6B002B16D0E7
:10527000FB6903F50063D3F88430FA6902F5006234
:1052800043F00B03C2F88430FB6903F500635B6CE9
:10529000FA6902F5006243F00B03536415E0FB6901
:1052A00003F500635B69FA6902F5006243F4005399
:1052B00043F02B035361FB6903F500631B69FA6933
:1052C00002F5006243F00B031361FB6903F5006311
:1052D0001B68FA6902F5006223F4FE6313607B68C1
:1052E00018687B681B69D9B27B6803F2C4431A460D
:1052F00002F0A6F97B681B685A697B681B6802F498
:1053000080525A617B681B68184602F0D5F8034644
:1053100003F40053B3F5005F24D17B681B68184683
:1053200002F06BF97B681B68184601F020F9034610
:105330001A467B68DA607B681C68FDF7EFFE014661
:105340007B68DB68DBB21A46204600F01FFE7868F7
:10535000FFF7DBF87B681B685A697B681B6802F4FF
:1053600000525A617B681B68184602F0A5F8034694
:1053700003F00803082B0AD17868FFF7B8F87B68B8
:105380001B685A697B681B6802F008025A617B68D7
:105390001B68184602F090F8034603F08003802B48
:1053A00022D13B6A9B6923F080023B6A9A61012308
:1053B0007B6214E079687A6A1346DB0013449B0031
:1053C0000B4403F27F231B78012B05D17B6ADBB2F0
:1053D0001946786800F027FB7B6A01337B627B68A3
:1053E0005B687A6A9A42E5D37B681B68184602F0CC
:1053F00063F8034603F48013B3F5801F3BD1012308
:105400007B622BE07B6A5A01FB69134403F510634E
:105410001B68BB6179687A6A1346DB0013449B0002
:105420000B4440331B78012B15D1BB69002B12DADA
:1054300079687A6A1346DB0013449B000B443F33C0
:1054400001221A707B6ADBB263F07F03DBB219467C
:10545000786800F0E8FA7B6A01337B627B685B68FE
:105460007A6A9A42CED37B681B685A697B681B684C
:1054700002F480125A617B681B68184602F01CF81F
:10548000034603F40013B3F5001F55D101237B62DB
:1054900045E07B6A5A01FB69134403F530631B68DE
:1054A000BB6179687A6A1346DB0013449B000B44A6
:1054B00003F520731B78012B2ED1BB69002B2BDA4F
:1054C000BB6903F480327B68D3F8FC3403F001033A
:1054D0009A4221D179687A6A1346DB0013449B0013
:1054E0000B4403F27F2301221A703B6A9B6943F04D
:1054F00080023B6A9A613B6A5B6903F08003002B80
:105500000AD1FB6903F500635B68FA6902F5006282
:1055100043F40073536007E07B6A01337B627B686E
:105520005B687A6A9A42B4D37B681B685A697B6865
:105530001B6802F400125A617B681B68184601F070
:10554000BBFF034603F08043B3F1804F0AD1786874
:10555000FFF752F87B681B685A697B681B6802F08A
:1055600080425A617B681B68184601F0A5FF03461C
:1055700003F00403042B15D17B681B685B68BB61D7
:10558000BB6903F00403002B02D07868FFF742F8F0
:105590007B681B6859687B681B68BA690A435A6054
:1055A00000E000BF3437BD4690BD80B582B000AF8B
:1055B00078600B46FB707B6893F8BC34012B01D1FB
:1055C000022313E07B68012283F8BC247B68FA780D
:1055D00083F838207B681B68FA781146184601F07A
:1055E00003FF7B68002283F8BC2400231846083799
:1055F000BD4680BD80B584B000AF786008461146D6
:105600001A460346FB700B463B801346BB700023D3
:10561000FB7297F90330002B0FDAFB7803F00F02CF
:105620001346DB0013449B0038337A681344043379
:10563000FB60FB6801225A700FE0FB7803F00F0259
:105640001346DB0013449B0003F51E737A68134472
:105650000433FB60FB6800225A70FB7803F00F03F1
:10566000DAB2FB681A703A88FB68DA60FB68BA78CD
:105670001A71FB685B78002B04D0FB681B789AB228
:10568000FB681A81BB78022B02D1FB6800225A7199
:105690007B6893F8BC34012B01D102230EE07B68B8
:1056A000012283F8BC247B681B68F968184600F067
:1056B00083FF7B68002283F8BC24FB7A18461037EE
:1056C000BD4680BD80B584B000AF78600B46FB70EE
:1056D00097F90330002B0FDAFB7803F00F02134623
:1056E000DB0013449B0038337A6813440433FB60B7
:1056F000FB6801225A700FE0FB7803F00F0213469B
:10570000DB0013449B0003F51E737A6813440433D3
:10571000FB60FB6800225A70FB7803F00F03DAB2DB
:10572000FB681A707B6893F8BC34012B01D102230B
:105730000EE07B68012283F8BC247B681B68F96853
:10574000184600F0C1FF7B68002283F8BC240023C8
:1057500018461037BD4680BD80B586B000AFF860F2
:105760007A603B600B46FB72FB7A03F00F02134634
:10577000DB0013449B0003F51E73FA6813440433E3
:105780007B617B697A681A617B693A689A617B6997
:1057900000221A627B6900225A70FB7A03F00F0321
:1057A000DAB27B691A70FB681B69012B02D17A6837
:1057B0007B695A61FB7A03F00F03002B09D1FB6868
:1057C0001868FB681B69DBB21A46796901F0A0FA18
:1057D00008E0FB681868FB681B69DBB21A46796948
:1057E00001F04EF8002318461837BD4680BD80B43E
:1057F00083B000AF78600B46FB70FB7803F00F02BC
:1058000079681346DB0013449B000B4403F52773B0
:105810001B6818460C37BD465DF8047B704780B5A1
:1058200086B000AFF8607A603B600B46FB72FB7A93
:1058300003F00F021346DB0013449B003833FA6871
:10584000134404337B617B697A681A617B693A6827
:105850009A617B6900221A627B6901225A70FB7A85
:1058600003F00F03DAB27B691A70FB681B69012B26
:1058700002D17A687B695A61FB7A03F00F03002B2F
:1058800009D1FB681868FB681B69DBB21A467969A5
:1058900001F03EFA08E0FB681868FB681B69DBB2A0
:1058A0001A46796900F0ECFF002318461837BD4608
:1058B00080BD80B584B000AF78600B46FB70FB788C
:1058C00003F00F027B685B689A4201D9012350E024
:1058D00097F90330002B0FDAFB7803F00F02134621
:1058E000DB0013449B0038337A6813440433FB60B5
:1058F000FB6801225A700DE0FA781346DB0013446E
:105900009B0003F51E737A6813440433FB60FB6845
:1059100000225A70FB6801229A70FB7803F00F0393
:10592000DAB2FB681A707B6893F8BC34012B01D1A2
:1059300002231EE07B68012283F8BC247B681B687D
:10594000F968184601F07CFCFB7803F00F03002B8C
:105950000AD17B6818687B681B69D9B27B6803F23F
:10596000C4431A4601F06CFE7B68002283F8BC2415
:10597000002318461037BD4680BD80B584B000AF07
:1059800078600B46FB70FB7803F00F027B685B6866
:105990009A4201D9012342E097F90330002B0FDA34
:1059A000FB7803F00F021346DB0013449B003833EF
:1059B0007A6813440433FB60FB6801225A700FE0DD
:1059C000FB7803F00F021346DB0013449B0003F542
:1059D0001E737A6813440433FB60FB6800225A701C
:1059E000FB6800229A70FB7803F00F03DAB2FB68C1
:1059F0001A707B6893F8BC34012B01D102230EE0AE
:105A00007B68012283F8BC247B681B68F968184610
:105A100001F084FC7B68002283F8BC240023184634
:105A20001037BD4680BD80B584B000AF78600B46AE
:105A3000FB7097F90330002B0CDAFB7803F00F02B0
:105A40001346DB0013449B0038337A681344043355
:105A5000FB600CE0FB7803F00F021346DB001344FD
:105A60009B0003F51E737A6813440433FB607B6864
:105A70001B68F968184601F0A3FA0346FB72FB7A2B
:105A800018461037BD4680BD80B58AB002AF786039
:105A900039607B681B687B617B693B613A681346B0
:105AA000DB0013449B0038337A6813440433FB60F3
:105AB000FB681A6AFB689B699A4201D901236CE072
:105AC000FB689A69FB681B6AD31AFB61FB68DB6899
:105AD000FA699A4202D9FB68DB68FB61FB69033310
